:020000040800F2
:10000000000002205D050008AD0500087D12000813
:10001000AD050008AD050008AD05000800000000B2
:10002000000000000000000000000000AD05000816
:10003000AD05000800000000AD0500086D120008C5
:10004000AD050008AD050008AD050008AD050008C8
:10005000AD050008AD050008AD050008AD050008B8
:10006000AD050008AD050008AD050008B90700089A
:10007000C5070008A1070008D1070008DD07000830
:10008000AD050008AD050008AD050008AD05000888
:10009000AD050008AD050008AD050008AD05000878
:1000A000AD050008AD050008AD050008AD05000868
:1000B000AD050008AD050008AD050008AD05000858
:1000C000AD050008AD050008AD050008AD05000848
:1000D000AD050008AD050008AD050008AD05000838
:1000E000AD050008AD05000800000000AD050008E2
:1000F000AD050008AD050008AD050008AD05000818
:10010000AD050008AD050008AD050008AD05000807
:10011000AD050008AD050008AD050008AD050008F7
:10012000AD050008AD050008AD050008AD050008E7
:10013000AD050008AD050008AD050008AD050008D7
:1001400000000000000000000000000000000000AF
:10015000AD050008AD050008AD050008AD050008B7
:10016000AD050008AD050008AD050008AD050008A7
:10017000AD050008AD050008AD050008AD05000897
:10018000AD050008AD050008AD050008AD05000887
:10019000AD050008AD050008AD050008AD05000877
:1001A000AD050008AD050008AD050008AD05000867
:1001B000F10D0008AD050008AD050008AD0500080B
:1001C000AD050008AD050008AD050008AD05000847
:1001D000AD050008AD050008AD050008AD05000837
:1001E000AD050008AD050008AD050008AD05000827
:1001F000AD050008AD050008AD050008AD05000817
:10020000AD050008AD050008AD050008AD05000806
:10021000AD050008AD050008AD050008AD050008F6
:10022000AD050008AD050008AD05000800000000A0
:10023000AD050008AD05000800000000AD05000890
:10024000AD050008AD050008AD050008AD050008C6
:10025000AD050008AD050008AD050008AD050008B6
:10026000AD050008AD050008AD050008AD050008A6
:10027000AD050008AD050008AD0500080000000050
:10028000AD050008AD050008AD0500080000000040
:0802900000000000AD050008AC
:1002980010B5054C237833B9044B13B10448AFF3B8
:1002A80000800123237010BD10000024000000000E
:1002B8009802000808B5034B1BB103490348AFF384
:1002C800008008BD00000000140000249802000807
:1002D8002DE9F04704464FF00A0E002201210520BF
:1002E8004FF0020C0427062307264FF008080925BB
:1002F8004FF0030982B084F80EE0DFF8C4A14FF094
:100308000B0E2171A174E27022702275A2756071C2
:10031800E0716072E0726073A070E0772572A67277
:1003280066702373E373237484F8213084F806809D
:1003380084F811C084F818C084F81BC0A776277702
:100348006777A77784F8207084F8227084F8239060
:10035800E1746275E17584F8242084F8251084F826
:10036800263084F8275084F8282084F82C2084F834
:100378002D2084F82E2084F8331084F82F1084F868
:10038800311084F83250154684F8341084F8391046
:1003980084F8356084F8371084F83A2084F83B30C4
:1003A80004F1500384F83D0084F83E1084F83F10AF
:1003B80084F8402084F82BE084F819C084F829C018
:1003C80084F82A9084F8308084F8367084F83CC029
:1003D80084F838E004F1580E84F841600DEB01060A
:1003E80084F8432084F8451084F8462084F848208F
:1003F80084F8492084F84A2084F84B1084F84C206B
:1004080084F84E200DEB080284F84F0084F842C0AF
:1004180084F844C084F8479084F84D7084F85B8071
:100428009AE8030002E9030001E016F8015B03F80B
:10043800015B7345F9D1002201230621072084F8C6
:100448005C20042784F85E20052684F860200225B5
:100458000E2284F85D3084F8643084F8672084F8CC
:10046800683084F8661084F8630084F85F7084F854
:10047800616084F8625000F0FFFE204600F0BAFC8C
:10048800E01C00F02FFA04F1620001F05FFB04F1B8
:10049800660001F05BFB04F13A0000F085F804F116
:1004A8005C00032101F07EFB04F12E0204F134010B
:1004B80004F1110002B0BDE8F04700F091B900BFA7
:1004C800E46C0008024808B5FFF702FFFEE700BF2A
:1004D8002C00002430B4194C0022194BD4F8881091
:1004E800184841F47001184DC4F888101C68174961
:1004F80044F001041C601A611C68204018609A616D
:10050800DA611A629A62DA621A635A639A63DA6380
:100518001A645A64186820F4802018601A662B68D8
:100528001940B1F1005F02D2094B01221A60034B56
:100538004FF0006230BC9A60704700BF00ED00E0E9
:10054800004402587FEDF6EA0010005C0000FFFF4F
:1005580008810051DFF834D0002103E00C4B5B58D0
:10056800435004310B480C4B42189A42F6D30B4ABD
:1005780002E0002342F8043B094B9A42F9D3FFF703
:10058800A9FF06F071FBFFF79DFF704700000220EE
:10059800D86F000800000024100000241000002478
:1005A8003C0E0024FEE700002DE9F043314E002404
:1005B800314D8DB090F8212033464FF0010E4FF0A9
:1005C800080C03214FF42018DFF8B4904FF480771B
:1005D800B061284603F8022BC6F80240AA615C60A5
:1005E8009C60DC601C619C82E962AF820194049487
:1005F800AC602C77C5E90098C5E903ECC5E9094466
:10060800C5E90C44CDE90244CDE90544CDE90744E8
:10061800CDE9094485F8384001F016FE01A92846BD
:100628004FF0050840F2FF79019401F017FF04200C
:1006380000213378CDE90689CDE90801B3B1062256
:10064800DFF840800D4F01E057F82420B36904A972
:1006580028460592234401349B7DE4B258F82330A0
:10066800049301F02BFB3378A342EDD80DB0BDE81D
:10067800F08300BF98000024DC070024286D0008E0
:1006880000200240FC6C00083C4B02682DE9F04F4A
:100698009A4289B04FF00004049403940794CDE97A
:1006A800054402D009B0BDE8F08F354B0546354EFC
:1006B800D3F8D810D6F8188041F0200108F11607B1
:1006C800C3F8D810D3F8D81001F020010091009990
:1006D800D3F8E01041F00401C3F8E010D3F8E010BB
:1006E80001F0040101910199D3F8E01041F00101F2
:1006F800C3F8E010D3F8E030317803F00103029337
:10070800029BE9B1DFF888B04FF00309DFF884A055
:100718002346FB5C013403A908EB430C18F81300CB
:100728009CF801305BF820003AF81330CDE9033922
:100738000023059304F0EAFFE3B231789942E8D840
:10074800114C0921114A4FF480634FF40060616035
:1007580022604FF400514FF48072236100236061DE
:100768002046C4E90612C4E90233C4E9083305F097
:10077800A7FAEC64A56309B0BDE8F08F0020024039
:100788000044025898000024400800244000024019
:10079800886D0008686D0008014805F05BBC00BF63
:1007A800400800240B4692000146184606F080BA1D
:1007B800014805F04FBC00BF280C0024014805F093
:1007C80049BC00BFA00C0024014805F043BC00BF91
:1007D800180D0024014805F03DBC00BF800A002424
:1007E8002DE9F04F044683B016460846237A009157
:1007F8000193257894F807A000F0C0FD83463046A1
:1008080000F0BCFD304F2022304BDFF8D480814609
:100818002046C7F80423C8F804233B60C8F8003012
:1008280000F078FF0099084600F046FD304600F0D9
:1008380043FD15F0FD0F13D1BAF1020F87F80DA390
:100848002BD04FF400720021214806F03FFA4FF4F4
:10085800807200211F4806F039FA0023C7F80833D0
:10086800013D012D02D903B0BDE8F08F019B022B99
:1008780088F80D331CD04FF400720021164806F09A
:1008880025FA4FF480720021144806F01FFA00235D
:10089800C7F8083303B0BDE8F08F617958461023D4
:1008A8004BF68032B1FA81F1490905F0F5FFC8E746
:1008B800A179484610234BF68032B1FA81F14909F3
:1008C80005F0EAFFD7E700BFB4000024AD07000831
:1008D800B8000024B8020024CC030024CC0500246E
:1008E800C80300242DE9F04FA44C0346ABB02046C2
:1008F80023655F7893F8008002F044FBE8B9012F84
:100908004FF001059E49034614BF4FF480124FF47F
:100918000002E060A560C4E9001592FAA2F2B2FAFA
:1009280082F24FF48076E0612046013A2362C4E9FE
:10093800042602F0BBFA034618B101202BB0BDE82B
:10094800F08F4FF0660C41F2883220460EA91496BB
:10095800179313931B93CDF838C0CDE91533CDE920
:10096800193302F02DFB0028E7D1992341F2883290
:100978000EA920460E9302F023FB0028DDD14FF08C
:10098800000B4FF0010C4FF0050A4FF080792490CE
:1009980008AA21901CA9299041F28833CDF870A0AB
:1009A800CDF89490CDE908BC4FF0100B4FF0010C36
:1009B800CDE90ABC4FF0000B4FF4800CCDE9226062
:1009C800CDE927002046CDE90CBC02F065FC0028E3
:1009D800B3D1ADF808001390CDE91460CDE916093C
:1009E800CDE91850CDE91A00002F00F0CB80F02394
:1009F800ADF80830C02341F288320EA95F480E9343
:100A080002F0DEFA002898D141F288325B4802A948
:100A180002F040FB044600288FD1002601274FF43E
:100A280080754FF080794FF0000A4FF4800B2194C5
:100A380041F28833299408AA1CA950482295CDF878
:100A48009490CDE90867CDE9234410260127CDE924
:100A580027440524CDE90A671C94CDE90CAB02F0C4
:100A68001BFC00287FF469AF012406238DF80700DA
:100A780041F2883213901CA91B90219029900E9462
:100A88001C93CDE91450CDE91609CDE91900CDE93B
:100A98002250CDE92400CDE92700384802F090FA29
:100AA80000287FF44AAF10260127052041F2883339
:100AB80008AA1CA91C903148CDF89490CDE90A6782
:100AC80002260227CDE90CABCDE9086702F0E4FB6A
:100AD80000287FF432AF41F288320EA9274802F08D
:100AE8006FFA00287FF429AF402341F288320DF1D4
:100AF800070122488DF8073002F0CCFA00287FF46D
:100B08001CAF10260127052002AA41F288330EA93E
:100B18000E901A48CDF85C90CDE90467402640272E
:100B2800CDE906ABCDE9026702F0B6FB0646002820
:100B38007FF403AF229500252196052029960127E9
:100B48001C9008AA41F288331CA90C48CDF894904F
:100B5800CDE92366CDE927660126CDE9085610269A
:100B6800CDE90CABCDE90A6702F096FB00287FF4CB
:100B7800E4AEB8F1000F50D00020DFE6DC06002418
:100B880000500052612341F288320EA920460E938C
:100B980002F016FA00287FF4D0AE41F2883202A99A
:100BA800204602F0F5FA00287FF4C7AEBDF80830F9
:100BB8000625259041F2883223F078032190299068
:100BC8001CA943F0400322961C95ADF80830CDE9E6
:100BD8002300CDE92700204602F0F2F900287FF42F
:100BE800ACAE1026012720460225022441F28833A4
:100BF80008AA1CA9CDF870A0CDF89490CDE90A6791
:100C080000264FF48007CDE90845CDE90C6702F0CE
:100C180043FB00283FF4EEAE8FE6EB24A0264FF40A
:100C2800005706251C9400244FF0805000234FF4F1
:100C380080784FF4406929900EAA1CA90C48CDE988
:100C48001E67CDE920454FF440464FF04077002419
:100C58000025CDE92733CDE92289CDE92467CDE9FF
:100C68000E4502F08DFB003818BF012066E600BF74
:100C7800DC0600243F4B02682DE9F04F9A428DB004
:100C88004FF00004CDE90744CDE909440B9402D0A4
:100C98000DB0BDE8F08F384B4FF0020837490DF121
:100CA800140AD3F8D420A146DFF8DCB0032642F4B6
:100CB8008042334F334DC3F8D420D3F8D42002F404
:100CC80080420092009AD3F8E02042F04002C3F834
:100CD800E020D3F8E02002F040020192019AD3F814
:100CE800E02042F02002C3F8E020D3F8E02002F030
:100CF80020020292029AD3F8E02042F01002C3F8D0
:100D0800E020D3F8E02002F010020392039AD3F80F
:100D1800E02042EA0802C3F8E020D3F8E03003EA12
:100D280008030493049B03C90590ADF81810DBF879
:100D3800503007A903EB44030134D8789A7835F882
:100D4800103057F8220007931AF8013BCDE90889BB
:100D5800CDE90A6304F0DAFC062CE8D100225C2015
:100D6800114601F0F1FB5C2001F028FC0DB0BDE854
:100D7800F08F00BF0050005200440258B86D0008C0
:100D8800E06D0008C06D0008DC0600240268F8B5B4
:100D9800104B9A4200D0F8BD0F4A00240F4FD2F8EA
:100DA800D4300F4E23F480430E4DC2F8D4303B6D3F
:100DB80003EB44030134DA789B7836F8121055F8BF
:100DC800230004F0C7FD062CF1D15C20BDE8F840F3
:100DD80001F002BC0050005200440258DC06002416
:100DE800C06D0008E06D0008014802F051BB00BF6B
:100DF800DC0600242DE9F043454C8BB0A063037852
:100E080023B1002528460BB0BDE8F083414A0223F0
:100E180000260127626008220893202302A9201DCA
:100E2800C4E90267C4E9042340264FF4C0770022CE
:100E38004FF44063C4E90667C4E908234FF48056B9
:100E48004FF4005702220723C4E90A67CDE90223B9
:100E58000426032202230727CDE90623CDE90467E8
:100E680001F0A2FC054600284CD14FF001084FF0D4
:100E780010090126002702A94FF480520190201D75
:100E8800CDE902894FF002084FF01009CDE9046757
:100E980001F0B4FC642005F0E7FC02A94FF480528D
:100EA800201DCDE90467CDE9028904264FF0030827
:100EB8004FF01009002701F0A1FC02A94FF480525D
:100EC800201DCDE90467CDE9028901F097FC40F2C5
:100ED80031234FF0010C042601931027019B02A92E
:100EE8004FF48052201DCDE904C3CDE9026701F01B
:100EF80085FC201D40F6060101F0A0FC28460BB039
:100F0800BDE8F083012528460BB0BDE8F08300BF9B
:100F18003807002440410052684A2DE9F04315681B
:100F28008FB015B10FB0BDE8F083654B01210C24DB
:100F3800002611600327D3F8D4204FF683784FF0AA
:100F4800020908A942F480525E48C3F8D420D3F8B5
:100F5800D42002F480520092009AD3F8E02042F0A4
:100F68001002C3F8E020D3F8E02002F0100201924A
:100F7800019AD3F8E02042F04002C3F8E020D3F809
:100F8800E02002F040020292029AD3F8E02042F0F8
:100F98000802C3F8E020D3F8E02002F00802039228
:100FA800039AD3F8E02042F48072C3F8E020D3F823
:100FB800E02002F480720492049AD3F8E02042F010
:100FC8008002C3F8E020D3F8E02002F08002059206
:100FD800059AD3F8E02042F02002C3F8E020D3F8C5
:100FE800E02002F020020692069AD3F8E02042F0B0
:100FF8000402C3F8E020D3F8E0300C9403F00403B3
:101008000793079BCDE90A67CDE9088904F07EFBC1
:1010180048F23712022308A92B480C94CDE90A6735
:10102800CDE9082304F072FB4CF20372022308A9ED
:1010380026480C94CDE90A67CDE9082304F066FB3D
:1010480040F2FF62022308A921480C94CDE90A67FF
:10105800CDE9082304F05AFB4FF60C72022308A9C5
:101068001C480C94CDE90A67CDE9082304F04EFB2F
:101078004FF63F02022308A917480C94CDE90A67E6
:10108800CDE9082304F042FB144BDFF858C00322D3
:101098009B6B0226124808A95F7893F802E050F883
:1010A80027003CF81E300C940A950B92CDE90836BF
:1010B80004F02CFB0FB0BDE8F08300BF300700241C
:1010C800004402580010025800180258000C025838
:1010D80000200258001C0258001402583807002447
:1010E800306E0008106E00082DE9F04FCFB04C228A
:1010F80000210AA805F0EAFD2022002102A805F037
:10110800E5FDBC2200211EA805F0E0FD022005F047
:1011180015FB514A0021514B01911846D16A21F023
:101128000101D162D26A02F0010201929A6942F485
:1011380040429A619B6903F440430193019B836990
:101148009B04FCD5464A022421204FF48031936A3F
:101158000126042523F0030323439362C8230822AE
:101168001096169300231794199415951C93CDE99E
:101178000A0105210AA8CDE913441891CDE91A23DB
:1011880002F002FD00B1FEE73F26032700220823F4
:1011980002A82146CDE90267CDE904234026402371
:1011A8004FF480624027CDE90823CDE9066703F0B4
:1011B8002BF8034600B1FEE780220226022700250D
:1011C80034924FF4807233948024439200224FF07B
:1011D80064084FF002091EA8CDE93B334FF4805351
:1011E80035934FF4803346930623CDE92267CDE942
:1011F800244540F22716402704240425CDE9262358
:101208004FF480620023CDE92867CDE92A45CDE96E
:101218002C230FF23C0BDBE900AB0026012700244E
:10122800002500224FF44013CDE91EABCDE92089FB
:10123800CDE92E67CDE93045CDE93E2303F00CFA20
:1012480000B1FEE705F0A0FA4FB0BDE8F08F00BF8F
:1012580009130F0304000000000400580048025856
:101268000044025808B505F0EDFABDE8084001F061
:10127800E1B900BFFFBE704708B5FFF735FF05F0BD
:101288000FFCBFF34F8FBFF36F8F0A4B0022C3F8D9
:101298005022BFF34F8FBFF36F8F5A6942F4003269
:1012A8005A61BFF34F8FBFF36F8FBDE8084005F059
:1012B8009BBA00BF00ED00E038B502780346022A69
:1012C80024D0032A2CD0012A34D000681E4A1F4992
:1012D80010600C469B881E480860938000250123F7
:1012E8001C4A2046E3602562C4E90125C4E9045587
:1012F800C4E9065501F06CFB2946204601F096FC2E
:1013080029462046BDE8384001F0BCBC0068124AB6
:101318001249106012480C469B8808609380DDE7EC
:101328000068104A1049106010480C469B880860F5
:101338009380D3E700680E4A0E4910600E480C46A9
:101348009B8808609380C9E774070024500900242B
:1013580000540040FFEAC00084070024B8080024B5
:10136800005C00408C07002404090024001C00587D
:101378007C0700249C090024005800400378032BB4
:1013880003D8034A52F8230070470020704700BF73
:10139800606E0008954A036893422DE9F04F8DB0BE
:1013A8004DD0934A934200F08B80924A934200F0CA
:1013B800D380914A934202D00DB0BDE8F08F02F578
:1013C8000A32DFF8448207AC4FF01209D2F8E01075
:1013D8004FF0000B454608F1040A41F00201874F1F
:1013E800874EC2F8E010D2F8E02002F0020206921E
:1013F800069AAA7821466878023536F8123098F8A5
:10140800002057F82000012ACDF828B00793CDE92D
:10141800089B00F2E48004230B9304F077F9554508
:10142800E7D1784BD3F8F42042F08002C3F8F420D7
:10143800D3F8F43003F080030793079BBCE7714AA5
:1014480007ACDFF8C8814FF0120AD2F8E0104FF06D
:10145800000B454608F1040941F00201674F684E48
:10146800C2F8E010D2F8E02002F002020092009ADE
:10147800AA7821466878023536F8123098F80020A4
:1014880057F82000012ACDF828B00793CDE908AB1A
:1014980000F2958004230B9304F038F94D45E7D109
:1014A800584BD3F8E82042F40012C3F8E820D3F8E8
:1014B800E83003F400130193019B0DB0BDE8F08FF1
:1014C800504B07ACDFF848A14FF01208D3F8E010F2
:1014D8004FF0000B55460AF1040941F08001474FCF
:1014E800474EC3F8E010D3F8E01001F080010291F4
:1014F8000299D3F8E01041F00201C3F8E010D3F8E4
:10150800E03003F002030393039BAB78214668782D
:10151800023536F813209AF8003057F82000012BCE
:10152800CDF828B00792CDE9088B4ED804230B9349
:1015380004F0ECF8A945E8D1324BD3F8E82042F49E
:101548008002C3F8E820D3F8E83003F4800304935A
:10155800049B0DB0BDE8F08FDFF8B8B007AC274F9B
:101568004FF0120A5D460BF10409254E4FF00008B2
:10157800AA7821466878023536F812309BF80020A0
:1015880057F82000012ACDF828800793CDE908A84C
:1015980020D804230B9304F0B9F84D45E8D1194B32
:1015A800D3F8E82042F40002C3F8E820D3F8E83082
:1015B80003F400030593059B0DB0BDE8F08F04F01C
:1015C800A5F8A9457FF454AF6AE704F09FF8A94548
:1015D8009BD1B1E704F09AF8A945C9D1DFE704F037
:1015E80095F8AA457FF405AF1BE700BF00540040FB
:1015F80000580040005C0040001C0058906E000835
:10160800706E0008004402588C07002474070024F8
:101618007C070024840700241A4B1B4870B5DA782D
:1016280000245B794BF68035012A184E82B021469A
:1016380014BF00220222012B846044610CBF0323E3
:101648000123C46043600223066020360562012539
:101658000192C0E90644C0E90B440B4802F0D2F9F4
:101668000B480223019A21464461C461C460446363
:101678000660C0E90B44C0E9013502B0BDE870401E
:1016880002F0C0B99C070024900D002404580140C2
:10169800900B00241A4B1B481B4970B51A7900247B
:1016A8009B7982B0012A194D4FF00106016014BFE1
:1016B80000220222012B214601920CBF02230023A3
:1016C80086606B600323124E436002234461C46149
:1016D800C4604463C0E90B4402F094F92146019ABE
:1016E80002230A48AC606C61EC61EC606C632E60AC
:1016F800C5E90B4402B0BDE8704002F083B900BFF1
:101708009C070024F80A0024045C0140E80900242E
:10171800245C014070B505460E4E00686968344681
:10172800AA68EB680FC4AA6928696969337807C48D
:10173800012B2A7F227005D0022B01D033B170BD56
:10174800FFF76AFFBDE87040FFF7A4BFBDE870402F
:10175800FFF762BF9C070024B64BD3F8E02042F0A5
:1017680010022DE9F04FC3F8E02095B0D3F8E0203F
:101778000446B14D02F010020292029AD3F8E0201A
:1017880042F00202C3F8E020D3F8E02002F002029F
:101798000392039AD3F8E02042F04002C3F8E02015
:1017A800D3F8E02002F040020492049AD3F8E02033
:1017B80042F00802C3F8E020D3F8E02002F0080263
:1017C8000592059AD3F8E02042F00402C3F8E0201D
:1017D800D3F8E02002F004020692069AD3F8E0203B
:1017E80042F00102C3F8E020D3F8E02002F0010241
:1017F8000792079AD3F8E02042F48072C3F8E020F9
:10180800D3F8E010026801F48071AA42089108999F
:10181800D3F8E01041F08001C3F8E010D3F8E010ED
:1018280001F0800109910999D3F8E01041F02001F5
:10183800C3F8E010D3F8E01001F020010A910A99EA
:101848000CD07E4B9A4200F0BF807D4B9A4238D034
:101858007C4B9A426BD015B0BDE8F08F7A490A6884
:10186800002A00F05C810125DFF8F4A101320FAFF6
:10187800012DDFF8F0910A605646DFF8EC814FF051
:10188800000B394602D19AF8050098B996F80AC0B3
:101898000222707A38F81C3059F82000CDF848B088
:1018A8000F93CDE9102B0622139203F02FFF052D7D
:1018B80000F0DC80013502363946EDB2012DE2D068
:1018C800E4E7624A136863B95A49D1F8F00040F472
:1018D8000000C1F8F000D1F8F01001F400010D91FA
:1018E8000D9901335A4D5B48592113604FF48062BA
:1018F8004FF4805328604FF4804069602A614FF4A8
:1019080080714FF400326B610023A86128466B6236
:10191800C5E90712C5E9023304F0D2F92268494B38
:10192800C4F884509A42AC63C4F8805093D1474AB3
:101938001368002B00F0E5800025DFF824A10133AF
:101948000FAFDFF8209156461360AB46DFF81881D9
:101958004FF00A0C3946EAB20DB3022396F814E0A8
:10196800F07C38F81EE09A4259F82000CDF848B0CB
:10197800CDF83CE00192CDE9103B00F0C080CDF8F5
:101988004CC003F0C3FE019A042A00F0938001358D
:1019980002364FF00A0C3946EAB2002DDDD19AF82A
:1019A800061062460029F2D1307D0223F17C38F816
:1019B800100012950F9059F82100CDE910353946DD
:1019C800139203F0A3FEE2E71F490B6863B9194AB3
:1019D800D2F8F00040F48000C2F8F000D2F8F0200D
:1019E80002F480020C920C9A01331B4D58204FF4DC
:1019F80080620B6040214FF4805368604FF4804050
:101A0800A9602A614FF480714FF400326B61134E64
:101A18000023A86128462E60EB606B62C5E90712B7
:101A280004F04EF92268C4F88450AC63C4F88050BE
:101A38000BE700BF004402580458014024580140F5
:101A4800045C0140245C01409407002498070024AA
:101A5800180D002458000240A00C00242800024061
:101A68009C070024E06E0008C06E0008324D4FF459
:101A78008060324B4FF480724FF4804157272B60BF
:101A88004FF480564FF4003328612846C5F808B053
:101A9800C5F80CB0C5F824B06F60C5E90723C5E9DF
:101AA800056104F00DF92268C4F88450AC63C4F8E9
:101AB8008050C6E6224D5A2222494FF480604FF4E6
:101AC80000336A6029604FF480724FF480414027E8
:101AD8004FF4805628612846C5F80CB0C5F824B0E4
:101AE800AF60C5E90561C5E9072304F0E9F8C4F862
:101AF8008450AC63C4F8805015B0BDE8F08F08225C
:101B08005DE71149D1F8F00040F40000C1F8F00099
:101B1800D1F8F01001F400010E910E990CE7D3F8FA
:101B2800F00040F48000C3F8F000D3F8F03003F47C
:101B380080030B930B9B96E6280C002410000240B0
:101B4800800A0024700002400044025830B58378AF
:101B580087B0012B1BD0022B18D000230293C37827
:101B6800012B18D0022B16D00023039345780023AD
:101B7800047801A9094A0A4832F8152050F82400C7
:101B88000192049303F0C2FD07B030BD1123029304
:101B9800C378012BE6D10393E8E700BF106F000874
:101BA800306F000870B5184D8AB00C462B7E6861FE
:101BB8009BB1002002210026002200230496CDE9D3
:101BC8000001CDE90223C4B1032C16D004F0FD03B3
:101BD800012B0AD06C760AB070BD0C4B28462B60DE
:101BE80000F02CFD01232B76E3E710226946064816
:101BF80000F03AFD6C760AB070BD002269460248D2
:101C080000F032FDE2E700BFBC070024007400408A
:101C1800254B02689A4200D07047244B0020D3F825
:101C2800E81070B541F00051214C88B00325627E60
:101C3800C3F8E810D3F8E81001F0005101910199B8
:101C4800D3F8E01041F00101C3F8E010D3F8E03018
:101C5800049503F0010305900293029B3AB1AA424E
:101C680005D002F0FD02012A10D008B070BD6369EA
:101C780003A9104DDE7898780F4A35F8163052F8D7
:101C88002000039303F042FD627EEAE7636903A93B
:101C9800084C5D791879084A34F8153052F8200054
:101CA800039303F033FDE0E700740040004402585A
:101CB800BC070024606F0008806F0008F0B50022A0
:101CC80083B0019290F85020012A00F01B8103464E
:101CD80001201A6883F850009468660700F189802B
:101CE8000C68C4F31305002D40F08E80C4F3846C97
:101CF80000FA0CF04C681F26D569A7093440284320
:101D080002F1300507F00C07A640D0610CFA04F484
:101D1800785920EA0600204378519068450771D425
:101D2800956815F0080548D10C6802F114060720DB
:101D38008F684FEAD45CC4F304540CF0040C00FA26
:101D480004FE07FA04F4C64F5CF8060020EA0E0009
:101D580020434CF80600386800F07040B0F1805F0E
:101D680000F0C880D068D66810F0100F486940F0BD
:101D7800E980C6F38206760000FA06F60F69042F9A
:101D880000F0C38002F16004086854F827C000F02E
:101D9800F8400CF0004C40EA0C00304344F82700AF
:101DA8000E694F7E54F82600012F20F0004008BF2E
:101DB8004FF00045054344F826509068C40716D4F0
:101DC800CE68086806F01807A64CD2F8C050FC4048
:101DD800C0F31307DFF8B8C2044025EA07056645D3
:101DE80044EA0504C2F8C04046D0002816DB0020AB
:101DF80003E05A6D42F020025A65002283F8502011
:101E080003B0F0BD9068D8E794FAA4F5B5FA85F563
:101E1800C4F3846C05F01F04A0406BE792498A4222
:101E280000F0B68001F580718A4200F0B1808F4ED3
:101E38008F4DA968B46801F0E076E44304F001042A
:101E4800002C00F0B3808B4CA04200F0E6808A4C56
:101E5800A04200F01F81894CA042C8D14902C6D4D3
:101E680082498A42C3D1AA68002022F0E072324334
:101E780042F48002AA60C0E7002F69D090FAA0F46B
:101E8800B4FA84F4013404F01F04092C00F2A3808E
:101E980090FAA0F4B4FA84F490FAA0F50126B5FA01
:101EA80085F501343544A40605F01F0504F0F8440F
:101EB80006FA05F52C4390FAA0F0B0FA80F0304409
:101EC80000F01F0000EB400000052043C70D02F1A1
:101ED8001405C0F304504FF0070C07F004078E6890
:101EE8000CFA00FC7C59864024EA0C0030437851F7
:101EF80008687AE7D6684869C6F38206760000FA69
:101F080006F63BE7022003B0F0BD106E0D6800F046
:101F1800F840AC06B0EB856F30D0506E00F0F8405A
:101F2800844226D0906E00F0F84084422BD0D06EC8
:101F380000F0F84084427FF440AFD06E20F00040BB
:101F4800D0663AE7760806F0080600FA06F615E7BE
:101F5800800E441C04F01F06092E2DD8A406012566
:101F680006EB460004F0F84405FA06F6000534438B
:101F7800ABE7506E20F000405066D3E7106E20F0BB
:101F880000401066C9E7906E20F000409066CEE7EA
:101F98003B49354E3B4C0D468968B768A46801F04B
:101FA800E0763C43E44304F0010449E75A6D01201C
:101FB80042F020025A6520E706EB46000127A506F5
:101FC8001E3807FA06F605F0F8450005354340F0D7
:101FD800007028437AE790FAA0F5B5FA85F590FAEB
:101FE800A0F40126B4FA84F401353444AD0604F0B3
:101FF8001F0405F0F84506FA04F4254390FAA0F406
:10200800B4FA84F4344404F01F0404EB4404A4F147
:102018001E00000540F00070DBE708023FF5E7AE60
:1020280012498A427FF4E3AE174AA9681268174832
:1020380021F0E07192093143A0FB020241F4000152
:102048009209A96052000192019A002A3FF4CFAE8A
:10205800019A013A0192019A002AF9D1C7E600BF14
:102068000010005CFFFF0F000020024000600258D3
:1020780000630258000084CB000052C70000B8CFAC
:10208800002302400021024000000024632D3E0589
:102098000000FF4711F080707FF4A9AE05498A421D
:1020A8007FF4A5AEAA6822F0E072324342F0807253
:1020B800AA60A2E60060025838B55A4A0446036886
:1020C800934249D002F58072934245D0564B9B68A3
:1020D80013F4403F14BF01230023EBB102F0AEF923
:1020E80063680546B3F5003F00F08B80B3F5403FC9
:1020F80073D0B3F5803F00F0848004F0C7FB41F251
:10210800030398421FD8494B9D4260D922689368BF
:1021180043F48073936038BD4FF4002003F014FA41
:1021280063680546B3F5101F75D01DD9B3F5201F98
:102138005BD0B3F5301FE0D104F0A8FB41F20303F4
:10214800984244D92D0A3A4B9D422ED8226893686A
:1021580023F44073936038BD364B9B6813F4403FBB
:1021680014BF01230023B8E7B3F5E01F3FD004D91B
:10217800B3F5001FC1D14509BFE7B3F5801F06D0ED
:102188000AD9B3F5A01F02D0B3F5C01FB5D19B0C77
:102198005B00B5FBF3F5B0E7B3F5002FF7D023F4F8
:1021A8000022B2F5802FF2D0A7E7234B234A2B4415
:1021B80093421ED9224B234A2B44934222689368A8
:1021C8002BD823F4407343F40073936038BD22681E
:1021D800936823F48073936038BD850804F056FB38
:1021E80041F203039842AED88DE7C50985E7050992
:1021F80083E72268936823F4407343F48073936001
:1022080038BD1B0CB5FBF3F504F040FB41F20303AA
:10221800984298D877E785096FE743F4407393604D
:1022280038BD00BF0020024000630258002D310174
:10223800105E5F0000230240EFA1A0FF0F5E5F0069
:10224800DF4341FF1FBCBE0070B5002382B001937D
:10225800002800F0CF80456D0446002D00F0B980BD
:10226800226893689D0003D59168704B0B4093607A
:102278009368D80015D46E4B90681B686D4D9B0908
:102288006D49A5FB035301409B0941F080519160C2
:102298000193019B2BB1019B013B0193019B002BF7
:1022A800F9D19368D90024D4636D012543F0100354
:1022B8006365A36D2B43A365936813F0040F636DE7
:1022C8001DD1DB061BD4636D23F4817343F0020335
:1022D80063659368DE0728D4584B9A4217D003F5F4
:1022E80080739A4213D0564B9B68D9071DD4554A20
:1022F80015E09368002513F0040F636DE1D0636D5A
:10230800012543F010032846636502B070BD4B4AAF
:102318004D4B92689B681343D80706D44B4A936881
:10232800616823F47C130B43936004F0AFFA41F225
:102338000303A1689842237F51D8667D1A04206B55
:1023480042EA463202430A43012B03D1236A013B86
:1023580042EA4342636A23B103F47873A16A0B43E8
:102368001A4323683A49D86801400A43DA609A68F0
:1023780012F0040F9A681CD112071AD4D968354A8A
:10238800207D0A40E16A42EA80320A43DA6094F822
:102398003820012A3AD01A6922F001021A611A6912
:1023A8002046616B22F070420A431A61FFF784FEEF
:1023B8002368E268012A21D01A6B22F00F021A63FF
:1023C800636D284623F0030343F00103636502B0FD
:1023D80070BDFEF759F9A56584F8505040E71029FB
:1023E800ABD1607D1A04216B42EA40320A4342F0C5
:1023F8001C02A9E70125284602B070BD196BA26925
:1024080021F00F01013A0A431A63D9E71869124EFD
:10241800D4E910210640A06C0A43E16B3243024321
:1024280042EA014242F001021A61B8E7C0FFFF5FC9
:1024380000000024632D3E05C0FFFF6F002002400E
:102448000060025800630258002102400023024045
:1024580003C0F0FFFCBFFFFF1EF800FCF0B490F8CB
:1024680050200E68012A49D00346294A01201C68D9
:1024780083F85000944208D05A6D002142F020029F
:1024880083F850105A65F0BC7047224DAA6852076D
:102498000AD5A2685A6D012042F020025A6500222E
:1024A80083F85020F0BC7047A06810F00400F1D108
:1024B800C6B1DFF868C04F68DCF8082022F4404253
:1024C8003A43CCF80820A468AA682243D40713D456
:1024D8008A68DCF808401049164321400E43CCF8BE
:1024E8000860DCE70D498A6822F440428A60A068E7
:1024F800AA680243D00704D50020D0E70220F0BC28
:1025080070478C683046044A22408A60C7E700BF9B
:102518000020024000210240E0F0FFFF00230240BB
:1025280007490002074BCA6800F4E06010B44FF690
:10253800FF0422405DF8044B10430343CB6070470F
:1025480000ED00E00000FA05194BDB68C3F3022335
:1025580030B4C3F107051C1D042D28BF0425062C23
:1025680019D9033B4FF0FF349C4022EA04024FF094
:10257800FF34002804FA05F421EA040101FA03F102
:1025880041EA02010ADB09010A4BC9B2034483F894
:10259800001330BC704700221346E8E700F00F0034
:1025A8000901054BC9B20344197630BC704700BF16
:1025B80000ED00E000E100E0FCEC00E0002807DBB3
:1025C80000F01F0101234009024A8B4042F82030E5
:1025D800704700BF00E100E000280DDB430901223D
:1025E80000F01F000549203302FA00F041F82300EB
:1025F800BFF34F8FBFF36F8F704700BF00E100E05C
:102608000138B0F1807F0DD2074B0022072130B48A
:10261800F025064C5860104684F823509A601960DB
:1026280030BC70470120704710E000E000ED00E08A
:10263800704700BF08B5FFF7FBFF08BD88B110B5AC
:102648000379044603F0FF023BB100230221012273
:10265800217118462361227110BD4271FFF7D8FA23
:10266800F3E70120704700BF4379D1F800C0012B80
:1026780000F096800223BCF1040F2DE9F0411646C4
:102688004FF0010204460D46427103713ED006F038
:1026980010020368296901292ED0EE680727A96866
:1026A80007FA02F0DF6B31436D6827EA000740F64E
:1026B800FE7641EA0C014FF48040954096409140E7
:1026C80090404FF0000C3943C027D96307FA02F154
:1026D8001A68012722EA000260461A601A6822EA8C
:1026E80006022A431A601A6822EA01021A60277150
:1026F80084F805C0BDE8F0811F26986B696996408B
:10270800914020EA060001439963C6E7D6B904F070
:10271800A5F8DFF89080074604E004F09FF8C01B96
:10272800012834D823685B6B13EA080FF5D1012020
:1027380004F09AF82368AA691A640DE004F08EF888
:10274800012824D823685B6B002BF7DB012004F0F9
:102758008BF82368AA695A6406F0100240F2FF3C1D
:10276800986CFF21EF690CFA02FC01FA02F6296A5B
:1027780020EA0C009740D5F800C03843986401FA65
:1027880002F0D96C21EA06010143D96482E7236982
:10279800032243F00803104623612271BDE8F0814B
:1027A800022070470080002018B338B590F82C300C
:1027B8000D46044603F0FF02B3B10223214684F814
:1027C8002C3051F8040B04F0A7F92946D4E900028B
:1027D80004F0DEF9084A01210020136843F00043A1
:1027E800136084F82C1038BD80F82D20FEF794FB78
:1027F800E3E70120704700BF0040005270B590F831
:102808002C300546022BD8B204D000F0FB04012C72
:1028180001D0012070BD02230E46286885F82C30AF
:1028280004F002FA3368022B03D0002085F82C400C
:1028380070BD0523002085F82C3070BD38B590F8A0
:102848002C300446022BD8B205D094F82C30012B3A
:10285800DDB201D0012038BD0223206884F82C3075
:1028680004F0F4F9002084F82C5038BD70B5044603
:102878000D4616466A1C23682CD19A69900727D4FE
:102888009A69D106F9D59A699106FCD520221021BA
:10289800D961DA619A69900701D500229A629A692A
:1028A800D10703D49A6942F001029A615A6800215B
:1028B8001B4E2025012032405A60636C84F840107A
:1028C80043F00403636484F8415084F8421070BDF7
:1028D800002070BD9A699207FAD49A69D0061BD471
:1028E80003F0BCFF801BA84201D8002DC2D1636C45
:1028F8002021002201200B4384F84020636484F8DF
:10290800411084F8422070BD03F0A8FF801B854267
:10291800EDD3002DEBD0236899698A06F4D5B5E785
:1029280000E800FE70B504460D461646236899690E
:102938008A0649D49969CA0626D5681C38D19A6985
:102948009106FCD520221021D961DA619A69900795
:1029580001D500229A629A69D10703D49A6942F094
:1029680001029A615A680021184E20250120324040
:102978005A60636C84F8401043F00403636484F87D
:10298800415084F8421070BD03F068FF801BA842D4
:1029980001D8002DCAD1636C2021002201200B43ED
:1029A80084F84020636484F8411084F8422070BDA4
:1029B8009A699206C6D403F051FF801B8542EAD378
:1029C800002DE8D02368B8E7002070BD00E800FEBD
:1029D80000284DD0F8B590F84130044603F0FF02C6
:1029E800002B40D02421E068D4E9003284F841105B
:1029F8000128196822F0706221F0010119601A613A
:102A08009A6822F400429A60A26828D042F40442EC
:102A180002289A6002D14FF400625A605A68002175
:102A280014482027A6691043D4E9042558602A438E
:102A3800D868E56942EA0622266A20F40040354350
:102A4800D8600846DA601D601A6842F001021A6010
:102A5800616484F84170216384F84210F8BD42F43F
:102A680000429A60DAE780F84020FEF793FCB9E765
:102A780001207047008000022DE9F047984690F841
:102A88004130089E202B40F08A8090F84030044660
:102A9800012B00F0848001238946174680F84030D6
:102AA80003F0DCFE054604E003F0D8FE401B1928BD
:102AB80078D82368986910F40040F5D110222121B4
:102AC800676284F8411084F842206064A4F82A8080
:102AD800628D606392B2FF2A72D8618DC9F30907CB
:102AE8005A68DFF838C189B24A4802EA0C025FFA2C
:102AF80081FC21853A4342EA0C4210435860DFF8D2
:102B080024814FF0FF0ADFF82091638D2A46314671
:102B180020469BB2002B30D0FFF7A8FE002875D1C5
:102B2800606A216810F8012B238D8A62628D013B4F
:102B38006062013A9BB292B223856285628D92B23D
:102B4800002BE2D1002AE0D0701C45D18B691A060F
:102B5800FCD5638D9BB2FF2B4AD94B682A46A4F853
:102B680028A0204603EA08033B4343EA09034B60D5
:102B78003146638D9BB2002BCED1FFF7D3FE0028E0
:102B880044D123682021244DD9615A682A405A60CB
:102B980084F8411084F8400084F8420000E00220E4
:102BA800BDE8F087636C2021002201200B4384F8E4
:102BB8004020636484F8411084F84220BDE8F0871F
:102BC8005A68C9F309071549FF200A4014492085A6
:102BD8003A431143596092E78B691B06B9D403F055
:102BE8003DFE401B8642DDD3002EDBD02168ABE7DB
:102BF800628D4B6892B203EA0803D0B2228543EA99
:102C080000433B4343F000734B607EE70120BDE87F
:102C1800F08700BF0020008200E800FE009800FC5A
:102C28000020FF81009C00FC0000FF0190F841207B
:102C3800202A21D1034670B4D5B290F84020012A49
:102C48001CD01A682420002683F8410014683046F6
:102C580024F001041460146824F480541460146887
:102C680021431160116841F00101116083F841505E
:102C780083F8406070BC704702207047022070BC27
:102C8800704700BF90F84120202A20D1034670B435
:102C9800D6B290F84020012A1BD01A6824200025BB
:102CA80083F841001468284624F00104146014686D
:102CB80024F4706444EA01211160116841F00101B3
:102CC800116083F8416083F8405070BC704702205F
:102CD8007047022070BC7047F0B44C6A82B014B1DF
:102CE800B2F1406F30D18B69002B34D00E6A002EC0
:102CF80059D0056823438F68C869EF61002800F040
:102D0800AE8013430F690C68B2F1406F43EA0603C3
:102D1800CE6843EA0003C86A43EA0003086B43EA43
:102D2800000348690190486B43EA0003019843EAAD
:102D3800070343EA060343EA040343EA80436B615B
:102D480060D04B68AB615DE08B6A0568013B2B6125
:102D58008B69002BCAD10B6A002B44D00668234329
:102D68008D68C869F561002869D013434D6B0F69F8
:102D7800B2F1406F43EA0003C86ACC6843EA000333
:102D8800086B43EA0003486943EA050343EA07037B
:102D980043EA040343EA8043736133D04B68B36169
:102DA80002B0F0BC7047CD69002D6CD02343066893
:102DB800CC6AB2F1406F43EA02000F6B4B6B40EAFA
:102DC8000500CD6840EA04000C6840EA070040EAC4
:102DD80003004B6940EA050040EA040040EA8340EA
:102DE8007061DBD10EE0CB697BB95CB1CB6A00685E
:102DF8002343D1E90C5413434A692B43234343EA41
:102E08008243436102B0F0BC70472343CC6A0D6B28
:102E1800B2F1406F43EA0203006843EA04034C6BD3
:102E280043EA0503CD6843EA04034C6943EA050312
:102E380043EA84434361E5D04B688361E2E7D1E923
:102E48000B0513434C6B03432B43D1E90402234383
:102E5800034343EA8243736102B0F0BC70471343F3
:102E68004F6B0C6933434A69D1E90B0C034308687B
:102E780043EA0C033B432343034343EA82436B6126
:102E880002B0F0BC70471C43CE6A006844EA0203F3
:102E98000C684A693343D1E90C753B432B43234300
:102EA80043EA8243436102B0F0BC7047F8B5044678
:102EB80003F0D4FC002C55D094F84030012B53D0AB
:102EC8000123064684F8403094F8413003F0FF02AD
:102ED800002B35D0A76C2368A1681A68013922F441
:102EE800706242EA01221A6001E07A1C32D19D68C0
:102EF80015F02005F9D1D4E90716E26828461F68BD
:102F08000A43616832431D4E42EA01623E406169EC
:102F1800A76932431A4E1A6041EA07025F682169BD
:102F28003E4042EA0142012132435A601A680A438C
:102F38001A60656484F84110002384F84030F8BDB5
:102F4800204684F84020FDF795FE41F288331F465D
:102F5800A364C0E703F082FC801BB84206D82FB1F7
:102F68002368C4E70120F8BD0220F8BD042301202E
:102F780084F84130636C03436364DDE72FFFFF008F
:102F8800FEF8E0FFC8B110B590F840300446012BB8
:102F980011D00268012380F84030136823F0010340
:102FA8001360FDF7F3FE00236364184684F841308C
:102FB80084F8403010BD022010BD0120704700BFCA
:102FC8002DE9F04104460D46904603F047FC94F87D
:102FD8004030012B3BD0012384F8403094F8413035
:102FE800012BDEB206D002260023304684F840309A
:102FF800BDE8F081002202230746626484F841306C
:10300800B8F1FF3F23680ED19A6812F02002FBD175
:1030180029462046FFF760FE6B6AE3B101230026CC
:1030280084F84130E0E79A6812F020021ED003F0DD
:1030380015FCC01B804502D3B8F1000FE0D1042372
:1030480084F84130636C43F001036364CCE70226E3
:103058003046BDE8F081226893689B07FCD50221C1
:1030680001230026D16084F84130BDE72946204677
:10307800FFF732FE6B6A43B1D0E703F0EFFBC01BEA
:103088008045DCD3B8F1000FD9D02268936899073E
:10309800F3D5E4E72DE9F84304468946154603F0DD
:1030A800DDFB94F840302768012B67D0012384F8B2
:1030B800403094F84130012B5FFA83F807D04FF085
:1030C80002080023404684F84030BDE8F883002316
:1030D8006364B9F1000F56D01223064684F84130D4
:1030E8003B690133E3623B69C4F824900133A3626E
:1030F8007B6923F040637B61E36A002B31D0691C54
:103108003B4611D19A685207FCD5636A1B7887F849
:103118002030E26A636A013A0133E262E26A63627A
:10312800F2B1691C2368EDD09B685807EDD403F011
:1031380095FB801B854201D3002DF2D1042384F82E
:103148004130636C43F00103636413E0BB689B0781
:103158000CD403F083FB801B8542EFD3002DEDD008
:103168002768691CF2D1BB689A07FCD502234FF087
:103178000008FB60012384F84130A2E74FF0020801
:103188004046BDE8F883636C43F00803636498E73E
:103198002DE9F84304461546894603F05FFB276886
:1031A800BA6994F84030012B6CD0012384F8403080
:1031B80094F84130012B5FFA83F807D04FF00208EA
:1031C8000023404684F84030BDE8F8830023636458
:1031D800B9F1000F5BD02223064684F841303B69E1
:1031E8000133A3633B69C4F83090013363637B699F
:1031F80023F0406343F080637B61BA61A36B002BCB
:1032080033D0681C3B4612D19A6812F0060FFBD0E7
:1032180097F82020236B1A70A26B236B013A0133B5
:10322800A263A26B2363FAB1681C2368ECD09B6885
:1032380013F0060FECD103F011FB801B854201D37C
:10324800002DF1D1042384F84130636C43F001036D
:10325800636413E0BB689B070CD403F0FFFA801B80
:103268008542EFD3002DEDD02768691CF2D1BB68E9
:103278009A07FCD502234FF00008FB60012384F86D
:1032880041309DE74FF002084046BDE8F883636C83
:1032980043F00803636493E72DE9F84304461D46A9
:1032A8000F46164603F0DAFA94F84030012B4FD057
:1032B800012384F8403094F84130012B5FFA83F8F9
:1032C80007D04FF002080023404684F84030BDE89C
:1032D800F883002242238146626484F84130681CE6
:1032E800236829D19A689106FCD4326839467068F7
:1032F8009A62B2685862DA621A68306922F4400247
:10330800D6F80CC042EA00064FF00062204646F4A8
:1033180080061E60C7F828C0FFF7DEFC681C22681C
:103328001BD193681907FCD5082101234FF0000829
:10333800D16084F84130C6E79A689206D5D503F083
:103348008DFAA0EB0900854212D3002DC7D10FE0FA
:103358004FF002084046BDE8F88393681B07E3D4A2
:1033680003F07CFAA0EB0900854201D3002DD5D1EA
:10337800042384F84130636C43F001036364A2E7DB
:103388002DE9F84304460F46904603F067FA94F88F
:103398004030012B42D0012384F8403094F841306A
:1033A800012BDEB206D002260023304684F84030D6
:1033B800BDE8F883002282230546D4F84890626469
:1033C80084F84130B9F1FF3F226814D19368990617
:1033D800FCD41368D8F8041023F00803082943EA3A
:1033E800010313601ED039464FF040622046002684
:1033F800FFF772FCD8E793689B06EAD503F02EFA2C
:10340800401B814502D3B9F1000FDBD1042384F8B6
:103418004130636C43F001036364C5E7022630461C
:10342800BDE8F883D8F8001010231163D36013683F
:1034380043F480131360D6E7704700BF08B5006CEB
:1034480000238363C36290F84130082B0BD10368D3
:103458000222DA601A6842F400321A601A6842F0EE
:1034680002021A6008BD012380F84130FFF7E4FF2B
:1034780008BD00BF704700BF704700BF704700BF5E
:10348800704700BF704700BF704700BF704700BF5C
:1034980038B5036804469A68196855070ED5480375
:1034A8000CD594F84120122A75D094F84120222A8C
:1034B80000F0A1802046FFF7E5FF38BD950726D527
:1034C800880324D50222DA601A6822F4E0221A60FE
:1034D80094F84120122A7AD094F84120222A00F048
:1034E800A98094F84120022A00F0D08094F8412065
:1034F800082AE2D15A690121204622F040625A6125
:1035080084F84110636C3BBBFFF7B4FF38BD150767
:1035180025D4D50735D5C80333D50125DD601A680C
:1035280022F470221A60626C42F0020262641A6825
:10353800520779D51A68E06B22F0040257491A60DD
:10354800816503F0E5F80028B7D0636C204643F0A6
:103558000403636484F84150FFF76EFF38BD080325
:10356800D7D50822DA601A68520206D51A680121EE
:1035780022F410221A6084F841102046FFF784FFD5
:1035880038BDD00699D5CA0297D510222046DA60F0
:10359800FFF77CFF38BD9A6850078BD518460EE0B8
:1035A800626A127883F82020E16A20680139626A29
:1035B800E1620132816862624D077FF57BAFE26AA2
:1035C800002AEDD1036823F48023036072E71A68A8
:1035D800510709D51A68E16B22F0040209681A60DC
:1035E800CB6823F00103CB600123204684F84130E7
:1035F800FFF746FF38BD9A6852077FF55BAF18465C
:103608000EE093F82010226B1170A16B206801392D
:10361800226BA16301328168226349077FF54AAFB3
:10362800A26B002AEDD1CDE7204684F84150FFF780
:1036380003FF38BD1A6852071DD49A6812F47C5FDC
:103648000FD111E093F82010226B1170A16B206844
:103658000139226BA16301328168226311F47C5F16
:1036680002D0A26B002AEDD10123204684F8413014
:10367800FFF704FF38BD1A68E16B22F004020968FD
:103688001A60CB6823F00103CB60EDE701232046E5
:1036980084F84130FFF7F0FE38BD00BF453400081C
:1036A800B24B016899422DE9F04105461FD02033FD
:1036B80099421CD003F57873994259D02033994226
:1036C80056D003F57873994200F02081203399424F
:1036D80000F01C8195F89130A54E03F0FF026BB9FC
:1036E800284685F89020FEF737F8296806E0A14EAD
:1036F80095F8913003F0FF02002BF1D09E4B9F48C4
:103708001B680A68A0FB030322F480321B0B0A60C3
:103718009B0023B30C68013B14F48034F9D1EB68A7
:103728000222012B85F8912000F01A81934219BFDB
:10373800174603202320222715BF4FF0010C4FF016
:10374800210C00222022AB68013B042B00F2578198
:10375800DFE813F0D1001100D8001000D400D5F82C
:103768009430012043F04003C5F89430BDE8F0815F
:10377800834EBDE73A464FF400682B6A3260002B4F
:1037880044D07A4B994200F029817E48081AB0FA51
:1037980080F04009002840F021817B4B994200F0DD
:1037A80017812033994200F01381784B994200F039
:1037B80009812033994200F00581754B994200F048
:1037C8001381744B994200F01581AB69B3F5002F52
:1037D80000F0EE80AB6A00EB80002A6AB3F1806FDC
:1037E8004FEA40030CBF0221012102FB01F2120241
:1037F800B3FBF2F3684AA2FB0312D20802EB820180
:10380800A3EB4103092B08BF01326A626B6833F0EE
:1038180002032B6D40F09F80012B14BF4FF40074FE
:10382800002403F033F86B68B0F5005FD5E9111296
:1038380043EA01037FD31A43EB6CE96A1A43A86988
:103848002B680A436969AF6A0A431968D5F824C026
:10385800024352483A430840296918600A431968E4
:103868004FF220004E4F0A4342EA0C5242EA080245
:1038780022434C4C1A605968EA690C40296B114381
:103888006A6B5C6011435C686A6E2143EC6D22438D
:103898002C6E5960224399686C6D0F40A96D013CEC
:1038A80001399F6022439C6842EA0122A96E2243A3
:1038B800EC6E9A6041EA0402D9686C6F0840296F7F
:1038C80042EA0442294C0139D860D868A34242EA46
:1038D800012242EA0002DA601AD02D4A934217D038
:1038E80000230122C5F89430184685F8903085F8F1
:1038F8009120BDE8F0814FF480683EE702464FF41E
:1039080000683AE762464FF4006836E7264EEFE66D
:10391800736C23F00103736495F83830012BDFD101
:10392800D5E90F23013A43EA02137364736C43F039
:1039380001037364D4E7E96C1A4368690A43E96AC6
:103948002B680A43AF691968024318483A4308408C
:10395800D5E909C181E7012B08BF4FF4007460E77E
:10396800132012274FF0110C1022ECE604580140E6
:103978000054005800580140000000241BECCB956F
:10398800005C014024580140045C0140046001408F
:103998000454005824540058CDCCCCCC10C005F0A9
:1039A8000080F8FFF01FFFFF0060014010C005F81D
:1039B80000EB8000296A6A6D430002FB01F2B3FB49
:1039C800F2F317E74FF4007001F0BEFD2968F4E642
:1039D8004FF4007001F0B8FD2968E6E64FF48070F6
:1039E80001F0B2FD2968D8E64FF4806001F0ACFD23
:1039F8002968E6E64FF4006001F0A6FDE5E64FF021
:103A08000008BAE60229F8B5044635D9C81E0128C7
:103A180030D8656800204FF40036236735F002057A
:103A28004FF4802560640CBF0127074604294FF630
:103A3800FF7127650CBF01270D27E064E065A765C6
:103A4800A0666167C4E91865032A13D8DFE802F0A5
:103A5800484F553723684B4A934205D002F1C0526C
:103A6800A2F58232934205D16368012B02D1636CBF
:103A7800002B30D00120F8BD45680020236735F0C1
:103A880002056064E0644FF4803508BF0646A0660E
:103A98004FF6FF7018BF0126E565606713F0010057
:103AA8002665E7D14D1E012D2ED84FF40035C4E907
:103AB8001850032ADED8DFE802F05A4B3B315B018D
:103AC800E02180226365A164E26602F0DFFE94F8DB
:103AD8003830012BBED02046BDE8F840FFF7E0BDE6
:103AE8001B01802140226365A164E266EDE7802224
:103AF8005B01A2646365E266E7E75B01C02180229F
:103B08006365A164E266E0E74FF48025C4E918051F
:103B1800032AAFD8DFE802F02B1C0C025B08E02078
:103B280080219A01A0645B01E166C4E91523CCE712
:103B38005B08C025802002294FEA8312A5644FEA5A
:103B48004313E066C4E91523BFD10823A366BCE785
:103B58005B08802202294FEA8310A2644FEA4313CC
:103B6800E266C4E91503B0D11023A366ADE75B088C
:103B7800802040215A01A0641B01E166C4E9152395
:103B8800A3E700BF04580140002800F0EE81F8B513
:103B980003680446D80730D5B3490A69896A02F030
:103BA8003802102A00F00681182A00F0FE806368A7
:103BB800B3F5803F00F02681002B00F06481B3F557
:103BC800A02FA94B1A6800F0408222F480321A60B4
:103BD8001A6822F480221A6002F040FEA24E41F2D6
:103BE8008837054605E002F039FE401BB84200F26E
:103BF800488133689A03F6D52368980700F18980CD
:103C0800D90630D5984A1369926A03F03803082B0D
:103C180000F0E080182B00F0D880E369002B00F05A
:103C28007181914B1A681E4642F080021A6002F0B8
:103C380015FE054605E002F011FE401B022800F2C1
:103C480020813368DB05F6D502F020FE41F203033C
:103C5800984200F21C827368226A23F0F84343EA10
:103C68008263736023681D0717D56369002B00F012
:103C780023817D4B5A6F1E4642F001025A6702F0BB
:103C8800EDFD054605E002F0E9FD401B022800F2C3
:103C9800F880736F9807F6D523689A0617D5A36935
:103CA800002B00F01C81704B1A681E4642F48052AB
:103CB8001A6002F0D3FD054605E002F0CFFD401B77
:103CC800022800F2DE8033689F04F6D5236859077E
:103CD80000F19E80636AD3B1634A116901F038012B
:103CE800182970D0022B1368154623F080731360CF
:103CF80000F0458102F0B2FD044605E002F0AEFD99
:103D0800001B022800F2BD802B689B01F6D400201E
:103D1800F8BD554A1369926A13F038032AD1524BF9
:103D2800E1681B685A0701D500294CD04E4A136830
:103D3800164623F019030B43136002F08FFD054666
:103D480005E002F08BFD401B022800F29A803368E0
:103D58005B07F6D502F09AFD41F203032269984207
:103D6800736800F2FB8023F47C3343EA0233736008
:103D7800236845E7182B00F0ED80E268002A00F080
:103D8800D58039490B680E4623F0190313430B609D
:103D980002F064FD054604E002F060FD401B0228C5
:103DA8006FD833685F07F7D5D4E701F0030102291C
:103DB8007FF4FDAE2C4A126891037FF51EAF62684E
:103DC800002A7FF41AAF0120F8BD02F00302012A8D
:103DD8007FF423AF244B1B68DA0502D5E369802BF7
:103DE800F1D102F053FD41F203031F4A9842216AC0
:103DF80000F2BD80536823F0F84343EA81635360BF
:103E0800236830E7184A136843F480331360E3E605
:103E1800164B1A681E4642F480721A6002F01EFDA4
:103E2800054604E002F01AFD401B642829D83368CF
:103E3800DA05F7D5A368012B00F03281002B00F0DA
:103E48000C81052B084B1A6F00F0308122F001021B
:103E58001A671A6F22F004021A6702F0FFFC024E7A
:103E680041F28837054608E00044025800480258E5
:103E780002F0F4FC401BB84203D8336F9B07F7D518
:103E880028E70320F8BD8D4B41F288371A681E4693
:103E980022F480321A601A6822F480221A6002F032
:103EA800DDFC054604E002F0D9FC401BB842E8D826
:103EB80033689B03F7D49FE6804B5A6F1E4622F067
:103EC80001025A6702F0CAFC054604E002F0C6FC8B
:103ED800401B0228D5D8736F9907F7D4DCE6774BD7
:103EE8001A681E4622F480521A6002F0B7FC054692
:103EF80004E002F0B3FC401B0228C2D833689804DF
:103F0800F7D4E3E66D4B1A681E4622F080021A6069
:103F180002F0A4FC054604E002F0A0FC401B0228C5
:103F2800AFD83368DF05F7D423689CE6634B1A687B
:103F38001E4622F001021A6002F090FC054604E0D9
:103F480002F08CFC401B02289BD833685807F7D432
:103F5800236855E691077FF410AFE0E623F0FE43AF
:103F680043EA0263736023684AE601207047D36816
:103F780023F07C5343EA0163D360236873E602F0BD
:103F88006DFC064605E002F069FC801B02283FF63E
:103F980078AF2B689901F6D4AA6A494BA06A1340F6
:103FA800E26A48490343454E43EA0213AB62276B72
:103FB800D4E90D32013F501E013BE26BC7F30807FD
:103FC8005B020004013A9BB200F4FE0012060343B0
:103FD80002F0FE423B4313432B63EB6A23F00103D9
:103FE800EB626A6BA36C114041EAC3016963EB6A37
:103FF800226C23F00C031343EB62EB6A626C23F030
:1040080002031343EB62EB6A43F48033EB62EB6A1F
:1040180043F40033EB62EB6A43F48023EB62EB6A10
:1040280043F00103EB622B6843F080732B6002F0CE
:1040380015FC044605E002F011FC001B02283FF6BF
:1040480020AF33689A01F6D561E642F480221A60FF
:104058001A6842F480321A60BEE5184B41F288377C
:104068001A6F1E4622F001021A671A6F22F0040224
:104078001A6702F0F3FB054605E002F0EFFB401B70
:10408800B8423FF6FEAE336F9807F6D422E6F368DF
:10409800226A23F07C5343EA0263F3602368E2E573
:1040A800064A136F43F001031367D6E642F0040291
:1040B8001A671A6F42F001021A67CEE600440258E6
:1040C8000CFCFFFF0700FFFF474A136903F03803A2
:1040D800102B04D0182B0DD01BB14448704744480E
:1040E8007047136899064AD513684248C3F3C10359
:1040F800D8407047936A30B4946AD16A14F47C7FCC
:10410800C4F30510556B38D0C5F3CC0501F0010197
:1041180003F0030301FB05F1012B07EE901AB8EE3B
:10412800E77A02D0022B2CD093B307EE900A9FEDCA
:10413800325AF8EEE77A136BC5EE276ADFED2F5A8D
:10414800C3F3080307EE903AB7EE006AF8EEE77A91
:10415800E7EE257A77EE867A66EEA76A224B1B6B26
:10416800C3F34623013307EE903AB8EEE77AC6EE7A
:10417800877AFCEEE77A17EE900A30BC70471D4844
:10418800704707EE900A9FED1E5AF8EEE77AD2E7DD
:1041980013689B0620D5136807EE900A1549B7EEF9
:1041A800005AC3F3C100F8EEE77A136BC140DFEDA4
:1041B800134AC3F3080306EE101A06EE903AB8EE57
:1041C800C66AF8EEE66AC6EE275AE7EE246A76EE85
:1041D800856A66EEA56AC1E707EE900A9FED095A5F
:1041E800F8EEE77AA7E700BF0044025800093D004F
:1041F80040787D010090D0030024744A0000003903
:1042080020BCBE4B0024744C002800F00381874A70
:10421800136803F00F038B422DE9F04104460D4665
:104228000CD2136823F00F030B431360136803F0D9
:104238000F038B4202D00120BDE8F08123685F079D
:104248000BD57B4920698A6902F07002904204D933
:104258008A6922F0700202438A611E070BD57449ED
:104268006069CA6902F07002904204D9CA6922F0F2
:1042780070020243CA61D8060BD56D49A069CA69A4
:1042880002F4E062904204D9CA6922F4E06202436F
:10429800CA6199060BD56649E0690A6A02F070029C
:1042A800904204D90A6A22F0700202430A629A070D
:1042B80040F1A2805E48E168826902F00F029142F3
:1042C80004D9826922F00F020A438261D80731D5E6
:1042D800574AA168936923F470630B43936161683B
:1042E8001368022900F09880032900F08F800129C3
:1042F80000F0988058079ED54D4A41F288381369D6
:10430800174623F007030B43136102F0A7FA06468A
:1043180005E002F0A3FA801B404500F281803B696A
:10432800626803F03803B3EBC20FF2D12368990730
:1043380006D5E1683E48826902F00F028A425FD8DA
:104348003A490A6802F00F02AA420AD90A6822F01A
:104358000F022A430A600A6802F00F02AA427FF499
:104368006AAF5A070BD5324920698A6902F0700290
:10437800904204D28A6922F0700202438A611F07C0
:104388000BD52B496069CA6902F07002904204D2C9
:10439800CA6922F070020243CA61DE060BD52449BD
:1043A800A069CA6902F4E062904204D2CA6922F4A0
:1043B800E0620243CA619D060BD51D4AE169136A92
:1043C80003F07003994204D2136A23F070030B437D
:1043D8001362FFF779FE164A164C034692690F20BE
:1043E8001549C2F30322A25C02F01F02D340BDE8C4
:1043F800F0410B6002F0D2B9DA073FF569AF9FE7E9
:10440800826922F00F021143816199E79F013FF50C
:1044180073AF10E7012070479B033FF56DAF0AE7C4
:10442800032009E7DE053FF567AF04E700200052E7
:1044380000440258EC6C00080000002408B501F0A4
:104448004FF9064B06499B69064A03F00F03CB5CFC
:1044580003F01F03D840106008BD00BF0044025895
:10446800EC6C0008040000243B4AF8B5936A03F09A
:104478000303032B69D0136806460F46144623F03E
:104488008063136002F0EAF9054604E002F0E6F9F9
:10449800431B022B57D823681A01F7D4A36A326842
:1044A80023F47C332D4943EA0233A3627568D6E9C5
:1044B8000232013D501E013B3269C5F308055B021B
:1044C8000004013A9BB200F4FE001206034302F016
:1044D800FE422B431343A363E36A726923F0C003CC
:1044E8001343E362E36AB26923F020031343E362F0
:1044F800E36A23F01003E362E26BF369114041EAD7
:10450800C301E163E36A43F01003E362E36AF7B1CE
:10451800012F0CBF43F4801343F40013E3620E4BE6
:104528001A681D4642F080621A6002F097F9044644
:1045380004E002F093F9001B022804D82B681B0141
:10454800F7D50020F8BD0320F8BD0120F8BD43F4DD
:104558000023E362E3E700BF004402580700FFFFBF
:104568003B4AF8B5936A03F00303032B69D0136839
:1045780006460F46144623F08053136002F06EF986
:10458800054604E002F06AF9431B022B57D823685A
:104598009A00F7D4A36A326823F07C732D4943EA62
:1045A8000253A3627568D6E90232013D501E013BF1
:1045B8003269C5F308055B020004013A9BB200F4B6
:1045C800FE001206034302F0FE422B43134323640A
:1045D800E36A726923F440631343E362E36AB269EE
:1045E80023F400731343E362E36A23F48073E36202
:1045F800626CF369114041EAC3016164E36A43F400
:104608008073E362E36AF7B1012F0CBF43F4000340
:1046180043F08073E3620E4B1A681D4642F08052E5
:104628001A6002F01BF9044604E002F017F9001BB7
:10463800022804D82B689B00F7D50020F8BD03207A
:10464800F8BD0120F8BD43F48003E362E3E700BF4F
:10465800004402580700FFFF2DE9F84303680446A9
:1046680013F000661CD0426EB2F5001F00F0B9844A
:1046780023D8002A00F0CE83B2F5801F20D1022172
:104688000430FFF7F1FE0646002E40F06E84626E9D
:104698002368AB480026016D21F440110A430265E6
:1046A800DD0511D5626D042A00F20785DFE812F0F6
:1046B800690470048004CA02CA02B2F5401FE8D037
:1046C800DD054FF00106EDD4354698051BD5A26DE2
:1046D800802A00F0758400F2EC80002A00F08883BC
:1046E800402A40F0ED800021201DFFF7BDFE236821
:1046F8000546002D40F072839149A06D0A6D22F4A1
:10470800E07202430A6559051FD5D4F8A420B2F512
:10471800800F00F0448400F2D680002A00F08083E5
:10472800B2F5001F40F0D7800021201DFFF79CFE46
:1047380023680546002D40F055838149D4F8A4002C
:104748008A6D22F4600202438A651A051FD5D4F8DF
:10475800A820B2F1007F00F00B8400F2BF80002A8D
:1047680000F04C83B2F1807F40F0C0800021201D12
:10477800FFF77AFE23680546002D40F03183704923
:10478800D4F8A8008A6D22F0E06202438A659F018E
:1047980018D5A26C202A00F0B68300F2AA803AB19C
:1047A800102A40F0A9806649CA6A42F40032CA62F7
:1047B800002D40F043836249A06CCA6C22F030029D
:1047C8000243CA64D8041DD5E26DB2F5005F00F05B
:1047D800008400F29480002A00F01683B2F5805F0E
:1047E80040F095800021201DFFF73EFE2368054616
:1047F800002D40F0FB825249E06D0A6D22F4E04240
:1048080002430A6599041AD5226EB2F5003F00F0FA
:1048180068837FD84AB1B2F5803F40F08380012198
:10482800201DFFF721FE23680546002D40F019835F
:104838004349206E0A6D22F4E02202430A655A04B5
:104848001BD5D4F8AC20B2F1005F00F065836CD8BA
:1048580042B1B2F1805F70D10121201DFFF704FE43
:1048680023680546002D40F0FE823549D4F8AC0097
:104878008A6D22F0E04202438A651F040DD5E26E7C
:10488800B2F1805F00F03783B2F1005F00F0E6819B
:10489800002A00F0E98101263546D8015CD5626C12
:1048A800032A00F21084DFE812F0530041034D00A0
:1048B8005300C02A3FF41DAFB2F5807F3FF419AF13
:1048C800012635461FE7B2F5C00F3FF433AFB2F506
:1048D800000F3FF42FAF0126354636E7B2F1407F8F
:1048E8003FF44AAFB2F1806F3FF446AF0126354638
:1048F8004DE7302A3FF45CAF0126354662E7B2F552
:10490800405F3FF475AFB2F5804F3FF471AF0126B9
:10491800354677E722F48031B1F5802F85D0B2F59E
:10492800403F82D00126354689E722F08051B1F117
:10493800804F97D0B2F1405F94D0012635469CE76E
:10494800004402580221201DFFF78EFD236805460A
:10495800002D00F06B822E46590200F1EB81DF0733
:1049680039D5A26F282A00F26A81DFE812F03000F8
:1049780068016801680168016801680168015703F6
:104988006801680168016801680168016801290017
:104998006801680168016801680168016801300000
:1049A80068016801680168016801680168013000F0
:1049B80068016801680168016801680168013000E0
:1049C800012104F12400FFF7CBFD23680546002DE3
:1049D80000F055822E46980716D5626F052A00F218
:1049E8006F83DFE812F00D00110306000D000D00C3
:1049F8000D00012104F12400FFF7B2FD23680546EC
:104A0800002D00F026822E46590717D5D4F890209D
:104A1800052A00F24F83DFE812F00D00ED020600D0
:104A28000D000D000D00012104F12400FFF798FD91
:104A380023680546002D00F003822E469A061DD5F0
:104A4800D4F88C20B2F1005F00F0418200F2258199
:104A58004AB1B2F1805F40F02A810021201DFFF7A2
:104A680003FD23680546002D40F01182B649D4F8AD
:104A78008C004A6D22F0E04202434A655F061DD56C
:104A8800D4F89820B2F5006F00F00D8200F2128180
:104A98004AB1B2F5806F40F017810021201DFFF761
:104AA800E3FC23680546002D40F0E381A649D4F8CD
:104AB80098008A6D22F4E05202438A6518061DD5D3
:104AC800D4F89C20B2F5804F00F0F78100F2FF8007
:104AD8004AB1B2F5005F40F004810021201DFFF7C4
:104AE800C3FC23680546002D40F0C1819649D4F8DF
:104AF8009C008A6D22F4604202438A6519070BD52F
:104B0800D4F88010B1F5805F00F024828E48426DA1
:104B180022F440520A434265DA060BD5D4F89410C1
:104B2800B1F5807F00F00B828748826D22F44072D5
:104B38000A4382651F030ED5D4F8A010B1F5803F53
:104B480000F0E580B1F5003F00F0E880002900F0B2
:104B58007E820126354658030FD5D4F88420B2F555
:104B6800001F00F0C180B2F5401F00F0C480B2F50C
:104B7800801F00F0758201263546D90317D5E26CEF
:104B8800002A00F08681B2F5803F40F0248102219E
:104B9800201DFFF769FC05462368002D40F0818140
:104BA8006949E06CCA6C22F480320243CA649A00F4
:104BB80000F106819F0335D4301E18BF0120DE02A4
:104BC80006D56149256F0A6D22F000422A430A651D
:104BD800DD0007D55C49D4F8B4500A6922F4804254
:104BE8002A430A61990206D55749A56E0A6D22F033
:104BF80080722A430A655A0009D5534A116921F47B
:104C0800004111611169D4F8B85029431161002B92
:104C180006DA4D4A216DD36C23F040530B43D3641D
:104C2800BDE8F883E26FB2F5807F00F0078226D9ED
:104C380022F48071B1F5007F23D00120BFE701265F
:104C48003546C8E63546002D40F0CE803E49606DB9
:104C58000A6D22F0070202430A6536E50121201D8C
:104C6800FFF702FC23680546002D40F0FE80364918
:104C7800E06E0A6D22F0405202430A650DE6002AF2
:104C8800DBD1002DD9D1304D301E696D18BF012000
:104C980021F440710A436A6591E722F08051B1F12D
:104CA800804F3FF4E0AEB2F1405F3FF4DCAE012646
:104CB8003546E3E622F48061B1F5805F3FF4F3AE58
:104CC800B2F5406F3FF4EFAE01263546F6E622F422
:104CD8000051B1F5004F3FF406AFB2F5C04F3FF4B5
:104CE80002AF0126354609E7012104F12400FFF748
:104CF80037FC23680546002D40F0BF801249D4F8E0
:104D080084004A6D22F4401202434A6535E70221C5
:104D180004F12400FFF724FC23680546002D40F029
:104D2800AA800949D4F8A0008A6D22F440320243CF
:104D38008A6510E7054B1A68984642F480721A6033
:104D480001F08CFD074609E000440258004802586B
:104D580001F084FDC01B642800F26A81D8F8003095
:104D6800DA05F5D5002D40F0A281B34AD4F8B03069
:104D7800116F594011F4407F0BD0116F106F21F45F
:104D8800407140F480301067106F20F48030106755
:104D98001167B3F5807F00F06C8103F44072B2F5BF
:104DA800407F00F07A81A4490A6922F47C520A61A2
:104DB800A14AC3F30B03116F0B4313672368CEE5B6
:104DC800022104F12400FFF7CBFB236800283FF4FD
:104DD800F1AE0126EEE601263546E8E62E4692E4D7
:104DE8002E46D4E42E46B0E42E466EE42E4609E55F
:104DF8009149CA6A42F40032CA627AE48E49CA6AA0
:104E080042F40032CA62B7E48B49CA6A42F40032FB
:104E1800CA62EDE48848C16A41F40031C16238E4ED
:104E28008549CA6A42F40032CA6283E48249606CE6
:104E3800CA6C22F003020243CA648DE52E46C1E41F
:104E48007D49D4F890008A6D22F0070202438A65F2
:104E5800F4E57949606F4A6D22F0070202434A651A
:104E6800D2E52E46EBE42E4607E52E4615E52E46FE
:104E780044E62E4622E62E466DE62E467DE66E492F
:104E8800A06F4A6D22F0380202434A65A3E52E4618
:104E9800F4E56949CA6A42F40032CA62002D3FF457
:104EA8007FAE2E4683E6022104F12400FFF758FB6B
:104EB80005462368002DDCD1F8E5022104F1240021
:104EC800FFF74EFB05462368002DD0D10EE60221E0
:104ED80004F12400FFF744FB05462368002DD6D1D2
:104EE800C4E5012104F12400FFF73AFB05462368D5
:104EF800002DB6D19CE45049CA6A42F40032CA6215
:104F0800002DB2D1B3E60221201DFFF7ADFA054608
:104F18002368002D92D14EE4012104F12400FFF70B
:104F28001FFB05462368002D9DD19EE44249CA6AAD
:104F380042F40032CA62002D7FF40DAD76E70221FB
:104F480004F12400FFF70CFB236800283FF4F2ADBE
:104F58000126EFE5022104F12400FFF701FB236895
:104F680000283FF4D9AD0126D6E52368FFF798BBA2
:104F7800002104F12400FFF7F3FA23680546FFF740
:104F8800FBBB2D493546CA6A42F40032CA625AE66A
:104F98000021201DFFF768FA2368054653E6002123
:104FA80004F12400FFF7DCFA23680546FFF7C2BBCB
:104FB800002104F12400FFF7D3FA2368054642E6EE
:104FC800002104F12400FFF7CBFA23680546FFF718
:104FD80090BB002104F12400FFF7C2FA23680546BC
:104FE80006E402212430FFF7BBFA0646002E3FF400
:104FF8004EABBAE70121201DFFF736FA05462368B4
:10500800002D7FF41AAD1BE70121201DFFF72CFAB4
:1050180005462368002D7FF4F6AC1AE70121201D10
:10502800FFF722FA05462368002D7FF4D3AC26E764
:1050380003262368354692E4004402582348C16A8F
:1050480041F40031C162002D7FF4F7AD1BE6201D4D
:10505800FFF70AFA05462368002D7FF40CAF60E6D7
:105068001A49CA6A42F40032CA62002D7FF405AFB9
:1050780044E601F0F3FBDFF8548041F28839074633
:1050880004E001F0EBFBC01B4845D1D8D8F87030DC
:105098009B07F6D5D4F8B0307FE60C480C4A016976
:1050A80002EA131221F47C510A43026180E6236864
:1050B8002E4654E401263546C0E40126FFF704BB1A
:1050C80001263546A0E40126354645E40044025849
:1050D800CFFFFF00584B70B4996A9D6ADC6A15F4DB
:1050E8007C3FC5F30532DE6B5CD0C6F3CC0604F01A
:1050F800100401F0030104FB06F4012907EE904AAD
:10510800B8EEE77A03D0022975D000294FD007EE10
:10511800902ADFED4A6AF8EEE77A9B6B86EEA76A7B
:105128009FED475AC3F3080306EE903AF7EE005A8C
:10513800F8EEE66AE7EE056A76EEA56A66EE266A96
:105148003D4AB7EE006A936BC3F3462307EE103A65
:10515800B8EEC77A70BC37EE067AC6EE877AFCEEF0
:10516800E77AC0ED007A936BC3F3064307EE103A73
:10517800B8EEC77A37EE067AC6EE877AFCEEE77A9B
:10518800C0ED017A936BC3F3066307EE903AF8EE2D
:10519800E77A77EE867A86EEA77ABCEEC77A80ED54
:1051A800027A704770BCC0E90022826070471968B3
:1051B800890627D5196807EE902A224AB7EE005AC1
:1051C800C1F3C101F8EEE77A9B6BCA40DFED1C4AD8
:1051D800C3F3080306EE102A06EE903AB8EEC66A44
:1051E800F8EEE66AC6EE275AE7EE246A76EE856A96
:1051F80066EEA56AA4E707EE902ADFED136AF8EEDB
:10520800E77A8AE707EE902A9FED105A9B6BB7EE74
:10521800006AF8EEE77ADFED0A5AC3F30803C5EE31
:10522800276A07EE903AF8EEE77AE7EE257A77EE06
:10523800867A66EEA76A83E7004402580024744A17
:10524800000000390090D00320BCBE4B0024744CF1
:10525800584B70B4996A9D6ADC6A15F07C7FC5F377
:1052680005525E6C5CD0C6F3CC0604F4807401F081
:10527800030104FB06F4012907EE904AB8EEE77A29
:1052880003D0022975D000294FD007EE902ADFED10
:105298004A6AF8EEE77A1B6C86EEA76A9FED475AD2
:1052A800C3F3080306EE903AF7EE005AF8EEE66A02
:1052B800E7EE056A76EEA56A66EE266A3D4AB7EE1F
:1052C800006A136CC3F3462307EE103AB8EEC77AA8
:1052D80070BC37EE067AC6EE877AFCEEE77AC0ED48
:1052E800007A136CC3F3064307EE103AB8EEC77A98
:1052F80037EE067AC6EE877AFCEEE77AC0ED017AD9
:10530800136CC3F3066307EE903AF8EEE77A77EE8C
:10531800867A86EEA77ABCEEC77A80ED027A704765
:1053280070BCC0E90022826070471968890627D5D9
:10533800196807EE902A224AB7EE005AC1F3C10154
:10534800F8EEE77A1B6CCA40DFED1C4AC3F308038A
:1053580006EE102A06EE903AB8EEC66AF8EEE66A4D
:10536800C6EE275AE7EE246A76EE856A66EEA56AE7
:10537800A4E707EE902ADFED136AF8EEE77A8AE7EA
:1053880007EE902A9FED105A1B6CB7EE006AF8EEF4
:10539800E77ADFED0A5AC3F30803C5EE276A07EE7A
:1053A800903AF8EEE77AE7EE257A77EE867A66EEB7
:1053B800A76A83E7004402580024744A00000039B1
:1053C8000090D00320BCBE4B0024744C584B70B4E2
:1053D800996A9D6ADC6A15F47C7FC5F305125E6BD9
:1053E8005CD0C6F3CC0604F0010401F0030104FB11
:1053F80006F4012907EE904AB8EEE77A03D00229AD
:1054080075D000294FD007EE902ADFED4A6AF8EEF2
:10541800E77A1B6B86EEA76A9FED475AC3F308032A
:1054280006EE903AF7EE005AF8EEE66AE7EE056AFD
:1054380076EEA56A66EE266A3D4AB7EE006A136BF9
:10544800C3F3462307EE103AB8EEC77A70BC37EEBE
:10545800067AC6EE877AFCEEE77AC0ED007A136B1F
:10546800C3F3064307EE103AB8EEC77A37EE067A6A
:10547800C6EE877AFCEEE77AC0ED017A136BC3F3C8
:10548800066307EE903AF8EEE77A77EE867A86EECC
:10549800A77ABCEEC77A80ED027A704770BCC0E983
:1054A8000022826070471968890627D5196807EEB7
:1054B800902A224AB7EE005AC1F3C101F8EEE77A02
:1054C8001B6BCA40DFED1C4AC3F3080306EE102A23
:1054D80006EE903AB8EEC66AF8EEE66AC6EE275AC5
:1054E800E7EE246A76EE856A66EEA56AA4E707EE1B
:1054F800902ADFED136AF8EEE77A8AE707EE902A3A
:105508009FED105A1B6BB7EE006AF8EEE77ADFEDF5
:105518000A5AC3F30803C5EE276A07EE903AF8EE75
:10552800E77AE7EE257A77EE867A66EEA76A83E76A
:10553800004402580024744A000000390090D00347
:1055480020BCBE4B0024744CB0F5807F00B585B0FC
:1055580048D0B0F5007F11D0B0F5806F00F08280A0
:10556800B0F5006F52D0B0F5805F2CD0B0F5002FA9
:1055780000F09680002005B05DF804FB534A136DD7
:1055880003F4E073802B59D012D9C02B26D0B3F581
:10559800807FEFD1D36C13F040535BD0B3F1805FC1
:1055A80000F08D80B3F1005F494818BF0020E2E7A2
:1055B800002B3CD0402BDDD101A8FFF78BFD0198D3
:1055C80005B05DF804FB414A136D03F4E043B3F5FD
:1055D800005F33D029D9B3F5405F58D13D4805B0B5
:1055E8005DF804FB394B1B6D03F00703042BC1D88E
:1055F80001A252F823F000BF37560008C155000831
:1056080045560008E5550008535600082F4A936D83
:1056180003F0E063B3F1007F10D01DD9B3F1407FF0
:10562800DCD0B3F1806FB5D0A4E7002B34D101A84A
:10563800FFF7CCFE029805B05DF804FB01A8FFF760
:1056480007FE019805B05DF804FB204BDB6C13F0F6
:105658004053A3D120488EE7002BE8D0B3F1807FD8
:10566800AAD087E7194A936D03F46003B3F5800F56
:10567800E4D005D8002BDAD0B3F5001F9CD079E729
:10568800B3F5C00FAAD0B3F5000F83D072E7B3F516
:10569800804F3FF47FAF6DE7B3F5805F8CD069E74B
:1056A8000A4A936D03F44033B3F5803F09D0B3F54C
:1056B800003F3FF46FAF002B7FF45CAF7CE70748F7
:1056C80059E701A8FFF7C4FD039854E700440258BE
:1056D80040787D010080BB000090D00300093D00A8
:1056E80008B5FEF7F1FC064B06499B69064AC3F369
:1056F8000323CB5C03F01F03D840106008BD00BF34
:1057080000440258EC6C0008000000242DE9F04F1A
:105718000D6883B0002D00F0C4800023DFF82C82D0
:10572800DFF82CE201229A4012EA050C00F0B4805E
:105738004C6824F01007022F40F0B680DF0803F011
:10574800070A4FF00F0B0E6900EB87074FEA8A0A2A
:10575800D7F820900BFA0AFB06FA0AF64FEA430A32
:1057680029EA0B094FF0030B46EA09090BFA0AF676
:1057780004EA0B0BC7F820906FEA060907680BFAD2
:105788000AFB27EA06064BEA060606608768C4F3A2
:10579800001609EA070BCF689E4007FA0AF747EA9E
:1057A8000B078760476827EA020216434660C66807
:1057B800E7008A6806EA090902FA0AF242EA0902D7
:1057C800C26069D5D8F8F47023F0030903F0030226
:1057D8000F2647F0020709F1B0499200C8F8F470A3
:1057E80009F58069D8F8F47006FA02FA07F002079A
:1057F80001974D4F019EB842D9F8086026EA0A067B
:1058080020D007F58067B8426BD0484FB8426DD0BA
:10581800474FB84260D0474FB84271D0464FB84260
:1058280073D0464FB84266D0454FB84272D0454F04
:10583800B84274D0444FB8420CBF09270A2707FA68
:1058480002F21643C9F808606FEA0C07DEF8002078
:10585800E60354BF3A404CEA0202CEF80020A20305
:10586800DEF804604FF0B04254BF3E404CEA0606F2
:10587800CEF804601668E2024FF0B04254BF3E40D2
:105888004CEA0606A4024FF0B0441660526854BFB2
:105898003A404CEA02026260013335FA03F27FF4BF
:1058A80041AF03B0BDE8F08F4FEA430A4FF0030958
:1058B800D0F800B0013F04EA090609FA0AF9012FF5
:1058C8002BEA090B06FA0AF66FEA090946EA0B06FB
:1058D80006603FF66CAF59E7032707FA02F2164352
:1058E800B0E7012707FA02F21643ABE7022707FAE7
:1058F80002F21643A6E7062707FA02F21643A1E7C3
:10590800042707FA02F216439CE7052707FA02F272
:10591800164397E7072707FA02F2164392E7082784
:1059280007FA02F216438DE70000025800080258F1
:10593800000C0258001002580014025800180258AF
:10594800001C025800200258002402580044025843
:1059580080000058002900F0AC8000232DE9F04FAA
:10596800DFF870A183B0DFF87091DFF87081DFF89D
:1059780070B14FF0010E0EFA03F414EA010C73D063
:1059880023F0030503F003020F26484555444FEA68
:10599800C202AF6806FA02F607EA0607019723D0A3
:1059A80058456AD0464FB8426AD0464FB84271D07F
:1059B800454FB84273D0454FB84266D0444FB842BD
:1059C80059D0DFF820E1704574D0DFF81CE170454C
:1059D8006AD0DFF818E1704514BF4FF00A0E4FF097
:1059E800090E0EFA02F200E00022019F974219D137
:1059F800AF684FF0B04227EA0606AE60D8F800500C
:105A080025EA0C05C8F80050D8F8045025EA0C051A
:105A1800C8F80450156825EA0C051560556825EA8C
:105A28000C0555605A000326D0F800C00F2723FA4A
:105A380006F5964003F0070200EB85054CEA060CD4
:105A48009200C0F800C097402A6A22EA07022A6238
:105A5800826822EA06028260426822EA04044460FC
:105A6800C26822EA0606C660013331FA03F280D121
:105A780003B0BDE8F08F4FF0060E0EFA02F2B4E75D
:105A88004FF0020E0EFA02F2AFE74FF0050E0EFAD3
:105A980002F2AAE74FF0030E0EFA02F2A5E74FF062
:105AA800040E0EFA02F2A0E74FF0080E0EFA02F208
:105AB8009BE770474FF0070E0EFA02F295E700BF1A
:105AC80000080258000C025800100258001402582E
