:020000040800F2
:100000000000022059060008A9060008851700080C
:10001000A9060008A9060008A906000800000000BB
:10002000000000000000000000000000A906000819
:10003000A906000800000000A906000875170008BE
:10004000A9060008A9060008A9060008A9060008D4
:10005000A9060008A9060008A9060008A9060008C4
:10006000A9060008A9060008A906000899090008C1
:10007000A509000881090008B1090008BD090008A8
:10008000A9060008A9060008A9060008A906000894
:10009000A9060008A9060008A9060008A906000884
:1000A000A9060008A9060008A9060008A906000874
:1000B000A9060008A9060008A9060008A906000864
:1000C000A9060008A9060008A9060008A906000854
:1000D000A9060008A9060008A9060008A906000844
:1000E000A9060008A906000800000000A9060008EB
:1000F000A9060008A9060008A9060008A906000824
:10010000A9060008A9060008A9060008A906000813
:10011000A9060008A9060008A9060008A906000803
:10012000A9060008A9060008A9060008A9060008F3
:10013000A9060008A9060008A9060008A9060008E3
:1001400000000000000000000000000000000000AF
:10015000A9060008A9060008A9060008A9060008C3
:10016000A9060008A9060008A9060008A9060008B3
:10017000A9060008A9060008A9060008A9060008A3
:10018000A9060008A9060008A9060008A906000893
:10019000A9060008A9060008A9060008A906000883
:1001A000A9060008A9060008A9060008A906000873
:1001B000FD120008A9060008A9060008A906000803
:1001C000A9060008A9060008A9060008A906000853
:1001D000A9060008A9060008A9060008A906000843
:1001E000A9060008A9060008A9060008A906000833
:1001F000A9060008A9060008A9060008A906000823
:10020000A9060008A9060008A9060008A906000812
:10021000A9060008A9060008A9060008A906000802
:10022000A9060008A9060008A906000800000000A9
:10023000A9060008A906000800000000A906000899
:10024000A9060008A9060008A9060008A9060008D2
:10025000A9060008A9060008A9060008A9060008C2
:10026000A9060008A9060008A9060008A9060008B2
:10027000A9060008A9060008A90600080000000059
:10028000A9060008A9060008A90600080000000049
:0802900000000000A9060008AF
:1002980010B5054C237833B9044B13B10448AFF3B8
:1002A80000800123237010BD10000024000000000E
:1002B8009802000808B5034B1BB103490348AFF384
:1002C800008008BD00000000140000249802000807
:1002D80008B5114801F07EFF0F4801F0B9FF00286A
:1002E80011DD0E4A13780133DBB2052B08D81370E1
:1002F800094801F0AFFF10B1084B00221A7008BD81
:1003080000231370F4E7F3D0044A137813B90523D4
:100318001370EDE7013BEAE71001002438010024DF
:100328002DE9F04704464FF00A0800230122052171
:1003380004204FF0090E022506264FF0030C07276C
:100348004FF0080984F80E804FF00E0A4FF00B08A2
:100358002271A2746171E1716172E1726173A170BD
:10036800E177E370237063742375A37584F808E05C
:10037800A07620776077A07784F8200084F82200A0
:10038800A772677084F806902673E673267484F85B
:1003980021602576E57684F823C0E274E27584F856
:1003A800252084F8332084F82F2084F8312084F81D
:1003B800342084F8392084F8372084F83D1084F8F4
:1003C8003E2084F83F20637584F8243084F827E0C1
:1003D80084F8283084F82AC084F82C3084F82D302A
:1003E80084F82E3084F832E084F83A3084F84030CB
:1003F80084F83600657684F8266084F8295084F8F5
:10040800309084F8357084F83B6084F83C5084F868
:100418002B8084F8388084F8452084F84B2084F8B1
:100428004F1084F8AA2084F8AE1084F8B12084F81C
:10043800B52084F8433084F8463084F847C084F8FF
:10044800483084F8493084F84A3084F84C3084F8CD
:100458004E3084F8A93084F8AB3084F8AD3084F895
:100468004D0084F8AC0084F8417084F8425084F858
:10047800445084F8AF5084F8B07084F8B36084F8BE
:10048800B4A001F07DF9204600F03AFFE01C00F02E
:10049800B1FC04F1AF0001F009FE04F1B30001F072
:1004A80005FE04F12E0204F1340104F11100BDE847
:1004B800F04700F085BA00BF2DE9F04F3D4C85B0FC
:1004C8003D4A4FF48031002640F2045320464FF055
:1004D8000108029240F2011B00912746ADF8046022
:1004E800C146ADF80C30FFF71BFF4FF4007304F161
:1004F800B70084F8B7802546A4F8BE3004F1180A7E
:10050800A4F8B8B001F024FE40F6061384F8C180C0
:1005180004F1C100A4F8C830E846A4F8C2B001F05C
:1005280017FE3346062202AE1C4603E018F8013FC8
:1005380016F8012F85F8CB3005F1CB0085F8CC20D3
:10054800043585F8C99085F8CA4001F0AFFDAA4581
:10055800ECD140F6033240F601431848C7F8E420CE
:10056800A7F8E83001F012FE40F2054302221448D1
:10057800A7F89230134E87F89D2000F093F80020DA
:100588001149347000F09AFA002000F0A3FA0F4DD8
:100598000024E3B23278013428469A424FF0010130
:1005A80005F1040508BF002101F0BEFD062CF0D1BD
:1005B800EDE700BF2C000024060701081001002405
:1005C8006600002438010024D9020008F70000243E
:1005D80030B4194C0022194BD4F88810184841F44B
:1005E8007001184DC4F888101C68174944F00104BC
:1005F8001C601A611C68204018609A61DA611A62EE
:100608009A62DA621A635A639A63DA631A645A64FA
:10061800186820F4802018601A662B681940B1F118
:10062800005F02D2094B01221A60034B4FF00062AF
:1006380030BC9A60704700BF00ED00E000440258EB
:100648007FEDF6EA0010005C0000FFFF0881005112
:10065800DFF834D0002103E00C4B5B5843500431E1
:100668000B480C4B42189A42F6D30B4A02E000237F
:1006780042F8043B094B9A42F9D3FFF7A9FF06F069
:10068800ADFFFFF719FF704700000220EC78000863
:10069800000000241000002410000024900F002403
:1006A800FEE700002DE9F0414D4E00F1640400F131
:1006B80068078CB03246C6F8E800751D90F86310DC
:1006C800002302F8011BA54288BF9742CDE90133F8
:1006D800CDE90333CDE90533CDE90733CDE9093356
:1006E80066D800F16F0206F10C0706F12205A54253
:1006F80088BFBA425CD8446E826EF3613384C6F810
:100708000140C6F8052090F86C4090F86D2074728E
:10071800B272C6E90333C6E9053390F86E30F37256
:10072800304D4FF42013304A01200024A9612A607B
:100738004FF4807208216B600323AA82E860284680
:10074800EB622961AC602C7785F83840C5E909442B
:10075800C5E90C4402F02AF801A92846019402F0E0
:1007680031F940F2FF73052204200021CDE9062368
:100778003378CDE90801C3B10622DFF874801B4F36
:1007880001E057F82420D6F8E83004A92846059255
:100798002344013493F85830E4B258F823300493D2
:1007A80001F060FD3378A342EBD80CB0BDE8F081CE
:1007B800846E0023426EC6F80540C6F8012090F802
:1007C8006C5090F86D4090F86E207572F361338428
:1007D800B472F272C6E90333C6E90533A0E700BF75
:1007E8003C010024300900240020024094760008CF
:1007F80068760008594B02682DE9F04F9A428DB08F
:100808004FF00004CDE90744CDE909440B9402D028
:100818000DB0BDE8F08F524B524ED3F8D820D6F821
:10082800E85042F02002019005F1580BC3F8D82097
:10083800D3F8D82002F020020392039AD3F8E020DC
:1008480042F00402C3F8E020D3F8E02002F00402EA
:100858000492049AD3F8E02042F00202C3F8E020A0
:10086800D3F8E02002F002020592059AD3F8E020BE
:1008780042F00102C3F8E020D3F8E030327803F008
:1008880001030693069B002A49D0DFF8E490A246AC
:10089800DFF8E080274605E0013433785FFA84FA10
:1008A80053453CD91BF80A3007A905EB430015F856
:1008B8001320437859F82200032238F81330099797
:1008C800CDE9073205F06AFA06EB0A035B78002BDC
:1008D800E2D00AEB4A03D6F8E8505B0016331D4411
:1008E800AB1DAA4600939AF8012001239AF800004C
:1008F80007A938F812200AF1020A59F820000792CD
:10090800CDE9083702230A9305F048FA009B5345BE
:10091800E9D1013433785FFA84FA5345C2D8124CCE
:100928000921124A4FF480634FF40060616022602D
:100938004FF400514FF48072236100236061204618
:10094800C4E90233C4E90833C4E9061205F0C8FD56
:10095800019BDC64A3630DB0BDE8F08F002002406A
:10096800004402583C01002494090024400002403D
:10097800F4760008D4760008014806F033B800BFC2
:10098800940900240B4692000146184606F04ABE18
:10099800014806F027B800BF7C0D0024014806F086
:1009A80021B800BFF40D0024014806F01BB800BFB1
:1009B8006C0E0024014806F015B800BFD40B0024C3
:1009C8002DE9F04F044683B0904608468B462578BB
:1009D80094F807A094F8089000F056FF009040465D
:1009E80000F052FF2E4E20222E4B2F4F0190204612
:1009F800C6F80423C7F8042333603B6001F020F9EC
:100A0800584600F0DDFE404600F0DAFE15F0FD0F16
:100A180013D1BAF1020F86F80DA32BD04FF4007250
:100A28000021224806F00CFE4FF480720021204875
:100A380006F006FE0023C6F80833013D012D02D951
:100A480003B0BDE8F08FB9F1020F87F80D931CD001
:100A58004FF400720021174806F0F2FD4FF480723F
:100A68000021154806F0ECFD0023C6F8083303B052
:100A7800BDE8F08F6179102300984BF68032B1FA07
:100A880081F1490906F0CCFBC8E7A1791023019848
:100A98004BF68032B1FA81F1490906F0C1FBD7E77C
:100AA800280200248D0900083C0500242C0200249B
:100AB8002C040024400500244007002410B9034BEF
:100AC80019607047024B1960704700BF2802002464
:100AD8003C05002408B5402250B90B490B4803F0E7
:100AE800FDFA40220A490B48BDE8084003F05CBA09
:100AF80009490A4803F0F2FA402209490948BDE8C1
:100B0800084003F051BA00BF2C020024E40E002470
:100B18002C030024E40C0024400500244C0C002481
:100B2800400600243C0B002470B501684B4A4C4B2E
:100B38004C4C914218BF1C4694F80C3304F50170D4
:100B4800D4F80423211D012B00EB820542D0A842D2
:100B58000FD006469FED447A51F8043B1BB207EECE
:100B6800903AF8EEE77A67EE877AE6EC017AB542D2
:100B7800F2D104F5217523682946984794F80C2387
:100B8800D4F8043304F58271012A05EB830337D0C6
:100B98009D421ED0DFED356A35489FED367A9FEDD0
:100BA800366A08E0F4EEC77AF1EE10FA4DDBAB4294
:100BB80041F8042B0DD0F5EC017A47F6FE72F4EEFD
:100BC800E67AF1EE10FAEDD80246AB4241F8042B72
:100BD800F1D170BDA842CCD006469FED287A51F8D5
:100BE800043B83F40003A3F5000307EE903AF8EE04
:100BF800E77A67EE877AE6EC017AB542EFD1B8E793
:100C08009D42E6D004F58074DFED186A1C489FED1C
:100C1800197A1C4908E0F4EEC77AF1EE10FA0DDBF8
:100C2800AB4244F8042FD4D0F5EC017A0A46F4EE2E
:100C3800E67AF1EE10FAEED80246F1E7B0EE676A0E
:100C4800BEEEE46A16EE102AEAE767EE867AFDEE53
:100C5800E77A17EE902A12B2A9E700BF04580140BC
:100C68003C050024280200240000003804FF7FBF50
:100C78000280FFFF04FF7F3F00FEFF4600000034B4
:100C88007E0080FF82FF7F00F8B502684E4B4F4C14
:100C98009A42D4F8046300F085804D4CD4F80423BC
:100CA80094F80C33B600211D04F50170012B314472
:100CB80000EB820543D0A8420FD007469FED457A46
:100CC80051F8043B1BB207EE903AF8EEE77A67EE6C
:100CD800877AE7EC017ABD42F2D104F521752368E1
:100CE8002946984794F80C13D4F8042304F5827322
:100CF800012905EB82021E4437D095421ED0DFED54
:100D0800366A36499FED367A9FED366A08E0F4EE8A
:100D1800C77AF1EE10FA4EDBAA4246F8043B0DD032
:100D2800F5EC017A47F6FE73F4EEE67AF1EE10FA86
:100D3800EDD80B46AA4246F8043BF1D1F8BDA842CB
:100D4800CBD007469FED287A51F8043B83F4000383
:100D5800A3F5000307EE903AF8EEE77A67EE877A94
:100D6800E7EC017ABD42EFD1B7E79542E6D0043E01
:100D7800DFED196A1D489FED1A7A1D4908E0F4EE67
:100D8800C77AF1EE10FA0FDBAA4246F8043FD5D035
:100D9800F5EC017A0B46F4EEE67AF1EE10FAEED8AD
:100DA8000346F1E732467BE7B0EE676ABEEEE46AD7
:100DB80016EE103AE8E767EE867AFDEEE77A17EE68
:100DC800903A1BB2A8E700BF04580140280200244B
:100DD8003C0500240000003804FF7FBF0280FFFFAD
:100DE80004FF7F3F00FEFF46000000347E0080FFC6
:100DF80082FF7F002DE9F04FA44C0346ABB020469C
:100E080023655F7893F8008002F0ACFAE8B9012F07
:100E18004FF001059E490246E06014BF4FF480136D
:100E28004FF40003A560C4E9001593FAA3F3B3FADD
:100E380083F34FF48076E0612046013B2262C4E9E7
:100E4800043602F023FA034618B101202BB0BDE89E
:100E5800F08F4FF0660C41F2883220460EA91496A6
:100E6800179313931B93CDF838C0CDE91533CDE90B
:100E7800193302F095FA0028E7D1992341F2883214
:100E88000EA920460E9302F08BFA0028DDD14FF010
:100E9800000B4FF0010C4FF0050A4FF080792490B9
:100EA80008AA21901CA9299041F28833CDF870A096
:100EB800CDF89490CDE908BC4FF0100B4FF0010C21
:100EC800CDE90ABC4FF0000B4FF4800CCDE922604D
:100ED800CDE927002046CDE90CBC02F0E7FB00284D
:100EE800B3D1ADF808001390CDE91460CDE9160927
:100EF800CDE91850CDE91A00002F00F0CB80F0237F
:100F0800ADF80830C02341F288320EA95F480E932D
:100F180002F046FA002898D141F288325B4802A9CB
:100F280002F0A8FA044600288FD1002601274FF4C2
:100F380080754FF080794FF0000A4FF4800B2194B0
:100F480041F28833299408AA1CA950482295CDF863
:100F58009490CDE90867CDE92344CDE927441026CC
:100F6800052401271C94CDE90A67CDE90CAB02F0F2
:100F78009DFB00287FF469AF012406238DF8070044
:100F880041F2883213901CA91B90219029900E944D
:100F98001C93CDE91450CDE91609CDE91900CDE926
:100FA8002250CDE92400CDE92700384802F0F8F9AD
:100FB80000287FF44AAF10260127052041F2883324
:100FC80008AA1CA91C903148CDF89490CDE90A676D
:100FD80002260227CDE90CABCDE9086702F066FBD3
:100FE80000287FF432AF41F288320EA9274802F078
:100FF800D7F900287FF429AF402341F288320DF158
:10100800070122488DF8073002F034FA00287FF4EF
:101018001CAF10260127052002AA41F288330EA929
:101028000E901A48CDF85C90CDE904674026402719
:10103800CDE906ABCDE9026702F038FB0646002889
:101048007FF403AF229500252196052029960127D4
:101058001C9008AA41F288331CA90C48CDF894903A
:10106800CDE92366CDE927660126CDE90856102685
:10107800CDE90CABCDE90A6702F018FB00287FF434
:10108800E4AEB8F1000F50D00020DFE6500800248D
:1010980000500052612341F288320EA920460E9377
:1010A80002F07EF900287FF4D0AE41F2883202A91E
:1010B800204602F06DFA00287FF4C7AEBDF808306C
:1010C8000625259041F2883223F078032190299053
:1010D8001CA943F0400322961C95ADF80830CDE9D1
:1010E8002300CDE92700204602F05AF900287FF4B2
:1010F800ACAE1026012720460225022441F288338F
:1011080008AA1CA9CDF870A0CDF89490CDE90A677B
:1011180000264FF48007CDE90845CDE90C6702F0B9
:10112800C5FA00283FF4EEAE8FE6EB24A0264FF474
:10113800005706251C9400244FF0805000234FF4DC
:1011480080784FF4406929900EAA1CA90C48CDE973
:101158001E67CDE920454FF440464FF04077002404
:101168000025CDE92733CDE92289CDE92467CDE9EA
:101178000E4502F00BFB003018BF012066E600BFE9
:101188005008002402683E4B2DE9F04F9A428DB07A
:101198004FF00004CDE90744CDE909440B9402D08F
:1011A8000DB0BDE8F08F374B0227374840F60921CC
:1011B800D3F8D420A1460DF1140ADFF8D4B042F4D4
:1011C8008042DFF8D0800326304DC3F8D420D3F80E
:1011D800D42002F480420092009AD3F8E02042F032
:1011E8004002C3F8E020D3F8E02002F04002019268
:1011F800019AD3F8E02042F02002C3F8E020D3F8A7
:10120800E02002F020020292029AD3F8E02042F095
:101218001002C3F8E020D3F8E02002F01002039295
:10122800039AD3F8E0203A43C3F8E020D3F8E0303B
:1012380005903B40ADF818100493049BDBF8503040
:1012480007A903EB44030134D8789A7835F81030AD
:1012580058F8220007931AF8013BCDE90879CDE93F
:101268000A6304F09BFD062CE8D100225C2011469D
:1012780001F01EFC5C2001F051FC0DB0BDE8F08FC0
:1012880000500052004402580A0A0909247700084D
:101298005008002444770008F8B50268104B9A42B9
:1012A80000D0F8BD0F4A00240F4FD2F8D4300F4EAB
:1012B80023F480430E4DC2F8D4303B6D03EB440356
:1012C8000134DA789B7836F8121055F8230004F0C8
:1012D8008DFE062CF1D15C20BDE8F84001F02CBC55
:1012E8000050005200440258500800242477000897
:1012F80044770008014802F0D1BA00BF5008002422
:101308002DE9F04303788BB0424CA06323B100254C
:1013180028460BB0BDE8F0833F4A02230026012788
:10132800626008220893202302A9201DC4E90267ED
:10133800C4E9042340264FF4C07700224FF44063E9
:10134800C4E90667C4E908234FF480564FF40057F0
:1013580002220723C4E90A67CDE9022304260322EF
:1013680002230727CDE90623CDE9046701F016FC1F
:101378000546002849D10126102702A94FF48052BA
:10138800201D019505954FF0010802964FF00009C0
:10139800CDE9037601F02CFC642005F029FF02203A
:1013A80010214FF48052CDE9020102A9201DCDE998
:1013B800048901F01DFC032010214FF004084FF0B0
:1013C80000094FF48052CDE9020102A9201DCDE9A0
:1013D800048901F00DFC40F23122042302A9019294
:1013E8004FF48052DDF804C0E0180293CDF814C021
:1013F800CDE9037601F0FCFB201D40F6060101F063
:101408001DFC28460BB0BDE8F083012528460BB02B
:10141800BDE8F083A8080024404100526B4A00232D
:101428002DE9F04315688FB0CDE90833CDE90A33CB
:101438000C9315B10FB0BDE8F083654B01210C2466
:101448004FF0020911604FF00308D3F8D4204FF68B
:10145800837608A95F4842F480520327C3F8D42052
:10146800D3F8D42002F480520092009AD3F8E020F6
:1014780042F01002C3F8E020D3F8E02002F0100296
:101488000192019AD3F8E02042F04002C3F8E0202C
:10149800D3F8E02002F040020292029AD3F8E0204A
:1014A80042F00802C3F8E020D3F8E02002F0080276
:1014B8000392039AD3F8E02042F48072C3F8E02044
:1014C800D3F8E02002F480720492049AD3F8E02062
:1014D80042F08002C3F8E020D3F8E02002F0800256
:1014E8000592059AD3F8E02042F02002C3F8E020E4
:1014F800D3F8E02002F020020692069AD3F8E02002
:1015080042F00402C3F8E020D3F8E0300896002641
:1015180003F00403CDF82490CDF82C800793079BA3
:101528000C9404F03BFC48F23712022308A92A481D
:101538000C94CDE90823CDE90A6704F02FFC4CF29E
:101548000372022308A925480C94CDE90A67CDE95E
:10155800082304F023FC40F2FF62022308A9204874
:101568000C94CDE90A67CDE9082304F017FC4FF67F
:101578000C72022308A91B480C94CDE90A67CDE92F
:10158800082304F00BFC4FF63F02022308A9164873
:101598000C94CDE90A67CDE9082304F0FFFB134B4F
:1015A800134A08A99B6B134E9F78587836F8173062
:1015B80052F82000CDF824900A950893CDE90B84C1
:1015C80004F0ECFB0FB0BDE8F08300BFA4080024D2
:1015D800004402580010025800180258000C025823
:1015E80000200258001C025800140258A8080024C1
:1015F80094770008747700082DE9F043CFB04C22A7
:1016080000210BA806F01CF82022002102A806F0F1
:1016180017F8BC2200211EA806F012F8022005F0D7
:1016280051FD4F4A00214F4B01911846D16A21F0D4
:101638000101D162D26A02F0010201929A6942F470
:1016480040429A619B6903F440430193019B83697B
:101658009B04FCD5444A02242121C820936A4FF4F4
:101668008035012623F003032343936204230B915F
:10167800082205211693002317900BA80C951196A4
:1016880018941A9419911D93CDE91444CDE91B239C
:1016980002F042FE00B1FEE73F260327002208239E
:1016A80002A82146CDE90267CDE90423402640235C
:1016B8004FF480624027CDE90823CDE9066703F09F
:1016C8005BF9034600B1FEE74FF480528021022601
:1016D800022733948024469500254FF064084FF084
:1016E80002091EA8CDE93B334FF48073CDE93412CB
:1016F800439319A3D3E90023CDE92267CDE91E233B
:101708000022062340F227164027CDE92445CDE9DB
:101718002623042404254FF480620023CDE928679A
:10172800CDE92A45CDE92C230026012700240025F0
:1017380000224FF44013CDE92089CDE92E67CDE989
:101748003045CDE93E2303F03BFB00B1FEE705F051
:10175800DFFC4FB0BDE8F08309130F03040000005D
:1017680000040058004802580044025808B505F023
:101778002DFDBDE8084001F00DBA00BFFFBE70475F
:1017880008B5FFF739FF05F04FFEBFF34F8FBFF3E2
:101798006F8F0A4B0022C3F85022BFF34F8FBFF35D
:1017A8006F8F5A6942F400325A61BFF34F8FBFF30B
:1017B8006F8FBDE8084005F0DBBC00BF00ED00E01E
:1017C80038B503780246013B022B38D8DFE803F02E
:1017D80023022D0000681F4B1F4918600C46928891
:1017E8001E4808609A80002501231D4A2046E360B0
:1017F8002562C4E90125C4E90455C4E9065501F088
:10180800F5FA2946204601F01FFC29462046BDE886
:10181800384001F043BC0068124B13491860134864
:101828000C46928808609A80DDE70068104B1149E1
:10183800186011480C46928808609A80D3E70068BF
:101848000E4B0F4918600F480C46928808609A8022
:10185800C9E700BFF40800240C0A0024005C00401B
:10186800FFEAC000EC080024F00A002400580040F9
:10187800FC080024580A0024001C0058E40800242E
:10188800A40A0024005400400378032B03D8034A19
:1018980052F8230070470020704700BFC477000843
:1018A8000368974A93422DE9F04F8DB04ED0954A80
:1018B800934200F08D80944A934200F0D680934A78
:1018C800934202D00DB0BDE8F08F02F50A32DFF87E
:1018D8004C8207AC4FF01209D2F8E0104FF0000B21
:1018E800454608F1040A41F00201894F894EC2F8C1
:1018F800E010D2F8E02002F002020692069AA878D8
:1019080021466A78023536F8103098F8000057F802
:1019180022200128CDF828B007931046CDE9089B6E
:1019280000F2E78004230B9304F038FAAA45E6D1C5
:10193800794BD3F8F42042F08002C3F8F420D3F8AE
:10194800F43003F080030793079BBBE7724A07ACA8
:10195800DFF8CC814FF0120AD2F8E0104FF0000BFC
:10196800454608F1040941F00201694F694EC2F881
:10197800E010D2F8E02002F002020092009AA87863
:1019880021466A78023536F8103098F8000057F882
:1019980022200128CDF828B007931046CDE908ABDE
:1019A80000F2978004230B9304F0F8F94D45E6D133
:1019B800594BD3F8E82042F40012C3F8E820D3F8D2
:1019C800E83003F400130193019B0DB0BDE8F08FDC
:1019D800514B07ACDFF84CA14FF01208D3F8E010D8
:1019E8004FF0000B55460AF1040941F08001484FB9
:1019F800484EC3F8E010D3F8E01001F080010291DE
:101A08000299D3F8E01041F00201C3F8E010D3F8CE
:101A1800E03003F002030393039BA87821466B7818
:101A2800023536F810209AF8000057F823300128BC
:101A3800CDF828B007921846CDE9088B4FD8042373
:101A48000B9304F0ABF9A945E7D1334BD3F8E82061
:101A580042F48002C3F8E820D3F8E83003F48003A6
:101A68000493049B0DB0BDE8F08FDFF8BCB007AC61
:101A7800274F4FF0120A5D460BF10409254E4FF02F
:101A88000008A87821466A78023536F810309BF8A5
:101A9800000057F822200128CDF828800793104627
:101AA800CDE908A820D804230B9304F077F94D4515
:101AB800E7D1194BD3F8E82042F40002C3F8E82034
:101AC800D3F8E83003F400030593059B0DB0BDE897
:101AD800F08F04F063F9A9457FF451AF68E704F08B
:101AE8005DF9A94599D1B0E704F058F9A945C8D1DD
:101AF800DFE704F053F9AA457FF401AF18E700BF08
:101B08000054004000580040005C0040001C005891
:101B1800F4770008D477000800440258FC08002431
:101B2800E4080024EC080024F40800241E4B1F4895
:101B3800DA785B79012A2DE9F04114BF00260226E4
:101B480063BB012343600024194F4BF680353246AE
:101B58002146846044610223C4600760022705624D
:101B6800144DC0E90644C0E90B44104802F072F96C
:101B7800DFF844E04FF0010C324621466C61EC611D
:101B88002846EC603B466C63C5F800E0C5E90B44A9
:101B9800C5E9017CBDE8F04102F05CB9012BD0D168
:101BA80003234360CFE700BF0C090024E40E0024A0
:101BB80004580140E40C0024245801401B4B1A79B6
:101BC8009B79012A2DE9F04114BF00270227184EFE
:101BD80033BB002373600024164D174903230122E9
:101BE8006C61296028466B602146AA600223EC617B
:101BF8003A46EC606C63C5E90B44104D02F02AF9D3
:101C080021463A46B46002237461F461F460746357
:101C180035600748C6E90B44BDE8F04102F01AB93F
:101C2800012BD6D102237360D5E700BF0C0900242D
:101C38003C0B00244C0C0024045C0140245C014053
:101C480070B505460E4E006869683446AA68EB68A8
:101C58000FC4AA6928696969337807C4012B2A7FE8
:101C6800227005D043B1022B00D070BDFFF75EFF94
:101C7800BDE87040FFF7A2BFBDE87040FFF756BF50
:101C88000C090024414BD3F8E02042F010022DE962
:101C9800F04FC3F8E02095B0D3F8E02005463C4863
:101CA80002F010020292029AD3F8E02042F00202F7
:101CB800C3F8E020D3F8E02002F002020392039A6E
:101CC800D3F8E02042F04002C3F8E020D3F8E02047
:101CD80002F040020492049AD3F8E02042F008028D
:101CE800C3F8E020D3F8E02002F008020592059A34
:101CF800D3F8E02042F00402C3F8E020D3F8E02053
:101D080002F004020692069AD3F8E02042F001029B
:101D1800C3F8E020D3F8E02002F001020792079A06
:101D2800D3F8E02042F48072C3F8E020D3F8E01042
:101D38002A6801F48071824208910899D3F8E0106A
:101D480041F08001C3F8E010D3F8E01001F0800101
:101D580009910999D3F8E01041F02001C3F8E01087
:101D6800D3F8E01001F020010A910A9918D0094B24
:101D78009A427DD0084B9A4200F0B280074B9A42B3
:101D880000F0E58015B0BDE8F08F00BF00440258B0
:101D98000458014024580140045C0140245C01407F
:101DA800B14A1168002900F0518100240131DFF89F
:101DB800ECA20FAE1160A34601955746DFF8E092FA
:101DC8003146DFF8E082E5B2BCB99AF8053073B95C
:101DD8007A7ABB7A59F82200022238F81330129422
:101DE8000F93CDE910240622139203F0D7FF013494
:101DF80002373146E5B2002CE7D0BA7A0223787A66
:101E080038F8122059F82000CDF848B00F92CDE9E3
:101E1800103B0623139303F0C1FF042DE7D1934C25
:101E28004FF48060019D4FF480724FF40033DFF867
:101E380078C24FF4804157274FF4805620612046DE
:101E4800C4F808B0C4F80CB0C4F824B0C4F800C092
:101E58006760C4E90723C4E9056104F041FB2A6807
:101E6800834BC5F884409A42A563C5F8804081D168
:101E78007D4A136863B97F49D1F8F00040F48000C7
:101E8800C1F8F000D1F8F01001F480010C910C9920
:101E98000133794C5820402113604FF480624FF48D
:101EA800805360604FF48040A16022614FF48071DC
:101EB8004FF400326361714E0023A0612046E36055
:101EC80063622660C4E9071204F00AFB2A686C4BB7
:101ED800C5F884409A42A563C5F880407FF44EAFA8
:101EE800684A136863B96349D1F8F00040F4000008
:101EF800C1F8F000D1F8F01001F400010D910D992E
:101F08000133614C6148592113604FF480624FF4EA
:101F1800805320604FF48040616022614FF48071EB
:101F28004FF4003263610023A06120466362C4E974
:101F38000712C4E9023304F0D3FA2A68544BC5F8EF
:101F480084409A42A563C5F880407FF41BAF4D4A90
:101F58001368002B6CD00024DFF840A101330FAECA
:101F680001955746DFF83891A346DFF838814FF0DE
:101F78000A0C13603146E5B2E4B10223387DFA7CDD
:101F880038F810009D4259F822200F90CDF848B03B
:101F98001046CDE9103B49D0CDF84CC003F0FEFE09
:101FA800042D1DD0013402374FF00A0C3146E5B23A
:101FB800002CE2D19AF806206346002AF2D1397D36
:101FC8000220FA7C38F8111059F8222012940F9147
:101FD800CDE9100410463146139303F0DFFEE1E724
:101FE8002C4C5A222C494FF48060019D4FF4003349
:101FF800216040274FF4804162604FF480564FF4CF
:10200800807220612046C4F80CB0C4F824B0A760E0
:10201800C4E90561C4E9072304F062FAC5F88440FD
:10202800A563C5F8804015B0BDE8F08F0823D1E757
:102038001049D1F8F00040F40000C1F8F000D1F8E0
:10204800F01001F400010E910E9984E7D3F8F00026
:1020580040F48000C3F8F000D3F8F03003F48003B4
:102068000B930B9BA1E600BF040900247C0D002400
:102078002458014000440258F40D0024280002406E
:10208800045C0140080900246C0E0024580002403A
:10209800245C0140D40B0024700002400C09002489
:1020A8004478000824780008100002408378012B47
:1020B80030B587B01FD0DBB900230293C378012B5A
:1020C80014D08BB90023039345780023047801A921
:1020D8000A4A0B4832F8152050F82400019204935C
:1020E80003F05CFE07B030BD022BEBD10393EBE7A6
:1020F800022BE1D111230293E0E700BF74780008B6
:102108009478000810B406494478064B027831F8F0
:10211800141053F822005DF8044B04F033B800BFE4
:10212800747800089478000810B40A1C064C4178AA
:10213800064B18BF0122007834F8111053F820001C
:102148005DF8044B04F024B874780008947800080B
:102158008378C179012B10B5027A0446C1700271E7
:102168000FD05AB27AB1022B0BD00023E01C637156
:10217800FFF79CFF6378003318BF01235B4263724B
:1021880010BDA371F1E78271EFE700BF2DE9F047B9
:10219800841D804600264FF0010A054600F1180705
:1021A800A1462B7802352046043404F8043C15F87F
:1021B800013C04F8026C04F8033C04F801ACFFF796
:1021C80075FF4D4507F8016BEBD1C8F81460BDE801
:1021D800F08700BF70B5857E04460E306D00FFF7AE
:1021E80091FF267E6DB276000543A01D76B2A576D6
:1021F800FFF788FF657E064304F10A006D00267626
:102208006DB2FFF77FFFA37E2843802BC0B26076B4
:1022180016D063B1237E002200F0030003F003030D
:10222800E261022B07D0022800D163B170BD636957
:1022380001336361EEE70028F8D10123E36170BD43
:1022480000236361E6E74FF0FF33E36170BD00BF31
:10225800C0697047807EA0F18000B0FA80F0400924
:10226800704700BF90F850300022F0B5012B83B0C2
:10227800019200F01C81036801229C6880F85020BC
:10228800660700F18E800C68C4F31305C4F38467F5
:10229800002D40F09280BA404C684FF01F0CDD6969
:1022A800A60904EA0C042A4303F1300506F00C06DB
:1022B8000CFA04FCDA6107FA04F4725922EA0C02F7
:1022C800224372519A68550775D49D6815F0080520
:1022D8004BD10C6803F1140607228F684FEAD45CCF
:1022E800C4F304540CF0040C02FA04FE07FA04F4D4
:1022F800C24F5CF8062022EA0E0222434CF8062060
:102308003A68DC6802F07042B2F1805F4A6900F016
:102318008A8014F0100FDC6800F08580640804F0EF
:10232800080402FA04F4D1F810C00E68BCF1040FD6
:1023380000F0C18003F1600706F0F84691F819E053
:1023480057F82C20BEF1010F02F0004208BF4FF0F1
:1023580000453243224347F82C200C6957F82420C3
:1023680022F00042154347F824509A68D40716D43F
:10237800CE680C6806F01807A14AD3F8C050FA4096
:10238800C4F31307DFF8A4C2224025EA070566450F
:1023980042EA0502C3F8C0204BD0002C15DB00220E
:1023A80003E0436D43F020034365002380F8503079
:1023B800104603B0F0BD9A68D7E794FAA4F4B4FACB
:1023C80084F404F01F04A24066E78E4A934200F0AA
:1023D800B18002F58072934200F0AC808A4E8B4D3A
:1023E800AA68B16802F0E076C94301F0010100294A
:1023F80000F0AE8086498C4200F0CD8085498C4241
:1024080000F0EB8084498C42C9D15202C7D47E4A7D
:102418009342C4D1AB68002223F0E073334343F402
:102428008003AB60C1E7C4F38204640002FA04F4D9
:1024380079E7002F5AD094FAA4F2B2FA82F2013264
:1024480002F01F02092A00F2898094FAA4F2B2FA73
:1024580082F294FAA4F50126B5FA85F501323544DD
:10246800920605F01F0502F0F84206FA05F52A4320
:1024780094FAA4F4B4FA84F4344404F01F0404EB8A
:1024880044042405144303F114064FF0070C8A682A
:10249800E70DC4F3045407F004070CFA04FCA24047
:1024A800BD5925EA0C041443BC510C6875E7022297
:1024B800104603B0F0BD1C6EB20604F0F844944216
:1024C80033D05C6E04F0F844A24229D09C6E04F02C
:1024D800F844A2421FD0DC6E04F0F844A2427FF414
:1024E80044AFDA6E22F00042DA663EE70122A40E1B
:1024F800144404F01F05A40602FA05F6092D04F099
:10250800F84205EB450442EA0602BAD91E3C240506
:1025180044F00074B6E79C6E24F000449C66DAE749
:102528005C6E24F000445C66D0E71C6E24F0004426
:102538001C66C6E7394A334E394915469268B7686A
:10254800896802F0E0763943C94301F001014EE79A
:10255800436D012243F02003436526E794FAA4F271
:10256800B2FA82F294FAA4F50126B5FA85F5013299
:102578003544920605F01F0502F0F84206FA05F503
:102588002A4394FAA4F4B4FA84F4344404F01F04FB
:1025980004EB4404BAE711023FF501AF1A4A93422B
:1025A8007FF4FDAE1F4BAA681B681F4922F0E0723A
:1025B8009B093243A1FB031342F400029B09AA6062
:1025C8005B000193019B002B3FF4E9AE019B013BAB
:1025D8000193019B002BF9D1E1E612F080727FF4A0
:1025E800DEAE09498B427FF4DAAEAB6823F0E073C4
:1025F800334343F08073AB60D7E600BF0010005C44
:10260800FFFF0F00002002400060025800630258DC
:10261800000084CB000052C70000B8CF002302405E
:102628000021024000000024632D3E050000FF4702
:1026380038B5554A04460368934228D002F580729B
:10264800934224D0514B9B6813F4403F14BF01239D
:1026580000232BB302F0A6FA63680546B3F5003FE2
:1026680000F08480B3F5403F7ED0B3F5803F7DD045
:1026780004F0D0FD41F20303984234D8444A236859
:10268800954254D99A6842F480729A6038BD414B99
:102698009B6813F4403F14BF01230023002BD9D1BA
:1026A8004FF4002003F098FA63680546B3F5C01F9D
:1026B8002CD021D9B3F5101F60D007D8B3F5E01F8F
:1026C80058D0B3F5001FD3D14509D1E7B3F5201F82
:1026D80052D0B3F5301FCBD104F09CFD41F2030377
:1026E800984223D92D0A2C4A2368954224D89A68FF
:1026F80022F440729A6038BDB3F5402F06D00AD84C
:10270800B3F5802F02D0B3F5002FB1D19B0C5B003D
:10271800B5FBF3F5ACE7B3F5801FF7D0B3F5A01F11
:10272800A6D19B0C5B00B5FBF3F5A1E723689A687B
:1027380022F480729A6038BD184A19492A448A429C
:102748000BD9184A18492A448A429A6818D822F498
:10275800407242F400729A6038BD9A6822F440725E
:1027680042F480729A6038BD850881E71B0CB5FB7E
:10277800F3F57DE705097BE7C50979E7850977E77B
:1027880042F440729A6038BD00200240006302584B
:10279800002D310100230240105E5F00EFA1A0FF71
:1027A8000F5E5F00DF4341FF1FBCBE00F0B5002392
:1027B80083B00193002800F0D180456D0446002DB8
:1027C80000F0BA8022689368980003D59168714B2D
:1027D8000B4093609368D90015D46F4B90681B68C1
:1027E8006E4D9B096E49A5FB035301409B0941F0BF
:1027F800805191600193019B2BB1019B013B019397
:10280800019B002BF9D19368DB0024D4636D01256B
:1028180043F010036365A36D2B43A365936813F01E
:10282800040F636D1DD1DF061BD4636D23F4817320
:1028380043F0020363659368DE0728D4594B9A4234
:1028480017D003F580739A4213D0574B9B68D9076A
:102858001DD4564A15E09368002513F0040F636DE4
:10286800E1D0636D012543F010032846636503B08A
:10287800F0BD4C4A4E4B92689B681343D80706D468
:102888004C4A9368616823F47C130B43936004F00B
:10289800C1FC41F20303627D9842207F52D8510364
:1028A800A3680604276B43EA070232430A43012858
:1028B80003D1236A013B42EA4342636A23B103F42A
:1028C8007873A16A0B431A4323683B49D8680140CF
:1028D8000A43DA609A6812F0040F9A681CD112074A
:1028E8001AD4D868354A217D0240E06A42EA81322A
:1028F80094F8381002430129DA603BD01A6922F0B3
:1029080001021A611A692046616B22F070420A437B
:102918001A61FFF78DFE2368E268012A22D01A6B3C
:1029280022F00F021A63636D284623F0030343F075
:102938000103636503B0F0BDFDF75CFFA56584F88E
:1029480050503FE7A36851030604276B102BAAD108
:1029580046EA01023A4342F01C02A8E7012528464C
:1029680003B0F0BD196BA26921F00F01013A0A43C7
:102978001A63D8E71869124ED4E910210640A06CF2
:102988000A43E16B3243024342EA014242F0010248
:102998001A61B7E7C0FFFF5F00000024632D3E0502
:1029A800C0FFFF6F00200240006002580063025819
:1029B800002102400023024003C0F0FFFCBFFFFFDC
:1029C8001EF800FC90F85020012AF0B40E6849D097
:1029D8000346294A01201C6883F85000944208D015
:1029E8005A6D002142F0200283F850105A65F0BC5D
:1029F8007047224DAA6852070AD5A2685A6D01206D
:102A080042F020025A65002283F85020F0BC70473B
:102A1800A06810F00400F1D1C6B1DFF868C04F68B3
:102A2800DCF8082022F440423A43CCF80820A46895
:102A3800AA682243D40713D48A68DCF808401049EE
:102A4800164321400E43CCF80860DCE70D498A683C
:102A580022F440428A60A068AA680243D00704D5DD
:102A68000020D0E70220F0BC70478C683046044A4A
:102A780022408A60C7E700BF0020024000210240D0
:102A8800E0F0FFFF0023024007490002074BCA6835
:102A980000F4E06010B44FF6FF0422405DF8044BE8
:102AA80010430343CB60704700ED00E00000FA05D7
:102AB800174B30B4DC68C4F30224C4F10705231DA6
:102AC800042D28BF0425062B18D9033C4FF0FF33EB
:102AD800A34022EA03024FF0FF33002803FA05F36C
:102AE80021EA030303FA04F343EA02034FEA031358
:102AF800DBB206DB074A135430BC70470022144689
:102B0800E9E700F00F00044A135430BC704700BFD7
:102B180000ED00E000E400E014ED00E0002807DB31
:102B280000F01F0101234009024A8B4042F820307F
:102B3800704700BF00E100E000280DDB43090122D7
:102B480000F01F000549203302FA00F041F8230085
:102B5800BFF34F8FBFF36F8F704700BF00E100E0F6
:102B68000138B0F1807F0DD2074B0022072130B425
:102B7800F025064C5860104684F823509A60196076
:102B880030BC70470120704710E000E000ED00E025
:102B9800704700BF08B5FFF7FBFF08BD18B338B58D
:102BA80090F82C3004460D4603F0FF02B3B12146DD
:102BB800022351F8040B84F82C3004F071FC2946E8
:102BC800D4E9000204F0A8FC084A01210020136897
:102BD80043F00043136084F82C1038BD80F82D2092
:102BE800FEF71CFCE3E70120704700BF00400052DD
:102BF80090F82C30DBB2022B1DD070B503F0FB042B
:102C0800012C02D00123184670BD022305460E464A
:102C1800006885F82C3004F0C1FC3368022B04D01E
:102C2800002385F82C40184670BD0522002385F83E
:102C38002C20184670BD1846704700BF38B590F86C
:102C48002C30DBB2022B05D090F82C50EDB2012DC0
:102C580002D00123184638BD04460223006884F8D0
:102C68002C3004F0ADFC002384F82C50184638BDF5
:102C780070B504460D4616466A1C23682CD19A691D
:102C8800950727D49A69D006F9D59A699506FCD58F
:102C980020221021D961DA619A69900701D50022B2
:102CA8009A629A69D10703D49A6942F001029A613B
:102CB8005A6800211F4E2025012032405A60636C5B
:102CC80084F8401043F00403636484F8415084F8A6
:102CD800421070BD002070BD9A699107FAD49A69B4
:102CE800D1061ED59A699206D2D404F07BFA801BCD
:102CF800854209D345B123689A699206C8D404F07D
:102D080071FA801B8542F5D2636C202100220120D4
:102D18000B4384F84020636484F8411084F842200F
:102D280070BD04F05FFA801BA842EDD8002DA3D136
:102D3800EAE700BF00E800FE70B504460D461646F7
:102D480023689A6992064CD49A69D20626D5681CDB
:102D580038D19A699506FCD520221021D961DA610B
:102D68009A69900701D500229A629A69D10703D41B
:102D78009A6942F001029A615A6800211A4E202588
:102D8800012032405A60636C84F8401043F0040319
:102D9800636484F8415084F8421070BD04F022FA4C
:102DA800801BA84201D8002DCAD1636C20210022C3
:102DB80001200B4384F84020636484F8411084F8B0
:102DC800422070BD9A699206C6D404F00BFA801BA3
:102DD8008542EAD3002DE8D023689A699106F4D594
:102DE800BAE7002070BD00BF00E800FE00284DD003
:102DF800F8B590F84130044603F0FF02002B40D0AC
:102E08002421E568A06884F84110012DD4E9003236
:102E1800196822F0706221F0010119601A619A683C
:102E280022F400429A6028D040F40440022D9860B1
:102E380002D14FF400625A605A68002114482027D2
:102E4800A6691043D4E9042558602A43D868E5697F
:102E580042EA0622266A20F400403543D860084634
:102E6800DA601D601A6842F001021A60616484F831
:102E78004170216384F84210F8BD40F40040986026
:102E8800DAE780F84020FEF70BFDB9E7012070472C
:102E9800008000022DE9F04790F84140089E202C60
:102EA80040F08A8090F84040012C00F085809846D8
:102EB800012391460F4680F84030044604F092F909
:102EC800054604E004F08EF9401B192877D82368DA
:102ED800986910F40040F5D110222121C4F82490FB
:102EE800C7F3090784F8411084F842206064A4F805
:102EF8002A80628D6063FF2A6FD8618DDFF838C140
:102F08005A6889B24A4802EA0C025FFA81FC2185B4
:102F18003A4342EA0C4210435860DFF824814FF0EC
:102F2800FF0ADFF82091638D2A46314620469BB27E
:102F3800002B2FD0FFF79CFE002875D1606A21680E
:102F480010F8012B238D8A62628D013B6062013A81
:102F58009BB292B223856285628D92B2002AE2D03A
:102F6800002BE0D1731C42D18B691B06FCD5638D05
:102F7800FF2B4BD94B682A46A4F828A0204603EA21
:102F880008033B4343EA09034B603146638D9BB218
:102F9800002BCFD1FFF7D0FE002845D12368202190
:102FA800244DD9615A682A405A6084F8411084F83F
:102FB800400084F8420000E00220BDE8F087636C1E
:102FC8002021002201200B4384F84020636484F808
:102FD800411084F84220BDE8F0875A68FF2016495E
:102FE80020850A4015493A431143596095E78B6992
:102FF8001A06BCD404F0F6F8401B8642DFD3002E34
:10300800DDD021688B691806F4D5B0E7628D4B686E
:1030180092B203EA0803D0B222853B4343EA004355
:1030280043F000734B607EE70120BDE8F08700BFE6
:103038000020008200E800FE009800FC0020FF81CC
:10304800009C00FC0000FF01F0B490F84140E4B29D
:10305800202C1FD190F840200346012A1AD01A6864
:103068002420002783F841001668384626F0010618
:103078001660166826F48056166015680D431560AC
:10308800116841F00101116083F8414083F84070F4
:10309800F0BC70470220F0BC704700BF90F8412098
:1030A800D2B2202A1FD1034690F8400001281AD036
:1030B8002420F0B41C68002783F8410026683846AD
:1030C80026F001062660256825F4706545EA012585
:1030D8002560216841F00101216083F8407083F880
:1030E8004120F0BC70470220704700BF2DE9F0472F
:1030F8004C6A14B1B2F1406F57D101F1180393E84B
:10310800081463B31C434E69056844EA0203B60415
:1031180008684F6BD1E90B84BCF1000F6ED04CEA04
:10312800030C8B68D1F81090EB61BAF1000F00F036
:1031380097804AEA0000B2F1406F40EA080040EA8E
:10314800040040EA0703C86843EA090343EA0003A6
:1031580043EA060343EA0C036B6165D16FE0BCF1F7
:10316800000F2DD0056844EA0C0488684F691443A1
:10317800E861BF0408694E6BD1E90B3EBAF1000F54
:103188007BD040EA0A00B2F1406F43EA0003C86806
:1031980043EA0E0343EA060343EA000343EA07034C
:1031A80044EA03046C613FD149E08B6A0568013B3E
:1031B8002B6101F1180393E80814002BCFD0A1E785
:1031C800BAF1000F3DD044EA0A04CB6A0D6BB2F1A4
:1031D800406F44EA0204006843EA04034C6B43EA84
:1031E8000503CD6843EA04034C6943EA050343EA4F
:1031F8008443436123D04B68836120E0BAF1000F18
:1032080016D04AEA0000B2F1406F40EA080040EAEE
:103218000400CC6840EA070040EA040040EA0600DF
:1032280043EA00036B610AD04B68AB61BDE8F087E5
:1032380040EA080020433843304303436B61BDE84C
:10324800F087002CFBD0CB6A00681C43D1E90C53F3
:1032580014434A692C43234343EA82434361EEE71C
:1032680040EA080040EA04033B4343EA09033343C6
:1032780043EA0C036B61BDE8F087034343EA0E039E
:1032880033433B431C436C61BDE8F087F8B5044603
:1032980003F0A8FF002C55D094F84030012B53D0F0
:1032A8000123064684F8403094F8413003F0FF02C9
:1032B800002B35D0A76C2368A1681A68013922F45D
:1032C800706242EA01221A6001E07A1C32D19D68DC
:1032D80015F02005F9D1D4E90716E26828461F68D9
:1032E8000A43616832431D4E42EA01623E40616909
:1032F800A76932431A4E1A6041EA07025F682169DA
:103308003E4042EA0142012132435A601A680A43A8
:103318001A60656484F84110002384F84030F8BDD1
:1033280084F840202046FDF72DFF41F288331F46E0
:10333800A364C0E703F056FF801BB84206D82FB13C
:103348002368C4E70120F8BD0220F8BD042301204A
:1033580084F84130636C03436364DDE72FFFFF00AB
:10336800FEF8E0FFC8B190F84030012B10B50446D4
:1033780011D00268012380F84030136823F001035C
:103388001360FDF789FF00236364184684F8413011
:1033980084F8403010BD022010BD0120704700BFE6
:1033A8002DE9F04104460E46174603F01BFF94F83A
:1033B8004030012B3AD0012384F8403094F8415032
:1033C800EDB29D4206D002250023284684F84030FD
:1033D800BDE8F081002202238046626484F841300F
:1033E800781C23680ED19A6812F02002FBD131466E
:1033F8002046FFF77BFE736AE3B10123002584F8BA
:103408004130E1E79A6812F020021ED003F0EAFE8C
:10341800A0EB0800874201D3002FE1D1042384F8F0
:103428004130636C43F001036364CDE7022528460D
:10343800BDE8F081226893689B07FCD5022101232F
:103448000025D16084F84130BEE731462046FFF7B9
:103458004DFE736A43B1D0E703F0C4FEA0EB080049
:103468008742DBD3002FD9D0226893689907F3D518
:10347800E4E700BF2DE9F84304468946154603F002
:10348800B1FE94F84030D4F80080012B5CD00123C1
:1034980084F8403094F84160F6B29E4206D0022685
:1034A8000023304684F84030BDE8F8830023636485
:1034B800B9F1000F54D01223074684F84130D8F8E8
:1034C80010300133E362D8F81030C4F82490013387
:1034D800A362D8F8143023F04063C8F81430E36AC4
:1034E80023B3681C434611D19A685207FCD5636A16
:1034F8001B7888F82030E16A636A01390133E16298
:10350800E26A636282B1681C2368EDD09B68590740
:10351800EDD403F067FEC01B854219D3C5B12368FB
:103528009B685B07F5D5E2E7D4F80080691C1CD1DD
:10353800D8F808309B07FBD502230026C8F80C30C2
:10354800012384F84130ABE702263046BDE8F88312
:10355800042384F84130636C43F001036364EFE7AC
:10356800636C43F0080363649AE7D8F808309A0755
:10357800E2D403F037FEC01B8542E9D3002DE7D023
:10358800D4F80080D8F808309807F2D5D4E700BFFF
:103598002DE9F84304461646894603F023FE2568BC
:1035A800AA6994F84030012B5ED0012384F840309A
:1035B80094F841805FFA88F8984507D04FF00208E0
:1035C8000023404684F84030BDE8F8830023636454
:1035D800B9F1000F55D02223074684F841302B69F2
:1035E8000133A3632B69C4F83090013363636B69BB
:1035F80023F0406343F080636B61AA61A36B33B32C
:10360800721C2B4612D19A6812F0060FFBD095F85F
:103618002020236B1A70A16B236B01390133A1633E
:10362800A26B236392B1721C2368ECD09B6813F0E1
:10363800060FECD103F0D6FDC01B864219D3C6B1E4
:1036480023689B6813F0060FF4D0E0E72568711C27
:103658001CD1AB689B07FCD502234FF00008EB6038
:10366800012384F84130ABE74FF002084046BDE83B
:10367800F883042384F84130636C43F001036364E6
:10368800EEE7636C43F00803636499E7AB689A0755
:10369800E2D403F0A7FDC01B8642EAD3002EE8D08F
:1036A8002568AB689807F4D5D6E700BF2DE9F8433D
:1036B80004461E468846174603F094FD94F84030A9
:1036C800012B4CD0012384F8403094F84150EDB2DE
:1036D8009D4206D002250023284684F84030BDE8E4
:1036E800F883002242238146626484F84130701CCA
:1036F800236828D199688906FCD43A6841467868D5
:103708009A62BA685862DA621A68386922F4400222
:10371800D7F80CC042EA00074FF00062204647F491
:1037280080071F60C8F828C0FFF7E0FC701C2268FB
:1037380019D193681907FCD5082101230025D16008
:1037480084F84130C7E79A689206D6D503F04AFD57
:10375800A0EB0900864211D3002EC8D10EE0022545
:103768002846BDE8F88393681B07E5D403F03AFDC3
:10377800A0EB0900864201D3002ED7D1042384F898
:103788004130636C43F001036364A4E72DE9F84317
:1037980004460F46164603F025FD94F84030012BE9
:1037A80042D0012384F8403094F84150EDB29D4254
:1037B80006D002250023284684F84030BDE8F88367
:1037C800002282238046D4F84890626484F841300D
:1037D800B9F1FF3F226813D193689906FCD41368A6
:1037E800716823F00803082943EA010313601FD016
:1037F80039464FF0406220460025FFF777FCD9E7AD
:1038080093689B06EBD503F0EDFCA0EB080081451F
:1038180002D3B9F1000FDBD1042384F84130636C83
:1038280043F001036364C5E702252846BDE8F88331
:10383800316810231163D360136843F48013136055
:10384800D6E700BF704700BF08B50022036C9A6333
:10385800DA6293F84120082A0BD11B680222DA6049
:103868001A6842F400321A601A6842F002021A60BA
:1038780008BD0122184683F84120FFF7E3FF08BD81
:10388800704700BF704700BF704700BF704700BF58
:10389800704700BF704700BF704700BF03689A6851
:1038A800196870B5044650070ED54E030CD594F828
:1038B8004120122A76D094F84120222A00F0A380D1
:1038C8002046FFF7E5FF70BD950726D5880324D568
:1038D8000222DA601A6822F4E0221A6094F8412081
:1038E800122A7CD094F84120222A00F0AC8094F867
:1038F8004120022A00F0D48094F84120082AE2D11D
:103908005A690121204622F040625A6184F8411028
:10391800636C43BBFFF7B4FF70BD150726D4D5070A
:1039280036D5C80334D50125DD601A6822F4702223
:103938001A60626C42F0020262641A6856077CD50B
:103948001A68E16B22F004025A4E08461A608E6526
:1039580003F0A2FB0028B6D0636C204643F00403B2
:10396800636484F84150FFF76DFF70BD0803D6D536
:103978000822DA601A68560206D51A68012122F46C
:1039880010221A6084F841102046FFF783FF70BDAB
:10399800D00698D5CA0296D510222046DA60FFF7DD
:1039A8007BFF70BD9A6850078AD5E26A002A7ED0EC
:1039B800626A127883F82020E16A20680139626A15
:1039C800E1620132816862624D077FF579AFE16A91
:1039D8000029EED1036823F48023036070E71A6896
:1039E800520709D51A68E16B22F0040209681A60C7
:1039F800CB6823F00103CB600123204684F84130D3
:103A0800FFF744FF70BD9A6856077FF559AFA26B60
:103A1800002A4CD0226B93F820101170A16B2068FB
:103A28000139226BA16301328168226349077FF55E
:103A380047AFA16B0029EED1CCE784F8415020466E
:103A4800FFF700FF70BD1A6856071ED49A6812F473
:103A58007C5F13D0A26B8AB1226B01E0A16B69B1C4
:103A680093F820101170A16B20680139226BA163B3
:103A780001328168226311F47C5FEFD10123204673
:103A880084F84130FFF700FF70BD1A68E16B22F03F
:103A9800040209681A60CB6823F00103CB60EDE7E4
:103AA8000123204684F84130FFF7ECFE70BD18462C
:103AB80090E700BF51380008002800F04A812DE93E
:103AC800F041044603F0A6FB94F838302268012B35
:103AD80017D0B24B9A4226D020339A4223D003F50E
:103AE80078739A426AD020339A4267D003F5787384
:103AF8009A4200F0798120339A4200F07581A84DEE
:103B080012E0A64B9A4205D003F1C053A3F58233C5
:103B18009A4205D16368012B02D1636C002BD8D07F
:103B28000120BDE8F0819F4D94F8913003F0FF012A
:103B3800002B4AD09C4B9D4819681368A0FB0101D3
:103B480023F48033090B13608B00002928D01168F7
:103B5800C90308D51168023BC90304D503B311682A
:103B6800013BC903FAD4E3680221012B84F89110C0
:103B78001FD08B4215BF0E462320032022260BBFE1
:103B88002127012720210021A368013B042B00F2F3
:103B98005B81DFE813F02B0122002E0121003201A6
:103BA800D4F89430012043F04003C4F89430BDE8C1
:103BB800F0811320122611271021E5E794F891309F
:103BC8007B4D03F0FF01002BB4D184F89010204600
:103BD800FEF758F82268ADE731464FF40068236ACB
:103BE8002960002B41D06D4B9A4200F01C8171482E
:103BF800101AB0FA80F04009002840F014816E4B8A
:103C08009A4200F00A8120339A4200F006816B4BF9
:103C18009A4200F0FC8020339A4200F0F880684B0A
:103C28009A4200F00B81674B9A4200F00281A26928
:103C380000EB8000236AB2F5002F4FEA400000F045
:103C4800E080A26AB2F1806F08BF5B001B02B0FB84
:103C5800F3F35D4AA2FB0312D20802EB8201A3EB45
:103C68004103092B08BF013262626268236D32F09A
:103C7800020740F0B380012B18BF4FF4007703F020
:103C8800C9FA6368B0F5005FD4E9111243EA010389
:103C980074D31A43E36CE16A1A43A06923680A43A0
:103CA8006169A66A0A431968D4F824C002434748E0
:103CB80032430840216918600A4319684FF220000E
:103CC800434E0A4342EA0C5242EA08023A43414F41
:103CD8001A605968E2690E40216B1143626B5E609D
:103CE80011435E68626E3143E66D3243266E596059
:103CF80032439968666D0F40A16D013E01399F609E
:103D080032439E6842EA0122A16E3243E66E9A600F
:103D180041EA0602D968666F0840216F42EA064206
:103D28001E4E0139D860D868B34242EA012242EAFD
:103D38000002DA600FD0224A93420CD000230122FD
:103D4800C4F89430184684F8903084F89120BDE87F
:103D5800F081012070476B6C94F8382023F0010340
:103D6800012A6B64EAD1D4E90F23013A43EA02132A
:103D78006B646B6C43F001036B64DFE7E16C1A431F
:103D880060690A43E16A23680A43A669196802431D
:103D9800114832430840D4E909C18CE7045801406E
:103DA8000054005800580140000000241BECCB953B
:103DB800005C014024580140045C0140046001405B
:103DC8000454005824540058CDCCCCCC10C005F075
:103DD800F01FFFFF0080F8FF10C005F8012B14BF8B
:103DE80000274FF400774AE7194D9DE64FF48068A5
:103DF800F5E639464FF40068F1E601464FF40068ED
:103E0800EDE6626D02FB03F3B0FBF3F321E74FF439
:103E1800007001F0E1FE226801E74FF4007001F044
:103E2800DBFE2268F3E64FF4807001F0D5FE2268CD
:103E3800E5E64FF4006001F0CFFEF8E64FF480604D
:103E480001F0CAFE2268EEE64FF00008C7E600BFA0
:103E580000600140F0B4042904D8DFE801F0272706
:103E6800270606000120F0BC7047456800244FF47F
:103E78000036036735F002054FF4802544640CBF13
:103E88000127274604294FF6FF7107650CBF012754
:103E98000D27C464C465876584664167C0E91865F1
:103EA800032ADFD8DFE802F03B352E2545680024D9
:103EB800036735F002054464C4644FF4803508BFD5
:103EC800264684664FF6FF7418BF0126C565446709
:103ED80013F001040665C5D14D1E012D26D84FF4F7
:103EE8000035C0E91854032ABCD8DFE802F0524371
:103EF80033295B01E021802243658164C266F0BCFE
:103F0800FFF7DABD5B01C021802243658164C26688
:103F1800F5E780225B0182644365C266EFE71B0117
:103F28008021402243658164C266E8E74FF480251A
:103F3800C0E91845032A95D8DFE802F02B1C0C02CB
:103F48005B08E02480219A0184645B01C166C0E9B2
:103F58001523D4E75B08C025802402294FEA831281
:103F680085644FEA4313C466C0E91523C7D1082303
:103F78008366C4E75B08802202294FEA83148264BF
:103F88004FEA4313C266C0E91543B8D110238366CC
:103F9800B5E75B08802440215A0184641B01C1668F
:103FA800C0E91523ABE700BF2DE9F843894604466D
:103FB800904603F017F9B9F1000F69D0B8FA88F6FE
:103FC8007609002E64D194F89150EDB2012D5BD1A1
:103FD80094F89030012B57D0074630464FF0120C1A
:103FE800D4F8802068F30F00C4F8946084F891C076
:103FF800494668F31F40DFF8D8C084F8905043461C
:10400800E0671046C4F87890DFF8C8E0C2F840C00E
:10401800DFF8C4C01665C2F83CE0C2F84CC022689C
:104028001C3202F027FC00283FD1626C6368082A22
:1040380032D0052161209A1E2368012A98BF0146C3
:104048001A690A431A611A6842F400321A605A69F6
:1040580012F4E02F05D02DE023685A6912F4E02FFE
:1040680028D103F0BFF8C01BB0F57A7FF4D9D4F893
:1040780094300022032543F0400384F8902028461A
:10408800C4F89430BDE8F88302252846BDE8F883D3
:1040980001252846BDE8F88323F00202012A0BBF58
:1040A8001521052171206120C5E784F89060284614
:1040B800BDE8F8831A68D20303D41A6842F4803240
:1040C8001A60002584F890502846BDE8F88300BFA0
:1040D80029420008C5410008A5420008F8B5002992
:1040E80053D0B2FA82F77F09002F4ED190F8916031
:1040F800F6B2012E46D190F89030012B42D00446FA
:10410800154638464FF0220CA1670A4665F30F00A2
:10411800D4F884102B46C4F8947065F31F40234DDF
:1041280084F891C0E067084684F89060DFF884C09E
:104138000D641F4D0F65C1F83CC0CD6421681C316A
:1041480002F098FB20BB23681A68D20303D41A68CC
:1041580042F480321A60616C626808291CD005201C
:104168006125023A1969012A98BF284600250143AA
:104178002E46196130461A6842F400321A6084F8F3
:104188009050F8BD02263046F8BD01263046F8BDED
:1041980084F890703046F8BD22F0020101290BBF67
:1041A8001520052071256125DBE700BF9542000831
:1041B800A542000835420008704700BF38B5C369FA
:1041C800806BB3F5807F19D003680022446C1968AE
:1041D800082CA0F87E2021F400314268196010D024
:1041E8006FF061056FF00504023A1969012A98BF5A
:1041F8002C4601252140196180F89150FFF7DCFF1A
:1042080038BD22F0020101290BBF6FF071056FF074
:1042180061056FF015046FF00504E5E7704700BF0E
:1042280008B5806BFFF7FAFF08BD00BF38B5C36952
:10423800806BB3F5807F19D003680025446C19683A
:10424800082C426821F400311960A0F87E5010D083
:104258006FF061056FF00504023A1969012A98BFE9
:104268002C4601252140196180F89150FCF70CFD7E
:1042780038BD22F0020101290BBF6FF071056FF004
:1042880061056FF015046FF00504E5E708B5806B6C
:10429800FCF74AFC08BD00BF704700BF10B5846B2F
:1042A80002F0F8FE02282BD0D4F89430216843F0AD
:1042B8008003174A1748C4F894300B68126823F42F
:1042C8000033A0FB02020B600868120B20F4803058
:1042D80093000860AAB10A68D20308D50A68023BAD
:1042E800D00304D56BB10A68013BD203FAD401228A
:1042F8000023204684F89120A4F87E30FFF7CCFFF5
:1043080010BDD4F8943043F04003C4F89430EEE77D
:10431800000000241BECCB95002800F0EE81F8B5D6
:1043280003680446D80730D5B3490A69896A02F098
:104338003802102A00F00681182A00F0FE8063680F
:10434800B3F5803F00F02681002B00F06481B3F5BF
:10435800A02FA94B1A6800F0448222F480321A6018
:104368001A6822F480221A6002F03CFFA24D074628
:1043780041F2883605E002F035FFC01BB04200F27A
:1043880048812B689A03F6D52368980700F189803D
:10439800D90630D5984A1369926A03F03803082B76
:1043A80000F0E080182B00F0D880E369002B00F0C3
:1043B8007181914B1A681D4642F080021A6002F022
:1043C80011FF064605E002F00DFF801B022800F2EF
:1043D80020812B68DB05F6D502F01CFF41F20303B0
:1043E800984200F220826B68226A23F0F84343EA7D
:1043F80082636B6023681D0717D56369002B00F083
:1044080023817D4B5A6F1D4642F001025A6702F024
:10441800E9FE064605E002F0E5FE801B022800F2F0
:10442800F8806B6F9807F6D523689A0617D5A369A5
:10443800002B00F01C81704B1A681D4642F4805214
:104448001A6002F0CFFE064605E002F0CBFE801BA4
:10445800022800F2DE802B689F04F6D523685907EE
:1044680000F19E80636AD3B1634A116901F0380193
:10447800182970D0022B136800F0498123F080734B
:104488001446136002F0AEFE054605E002F0AAFEEF
:10449800401B022800F2BD8023689B01F6D400204F
:1044A800F8BD554A1369926A13F038032AD1524B62
:1044B800E1681B685A0701D500294CD04E4A136899
:1044C800154623F019030B43136002F08BFE0646D2
:1044D80005E002F087FE801B022800F29A802B6814
:1044E8005B07F6D502F096FE41F203032269984273
:1044F8006B6800F2FB8023F47C3343EA02336B6081
:10450800236845E7182B00F0ED80E268002A00F0E8
:10451800D58039490B680D4623F0190313430B6006
:1045280002F060FE064604E002F05CFE801B0228F2
:104538006FD82B685F07F7D5D4E701F0030102298C
:104548007FF4FDAE2C4A126891037FF51EAF6268B6
:10455800002A7FF41AAF0120F8BD02F00302012AF5
:104568007FF423AF244B1B68DA0502D5E369802B5F
:10457800F1D102F04FFE41F203031F4A9842216A2B
:1045880000F2BD80536823F0F84343EA8163536027
:10459800236830E7184A136843F480331360E3E66E
:1045A800164B1A681D4642F480721A6002F01AFE11
:1045B800064604E002F016FE801B642829D82B6802
:1045C800DA05F7D5A368012B00F03681002B00F03F
:1045D8001081052B084B1A6F00F0348122F001027C
:1045E8001A671A6F22F004021A6702F0FBFD024DE7
:1045F800074641F2883608E000440258004802584D
:1046080002F0F0FDC01BB04203D82B6F9B07F7D513
:1046180028E70320F8BD8F4B41F288371A681D46FA
:1046280022F480321A601A6822F480221A6002F09A
:10463800D9FD064604E002F0D5FD801BB842E8D853
:104648002B689B03F7D49FE6824B5A6F1D4622F0D6
:1046580001025A6702F0C6FD064604E002F0C2FDF8
:10466800801B0228D5D86B6F9907F7D4DCE6794B05
:104678001A681D4622F480521A6002F0B3FD0646FD
:1046880004E002F0AFFD801B0228C2D82B68980412
:10469800F7D4E3E66F4B1A681D4622F080021A60D1
:1046A80002F0A0FD064604E002F09CFD801B0228F3
:1046B800AFD82B68DF05F7D423689CE6654B1A68EA
:1046C8001D4622F001021A6002F08CFD064604E045
:1046D80002F088FD801B02289BD82B685807F7D466
:1046E800236855E691077FF410AFE0E623F0FE4318
:1046F80043EA02636B6023684AE601207047D36887
:1047080023F07C5343EA0163D360236873E623F004
:1047180080731546136002F065FD064605E002F059
:1047280061FD801B02283FF674AF2B689901F6D40F
:10473800AA6A494BA06A1340E26A48490343454EB6
:1047480043EA0213AB62276BD4E90D32013F501ED6
:10475800013BE26BC7F308075B020004013A9BB216
:1047680000F4FE001206034302F0FE423B431343EB
:104778002B63EB6A23F00103EB626A6BA36C1140B5
:1047880041EAC3016963EB6A226C23F00C0313430B
:10479800EB62EB6A626C23F002031343EB62EB6A91
:1047A80043F48033EB62EB6A43F40033EB62EB6A69
:1047B80043F48023EB62EB6A43F00103EB622B685E
:1047C80043F080732B6002F00DFD044605E002F013
:1047D80009FD001B02283FF61CAF33689A01F6D585
:1047E8005DE642F480221A601A6842F480321A6048
:1047F800BAE5184B41F288371A6F1D4622F00102BC
:104808001A671A6F22F004021A6702F0EBFC0646D8
:1048180005E002F0E7FC801BB8423FF6FAAE2B6FCA
:104828009807F6D41EE6EB68226A23F07C5343EA25
:104838000263EB602368DEE5064A136F43F0010369
:104848001367D2E642F004021A671A6F42F00102B7
:104858001A67CAE6004402580CFCFFFF0700FFFF76
:104868003E4A136903F03803102B04D0182B0DD0DF
:104878001BB13B4870473B4870471368990647D5BA
:1048880013683948C3F3C103D8407047916A906AE6
:10489800D36AC0F3051010B4546BB0B3C4F3CC049E
:1048A80003F0010301F0030107EE900A03FB04F390
:1048B8000129F8EEE77A07EE103ABAEEE97A29D03C
:1048C80059B3022926D1DFED295AC5EEA76A136B21
:1048D800C3F3080307EE903AB7EE006AF8EEE77AFA
:1048E80037EE877A37EE067A27EE267A1B4B1B6B54
:1048F800C3F34623013307EE903AF8EEE76AC7EEB2
:10490800267AFCEEE77A17EE900A5DF8044B7047BA
:1049180015487047DFED165AD7E713689B061AD576
:104928001068B7EE005A1049C0F3C100136BC140BC
:10493800C3F3080306EE901AF8EEE65A06EE903A2C
:10494800B8EEE66AC5EEA76A36EE077A37EE057A5C
:1049580026EE877ACAE7DFED075AB6E70044025821
:1049680000093D0040787D010090D00320BCBE4B7B
:104978000024744A0024744C78B1864A136803F002
:104988000F038B420BD2136823F00F030B43136002
:10499800136803F00F038B4201D0012070470368AE
:1049A8002DE9F0415D070BD57B4C0569A26902F042
:1049B8007002954204D9A26922F070022A43A261CA
:1049C8001C070BD5744C4569E26902F070029542E8
:1049D80004D9E26922F070022A43E261DA060BD5B3
:1049E8006D4C8569E26902F4E062954204D9E26996
:1049F80022F4E0622A43E2619F060BD5664CC56942
:104A0800226A02F07002954204D9226A22F07002EA
:104A18002A4322629E0704460D4603F0010257D539
:104A28005D4EC068B16901F00F01884204D9B169CF
:104A380021F00F010143B161002A30D0564AA16824
:104A4800936923F470630B439361616813680229C7
:104A580000F09680032900F08F80012900F09680ED
:104A68005F0732D54C4A41F288381369164623F05D
:104A780007030B43136102F0B5FB074604E002F09D
:104A8800B1FBC01B40457FD83369626803F0380327
:104A9800B3EBC20FF3D123689E0706D5E0683E4901
:104AA8008A6902F00F02824260D83A490A6802F025
:104AB8000F02AA420FD90A6822F00F022A430A609D
:104AC8000A6802F00F02AA4205D00120BDE8F08171
:104AD800002AB3D1E9E758070BD52F4920698A691D
:104AE80002F07002904204D28A6922F070020243F6
:104AF8008A6119070BD528496069CA6902F07002F2
:104B0800904204D2CA6922F070020243CA61DA06EE
:104B18000BD52149A069CA6902F4E062904204D227
:104B2800CA6922F4E0620243CA619B060BD51A4A9D
:104B3800E169136A03F07003994204D2136A23F0FF
:104B480070030B431362FFF78BFE134B13499B69EA
:104B5800134AC3F30323CB5C03F01F0320FA03F3C8
:104B68000F20BDE8F041136002F0DCBA8A6922F038
:104B78000F021043886198E79A013FF573AFA4E7E5
:104B880098033FF56FAFA0E703209FE7DB053FF5EC
:104B980069AF9AE70020005200440258587600088E
:104BA8000000002408B501F0E3F8064B06499B69AC
:104BB800064A03F00F03CB5C03F01F03D8401060D4
:104BC80008BD00BF004402585876000804000024BD
:104BD8003B4AF8B5936A03F00303032B69D01368C3
:104BE8000F460646144623F08063136002F0FAFA73
:104BF800054604E002F0F6FA401B022857D823685D
:104C08001A01F7D4A36A326823F47C332D4943EAA6
:104C18000233A3627568D6E90232013D501E013B9A
:104C28003269C5F308055B020004013A9BB200F43F
:104C3800FE001206034302F0FE422B431343A36314
:104C4800E36A726923F0C0031343E362E36AB2695B
:104C580023F020031343E362E36A23F01003E362C3
:104C6800E26BF369114041EAC301E163E36A43F08F
:104C78001003E362E36AF7B1012F0CBF43F480131A
:104C880043F40013E3620E4B1A681C4642F080623C
:104C98001A6002F0A7FA054604E002F0A3FA401BE6
:104CA800022804D823681B01F7D50020F8BD03208B
:104CB800F8BD0120F8BD43F40023E362E3E700BF39
:104CC800004402580700FFFF3B4AF8B5936A03F017
:104CD8000303032B69D013680F460646144623F0D6
:104CE8008053136002F07EFA054604E002F07AFA77
:104CF800401B022857D823689A00F7D4A36A326861
:104D080023F07C732D4943EA0253A3627568D6E900
:104D18000232013D501E013B3269C5F308055B02B2
:104D28000004013A9BB200F4FE001206034302F0AD
:104D3800FE422B4313432364E36A726923F44063FE
:104D48001343E362E36AB26923F400731343E36233
:104D5800E36A23F48073E362626CF369114041EA09
:104D6800C3016164E36A43F48073E362E36AF7B101
:104D7800012F0CBF43F4000343F08073E3620E4B32
:104D88001A681C4642F080521A6002F02BFA054657
:104D980004E002F027FA401B022804D823689B008D
:104DA800F7D50020F8BD0320F8BD0120F8BD43F475
:104DB8008003E362E3E700BF004402580700FFFFF7
:104DC8002DE9F8430368044613F0006514D0426ED9
:104DD800B2F5801F00F0C6841AD9B2F5001F00F0A2
:104DE800B983B2F5401F40F02F8399480025016D23
:104DF80021F440110A430265DE0513D5626D042AC9
:104E08000FD8DFE812F08204890476042704270407
:104E1800002A40F019838E48C16A41F40031C1620A
:104E2800E3E701252E4698051BD5A26D802A00F0E0
:104E3800B38400F2A180002A00F0A983402A40F040
:104E4800A2800021201DFFF7C3FE23680646002E1E
:104E580040F073837E49A06D0A6D22F4E07202432C
:104E68000A6559051FD5D4F8A420B2F5800F00F0C3
:104E78008A8400F28B80002A00F08383B2F5001F39
:104E880040F08C800021201DFFF7A2FE2368064613
:104E9800002E40F054836E49D4F8A4008A6D22F4A1
:104EA800600202438A651A051DD5D4F8A820B2F11C
:104EB800007F00F04E8474D8002A00F05C83B2F1C1
:104EC800807F74D10021201DFFF782FE23680646EB
:104ED800002E40F02E835E49D4F8A8008A6D22F097
:104EE800E06202438A659F010BD5A26C102A00F08C
:104EF800BD8368D9202A00F02483302A65D0012593
:104F08002E46D8041BD5E26DB2F5005F00F032845E
:104F180050D8002A00F02983B2F5805F50D10021D3
:104F2800201DFFF755FE23680646002E40F0038338
:104F38004749E06D0A6D22F4E04202430A6599048C
:104F480059D5226EB2F5003F00F0A28348D842B18D
:104F5800B2F5803F4DD10121201DFFF739FE2368AE
:104F68000646002E40F038833949206E0A6D22F437
:104F7800E02202430A653EE0C02A3FF468AFB2F57A
:104F8800807F3FF464AF01252E466AE7B2F5C00F73
:104F98003FF47EAFB2F5000F3FF47AAF01252E46FD
:104FA80081E7B2F1407F93D0B2F1806F90D00125B4
:104FB8002E4698E7B2F5405FB7D0B2F5804FB4D02F
:104FC80001252E46BBE7002A99D1002E40F0ED823C
:104FD8001F49A06CCA6C22F030020243CA6490E7F1
:104FE800B2F5802FBDD0B2F5A02FBAD0B2F5403FB0
:104FF800B7D001252E465A0437D5D4F8AC20B2F1E3
:10500800005F00F0578325D842B1B2F1805F2AD102
:105018000121201DFFF7DCFD23680646002E40F025
:10502800DD820B491F04D4F8AC008A6D22F0E042FF
:1050380042EA00028A651AD4D80128D5626C032A8C
:1050480000F2F583DFE812F0A001F4029A01A00152
:1050580000440258B2F1804FE0D0B2F1A04FDDD049
:10506800B2F1405FDAD001252E461F04E4D5E26E86
:10507800B2F1805F00F01683B2F1005F00F0D381D7
:10508800002A00F0D6810125D8012E46D6D459022F
:1050980000F18781DF0739D5A26F282A00F28583BE
:1050A800DFE812F030008303830383038303830361
:1050B80083038303CE02830383038303830383036E
:1050C8008303830329008303830383038303830305
:1050D80083038303300083038303830383038303EE
:1050E80083038303300083038303830383038303DE
:1050F800830383033000012104F12400FFF7E4FD5A
:1051080023680646002E00F06D823546980716D5AE
:10511800626F052A00F28E83DFE812F00D0080022C
:1051280006000D000D000D00012104F12400FFF719
:10513800CBFD23680646002E00F02F82354659071E
:1051480017D5D4F89020052A00F27783DFE812F00B
:105158000D005C0206000D000D000D00012104F198
:105168002400FFF7B1FD23680646002E00F02782D1
:1051780035469A061DD5D4F88C20B2F1005F00F0B0
:105188007D8200F285814AB1B2F1805F40F08C8166
:105198000021201DFFF71CFD23680646002E40F065
:1051A8001982B949D4F88C004A6D22F0E0420243D2
:1051B8004A655F061DD5D4F89820B2F5006F00F057
:1051C800838200F252814AB1B2F5806F40F0598172
:1051D8000021201DFFF7FCFC23680646002E40F046
:1051E800FF81A949D4F898008A6D22F4E05202435D
:1051F8008A6518061DD5D4F89C20B2F5804F00F0BA
:105208006D8200F223814AB1B2F5005F40F02A8135
:105218000021201DFFF7DCFC23680646002E40F025
:10522800D7819949D4F89C008A6D22F460420243E0
:105238008A6519070BD5D4F88010B1F5805F00F0A6
:1052480072829148426D22F440520A434265DA065E
:105258000BD5D4F89410B1F5807F00F06F828A489E
:10526800826D22F440720A4382651F030ED5D4F87A
:10527800A010B1F5803F00F03C81B1F5003F00F08F
:105288003F81002900F0A18201252E4658030FD541
:10529800D4F88420B2F5001F00F01981B2F5401F40
:1052A80000F01C81B2F5801F00F0988201252E467F
:1052B800D90317D5E26C002A00F09E81B2F5803F31
:1052C80040F034810221201DFFF782FC0646236846
:1052D800002E40F08F816C49E06CCA6C22F4803259
:1052E8000243CA649A0000F116819F0335D4281C32
:1052F80018BF0120DE0206D56349256F0A6D22F02A
:1053080000422A430A65DD0007D55F49D4F8B45046
:105318000A6922F480422A430A61990206D55A4949
:10532800A56E0A6D22F080722A430A655A0009D5D3
:10533800554A116921F4004111611169D4F8B85036
:1053480029431161002B06DA4F4A216DD36C23F0F3
:1053580040530B43D364BDE8F883E26FB2F5807F16
:1053680000F02A8240F2A380B2F5007F00F0A2800C
:10537800B2F5407F00F09E800120BBE70221201D8E
:10538800FFF726FC23680646002E40F016813E49AA
:10539800606CCA6C22F003020243CA6459027FF5AA
:1053A80079AE3A4B1A681F4642F480721A6001F0CF
:1053B80019FF804606E001F015FFA0EB08006428FD
:1053C80000F2F6813B68DA05F5D5002E40F02C8214
:1053D8002D4AD4F8B030116F594011F4407F0BD0EA
:1053E800116F106F21F4407140F480301067106F16
:1053F80020F4803010671167B3F5807F00F0F781E3
:1054080003F44072B2F5407F00F004821E490A6935
:1054180022F47C520A611C4AC3F30B03116F0B433D
:105428001367236836E60121201DFFF7D1FB2368A7
:105438000646002E40F0BF801349E06E0A6D22F048
:10544800405202430A65F7E50125D5E4B2F5004F5D
:105458003FF4E4AEB2F5204F3FF4E0AEB2F5C04FF2
:105468003FF4DCAE01252E46E3E6B2F5805F3FF45B
:10547800B5AEB2F5A05F3FF4B1AEB2F5406F3FF400
:10548800ADAE01252E46B4E6004402580048025845
:10549800B2F1804F3FF482AEB2F1A04F3FF47EAE3E
:1054A800B2F1405F3FF47AAE01252E4681E6002A2C
:1054B8007FF462AF002E7FF45FAFAD4E281C716D94
:1054C80018BF012021F440710A43726512E70121D7
:1054D80004F12400FFF7F8FB23680646002E68D184
:1054E800A349D4F884004A6D22F4401202434A6565
:1054F800DEE6022104F12400FFF7E6FB23680646F6
:10550800002E54D19A49D4F8A0008A6D22F4403272
:1055180002438A65BAE6022104F12400FFF7D4FBAE
:10552800236800283FF4E1AE0125DEE601252E467A
:10553800D8E63546D7E4354601E5354691E43546A3
:10554800B1E40221201DFFF743FB06462368002E25
:105558002BD13DE502212430FFF7B6FB0546236831
:10556800002D7FF449AC626E3FE48149CA6A42F477
:105578000032CA62D9E47E49CA6A42F40032CA6279
:10558800A6E47B49CA6A42F40032CA6280E47849D8
:10559800CA6A42F40032CA6259E47549606F4A6DBA
:1055A80022F0070202434A65C9E53546A9E43546B3
:1055B8006CE635467CE635463EE5354667E56C499A
:1055C800D4F890008A6D22F0070202438A65D0E57C
:1055D80035462EE63546ECE535460CE5354644E5D8
:1055E800354606E66249A06F4A6D22F0380202434A
:1055F8004A658BE5354675E65D49CA6A42F400326C
:10560800CA62002EF6D166E60121201DFFF7E0FAF6
:1056180006462368002E7FF4ABADD0E70121201D9C
:10562800FFF7D6FA06462368002E7FF487ADB4E765
:105638004F49CA6A42F40032CA62002EBDD1A6E6BA
:105648000121201DFFF7C4FA06462368002E7FF4C7
:105658005CADC7E72E46002E54D14549606D0A6DF2
:1056680022F0070202430A65FFF7DDBB4049CA6A18
:1056780042F40032CA62002E97D1A9E4022104F153
:105688002400FFF721FB06462368002EA2D188E5F7
:10569800012104F12400FFF717FB06462368002EBA
:1056A8009AD161E43249CA6A42F40032CA62002ED1
:1056B80081D1C1E6012104F12400FFF705FB06466C
:1056C8002368002E8AD1ACE4022104F12400FFF7FC
:1056D800FBFA06462368002E82D182E5022104F1F6
:1056E8002400FFF7F1FA06462368002E7FF470AF16
:1056F80097E5002104F12400FFF7E6FA064623683F
:10570800002EAAD03546FFF78EBB19492E46CA6A25
:1057180042F40032CA629EE70021201DFFF758FAC2
:105728002368064697E7022104F12400FFF7CCFA24
:10573800236800283FF48BAD012588E5022104F198
:105748002400FFF7C1FA236800283FF48EAD012535
:105758008BE5002104F12400FFF7B6FA236806461A
:10576800FFF7B6BB02210430FFF732FA0546F6E62A
:1057780000440258002104F12400FFF7A5FA236829
:105788000646FFF7D2BB002104F12400FFF79CFA7C
:1057980023680646FFF77CBB002104F12400FFF7CD
:1057A80093FA23680646FFF752BB01252E46ADE45F
:1057B800032523682E466DE42148C16A41F400316F
:1057C800C162002E7FF4D8AD77E6201DFFF700FAFE
:1057D80006462368002E7FF4EAAE93E61849CA6AA3
:1057E80042F40032CA62002E7FF4E3AE78E601F09C
:1057F800F9FC134F814641F2883805E001F0F2FCCC
:10580800A0EB09004045D3D83B6F9B07F6D5D4F8E9
:10581800B030F5E50A480B4A016902EA131221F48F
:105828007C510A430261F6E52368354632E40125D6
:105838002E462CE401252E4681E401252E4698E4C7
:1058480000440258CFFFFF00464A30B4946A936A76
:10585800D16AC3F30533D56B002B5DD0C5F3CC05F6
:1058680001F0100104F0030407EE903A01FB05F182
:10587800012CF8EEE77A06EE901AFAEEE96A48D0BB
:10588800002C4ED0022C44D19FED377A87EE276A40
:10589800936BC3F3080307EE903AF7EE005AB8EE9D
:1058A800E77A77EE267A77EEA57A67EE867A2D4A3A
:1058B800B7EE006A936BC3F3462306EE903AF8EE10
:1058C800E66A30BC76EE866A87EEA67ABCEEC77AC0
:1058D80080ED007A936BC3F3064306EE903AF8EE38
:1058E800E66A76EE866A87EEA67ABCEEC77A80ED1F
:1058F800017A936BC3F3066307EE103AB8EEC77AE2
:1059080037EE067AC7EE876AFCEEE66AC0ED026AF1
:1059180070479FED167AB9E7C0E90033836030BC61
:10592800704713689B061AD51468B7EE005A1049D9
:10593800C4F3C104936BE140C3F3080307EE101AE4
:10594800F8EEC75A07EE103AB8EEC76A85EEA77A9E
:1059580076EE267A77EE857A67EE277AA7E79FEDC7
:10596800057A93E70044025820BCBE4B0024744AD1
:105978000090D0030024744C464A30B4946A936A69
:10598800D16AC3F30553556C002B5DD0C5F3CC0524
:1059980001F4807104F0030407EE903A01FB05F16D
:1059A800012CF8EEE77A06EE901AFAEEE96A48D08A
:1059B800002C4ED0022C44D19FED377A87EE276A0F
:1059C800136CC3F3080307EE903AF7EE005AB8EEEB
:1059D800E77A77EE267A77EEA57A67EE867A2D4A09
:1059E800B7EE006A136CC3F3462306EE903AF8EE5E
:1059F800E66A30BC76EE866A87EEA67ABCEEC77A8F
:105A080080ED007A136CC3F3064306EE903AF8EE85
:105A1800E66A76EE866A87EEA67ABCEEC77A80EDED
:105A2800017A136CC3F3066307EE103AB8EEC77A2F
:105A380037EE067AC7EE876AFCEEE66AC0ED026AC0
:105A480070479FED167AB9E7C0E90033836030BC30
:105A5800704713689B061AD51468B7EE005A1049A8
:105A6800C4F3C104136CE140C3F3080307EE101A32
:105A7800F8EEC75A07EE103AB8EEC76A85EEA77A6D
:105A880076EE267A77EE857A67EE277AA7E79FED96
:105A9800057A93E70044025820BCBE4B0024744AA0
:105AA8000090D0030024744C464A30B4946A936A38
:105AB800D16AC3F30513556B002B5DD0C5F3CC0534
:105AC80001F0010104F0030407EE903A01FB05F12F
