:020000040800F2
:10000000000002207D040008CD040008CD04000893
:10001000CD040008CD040008CD0400080000000055
:10002000000000000000000000000000CD040008F7
:10003000CD04000800000000CD040008750D000884
:10004000CD040008CD040008CD040008CD0400084C
:10005000CD040008CD040008CD040008CD0400083C
:10006000CD040008CD040008CD0400084D070008A9
:1000700059070008350700086507000871070008E0
:10008000CD040008CD040008CD040008CD0400080C
:10009000CD040008CD040008CD040008CD040008FC
:1000A000CD040008CD040008CD040008CD040008EC
:1000B000CD040008CD040008CD040008CD040008DC
:1000C000CD040008CD040008CD040008CD040008CC
:1000D000CD040008CD040008CD040008CD040008BC
:1000E000CD040008CD04000800000000CD04000885
:1000F000CD040008CD040008CD040008CD0400089C
:10010000CD040008CD040008CD040008CD0400088B
:10011000CD040008CD040008CD040008CD0400087B
:10012000CD040008CD040008CD040008CD0400086B
:10013000CD040008CD040008CD040008CD0400085B
:1001400000000000000000000000000000000000AF
:10015000CD040008CD040008CD040008CD0400083B
:10016000CD040008CD040008CD040008CD0400082B
:10017000CD040008CD040008CD040008CD0400081B
:10018000CD040008CD040008CD040008CD0400080B
:10019000CD040008CD040008CD040008CD040008FB
:1001A000CD040008CD040008CD040008CD040008EB
:1001B000CD040008CD040008CD040008CD040008DB
:1001C000CD040008CD040008CD040008CD040008CB
:1001D000CD040008CD040008CD040008CD040008BB
:1001E000CD040008CD040008CD040008CD040008AB
:1001F000CD040008CD040008CD040008CD0400089B
:10020000CD040008CD040008CD040008CD0400088A
:10021000CD040008CD040008CD040008CD0400087A
:10022000CD040008CD040008CD0400080000000043
:10023000CD040008CD04000800000000CD04000833
:10024000CD040008CD040008CD040008CD0400084A
:10025000CD040008CD040008CD040008CD0400083A
:10026000CD040008CD040008CD040008CD0400082A
:10027000CD040008CD040008CD04000800000000F3
:10028000CD040008CD040008CD04000800000000E3
:0802900000000000CD0400088D
:1002980010B5054C237833B9044B13B10448AFF3B8
:1002A80000800123237010BD7800002400000000A6
:1002B8009802000808B5034B1BB103490348AFF384
:1002C800008008BD000000007C000024980200089F
:1002D800002A5FD0013A2DE9F04F2F4F05460C4612
:1002E80022F00109BB460026DFF8C0802DED068B01
:1002F80087B0DFED2AAA9FED2AAA0DF10C0ADFEDDF
:10030800299A9FED299A0020083500F08BF9F0EE24
:100318004A7A02200834E0EE2A7AC7ED007A00F023
:1003280081F9F0EE497A0320E0EE297AC7ED017AE7
:1003380000F078F9042088ED000A00F073F955ED13
:10034800028A15ED018A02AB60EE287A05AA20EE32
:10035800080ACDF800A004A95846CDED047A8DED21
:10036800050A05F0E1FDD8ED006AB31C9DED027A9F
:100378004E45DDED037A1E46A6EEA87AE6EE887AAB
:1003880004ED027A44ED017ABDD107B0BDEC068BCD
:10039800BDE8F08F704700BF980000249A99593F34
:1003A8009A99193E00A08C46000048439400002406
:1003B80008B5012000F0E2FC01220021104600F0FF
:1003C800D9F90949002000F079FA9FED080A084890
:1003D80005F0F2FC012000F077F800F019F9002090
:1003E80000F078FAFEE700BFD9020008008E3B470C
:1003F8009800002430B4194C0022194BD4F8881006
:10040800184841F47001184DC4F888101C68174941
:1004180044F001041C601A611C68204018609A614D
:10042800DA611A629A62DA621A635A639A63DA6361
:100438001A645A64186820F4802018601A662B68B9
:100448001940B1F1005F02D2094B01221A60034B37
:100458004FF0006230BC9A60704700BF00ED00E0CA
:10046800004402587FEDF6EA0010005C0000FFFF30
:1004780008810051DFF834D0002103E00C4B5B58B1
:10048800435004310B480C4B42189A42F6D30B4A9E
:1004980002E0002342F8043B094B9A42F9D3FFF7E4
:1004A800A9FF05F0C3FEFFF783FF70470000022095
:1004B80060730008000000247800002478000024FD
:1004C80010110224FEE70000494B08224FF4807106
:1004D800F0B50025474C18704FF42010464F8DB0EA
:1004E8005A700126C3F80650C3F80A50C3F80E50D4
:1004F800C3F8025003232261A261E362E660052685
:10050800A18201950495A560257784F83850C4E93F
:100518000070204640F2FF77CDE90255CDE9055538
:10052800CDE90755CDE90955C4E90955C4E90C5584
:1005380001F05CFB01A92046019501F063FC2F4AFC
:10054800062304A92046CDE9042304220023CDE98B
:100558000667CDE9082300F0BFFF294A0C2304A948
:100568002046CDE9042300F0B7FF04A920461AA3CA
:10057800D3E90023CDE9042300F0AEFF214A182374
:1005880004A92046CDE9042300F0A6FF04A92046CB
:1005980013A3D3E90023CDE9042300F09DFF04A9A8
:1005A800204611A3D3E90023CDE9042300F094FFEA
:1005B800154A4FF4867304A92046CDE9042300F0B8
:1005C8008BFF124A4FF4897304A92046CDE904230E
:1005D80000F082FF0DB0F0BD8000501D1200000039
:1005E8000008302E000100002000F0140601000071
:1005F800F8010224480B0224002002400800900C55
:100608001000C0100004002A0080F03E000052C70D
:10061800024903484A78023101F0A0B9F8010224DE
:10062800480B0224072888BF0020044B03EB400333
:100638005B8800EE103ABBEEC80A7047F801022446
:10064800334B0268F0B59A428BB04FF00004CDE905
:100658000444CDE90644089401D00BB0F0BD2D4BFD
:100668000646032004A9D3F8D8204FF480672A4D02
:1006780042F02002C3F8D820D3F8D82002F0200294
:100688000192019AD3F8E02042F00402C3F8E02076
:10069800D3F8E02002F004020292029AD3F8E02094
:1006A80042F00102C3F8E020D3F8E030049003F0F0
:1006B8000103059019480393039B04F02BF8CA2201
:1006C800032304A916480694CDE9042304F022F86C
:1006D800022304A91348049304F01CF8DFF848C067
:1006E80009204FF400614FF400524FF48073AC605E
:1006F800EC60C5E900C02846C5E90844C5E90471AD
:10070800C5E9062304F0D2FAF564AE630BB0F0BD78
:100718000020024000440258AC0B02240008025892
:10072800000002580004025840000240014804F04A
:100738003FBD00BFAC0B02240B4692000146184691
:1007480005F098BD014804F033BD00BFFC0E02243B
:10075800014804F02DBD00BF740F0224014804F0C5
:1007680027BD00BFEC0F0224014804F021BD00BFE3
:10077800540D0224F8B53023474C484D0746C4F8B9
:100788008434C5F8843459BB01280E4684F88D2476
:1007980062D0022871D0424D00F036FB284605F0A1
:1007A8000FF90123C4F890541E4684F88C3431465E
:1007B800384600F0D1FB3B4D30234FF44072002106
:1007C8003948C4F88434256005F062FD4FF4C072DE
:1007D8000021364805F05CFD0023C4F88834F8BDD4
:1007E80085F88D2462B3012A27D1314E00F0E6FA4C
:1007F800102300214BF68032304605F01FF9002304
:10080800C4F89064194685F88C343846254C00F0B5
:10081800E7FB30234FF4407200212648C5F88434A2
:100828002C6005F035FD4FF4C0720021224805F018
:100838002FFD0023C5F88834F8BD95F88C14E4E73B
:100848001B4E00F0BBFA304605F0BAF80121C4F897
:10085800906485F88C14D8E7114D00F0D5FA102370
:100868004BF680322846394684F88C64C4F8905494
:1008780005F0E4F894F88C6499E70D4D00F09EFAC1
:1008880010234BF680322846012105F0D7F8C4F82A
:10089800905484F88C648AE70C020224A00602248F
:1008A800700C0224410700081002022410050224DB
:1008B800240C0224A4060224A409022410B9034B20
:1008C80019607047024B1960704700BF0C02022480
:1008D800A006022408B5602250B90B490B4802F063
:1008E800B9F860220A490B48BDE8084002F018B878
:1008F80009490A4802F0AEF8602209490948BDE8EA
:10090800084002F00DB800BF10020224641002244F
:1009180090030224640E0224A4060224CC0D0224AF
:1009280024080224BC0C022470B501684B4A4C4BC5
:100938004C4C914218BF1C4694F88C3404F5417015
:10094800D4F88424211D012B00EB820542D0A84253
:100958000FD006469FED447A51F8043B1BB207EED0
:10096800903AF8EEE77A67EE877AE6EC017AB542D4
:10097800F2D104F5717523682946984794F88C24B8
:10098800D4F8843404F5C271012A05EB830337D007
:100998009D421ED0DFED356A35489FED367A9FEDD2
:1009A800366A08E0F4EEC77AF1EE10FA4DDBAB4296
:1009B80041F8042B0DD0F5EC017A47F6FE72F4EEFF
:1009C800E67AF1EE10FAEDD80246AB4241F8042B74
:1009D800F1D170BDA842CCD006469FED287A51F8D7
:1009E800043B83F40003A3F5000307EE903AF8EE06
:1009F800E77A67EE877AE6EC017AB542EFD1B8E795
:100A08009D42E6D004F5C074DFED186A1C489FEDDE
:100A1800197A1C4908E0F4EEC77AF1EE10FA0DDBFA
:100A2800AB4244F8042FD4D0F5EC017A0A46F4EE30
:100A3800E67AF1EE10FAEED80246F1E7B0EE676A10
:100A4800BEEEE46A16EE102AEAE767EE867AFDEE55
:100A5800E77A17EE902A12B2A9E700BF04580140BE
:100A6800A00602240C0202240000003804FF7FBF05
:100A78000280FFFF04FF7F3F00FEFF4600000034B6
:100A88007E0080FF82FF7F00F8B502684E4B4F4C16
:100A98009A42D4F8846400F085804D4CD4F88424BC
:100AA80094F88C34B600211D04F54170012B3144B3
:100AB80000EB820543D0A8420FD007469FED457A48
:100AC80051F8043B1BB207EE903AF8EEE77A67EE6E
:100AD800877AE7EC017ABD42F2D104F57175236893
:100AE8002946984794F88C14D4F8842404F5C273E2
:100AF800012905EB82021E4437D095421ED0DFED56
:100B0800366A36499FED367A9FED366A08E0F4EE8C
:100B1800C77AF1EE10FA4EDBAA4246F8043B0DD034
:100B2800F5EC017A47F6FE73F4EEE67AF1EE10FA88
:100B3800EDD80B46AA4246F8043BF1D1F8BDA842CD
:100B4800CBD007469FED287A51F8043B83F4000385
:100B5800A3F5000307EE903AF8EEE77A67EE877A96
:100B6800E7EC017ABD42EFD1B7E79542E6D0043E03
:100B7800DFED196A1D489FED1A7A1D4908E0F4EE69
:100B8800C77AF1EE10FA0FDBAA4246F8043FD5D037
:100B9800F5EC017A0B46F4EEE67AF1EE10FAEED8AF
:100BA8000346F1E732467BE7B0EE676ABEEEE46AD9
:100BB80016EE103AE8E767EE867AFDEEE77A17EE6A
:100BC800903A1BB2A8E700BF045801400C02022467
:100BD800A00602240000003804FF7FBF0280FFFF48
:100BE80004FF7F3F00FEFF46000000347E0080FFC8
:100BF80082FF7F002DE9F047CEB04C220021074646
:100C08000BA805F045FB2022002102A805F040FBB7
:100C1800BC2200211EA805F03BFB022004F022FEA6
:100C28004D4A00214D4B01911846D16A21F001012E
:100C3800D162D26A02F0010201929A6942F44042FA
:100C48009A619B6903F440430193019B83699B0468
:100C5800FCD5434A0224C8204FF0040A936A4FF097
:100C6800210C4FF48035012623F00303052123438B
:100C7800936200230822CDF82CC00C951196189485
:100C88001A9419911D93CDE916A00BA8CDE9144427
:100C9800CDE91B2301F0FCFF00B1FEE74FF03F0850
:100CA8004FF003090022082302A82146CDE9028952
:100CB800CDE904234FF0400840234FF480624FF001
:100CC8004009CDE90823CDE9068902F011FB034666
:100CD80000B1FEE717F0FD0F2249234A4FF06408E0
:100CE80008BF0A462194802122944FF0060C2394D1
:100CF80040F2271E2F96402733944FF480694FF413
:100D080080564FF480741E9200221EA8CDF87CA055
:100D18004695CDF88080249134912997CDF8B090EC
:100D280035964394CDE92533CDE92D33CDE93033DC
:100D3800CDE93B334FF44013CDE92AAACDE927CEBC
:100D4800CDE93E2302F0F8FC00B1FEE704F0B0FD67
:100D58004EB0BDE8F08700BF0004005800480258B4
:100D6800004402580B130D0309130F0308B504F0D0
:100D7800FDFDBDE8084001F019B900BF08B5FFF74F
:100D880039FF04F05FFFBFF34F8FBFF36F8F0A4B3C
:100D98000022C3F85022BFF34F8FBFF36F8F5A69F9
:100DA80042F400325A61BFF34F8FBFF36F8FBDE833
:100DB800084004F0ADBD00BF00ED00E00E4A0F4949
:100DC80038B50F4C0025012310700E4A20462562C5
:100DD800C4E90012C4E90253C4E90455C4E906553C
:100DE80001F0A6F92946204601F0D0FA2946204606
:100DF800BDE8384001F0F4BA340B02240054004036
:100E0800240C0224FFEAC0000E4A0F4938B50F4CE3
:100E18000025012310700E4A20462562C4E90012FD
:100E2800C4E90253C4E90455C4E9065501F080F940
:100E38002946204601F0AAFA29462046BDE838404E
:100E480001F0CEBA340B022400580040700C022482
:100E5800FFEAC00002680023394970B58A428AB0A7
:100E6800CDE90533CDE90733099304D0354B9A42D0
:100E78002DD00AB070BD344C0422344E1225D4F85B
:100E8800E03005A9324843F00203C4F8E030367870
:100E9800D4F8E030022E099203F0020306950CBF45
:100EA8004FF410724FF440720093009B059203F0C8
:100EB80031FCD4F8E83043F40013C4F8E830D4F82F
:100EC800E83003F400130193019B0AB070BD1E4C77
:100ED800122004221025D4F8E03005A943F080033D
:100EE800C4F8E030D4F8E03003F080030293029BAA
:100EF800D4F8E03043F00203C4F8E030D4F8E0302E
:100F0800069003F00203134809920393039B059587
:100F180003F000FC4FF4006305A90D48059303F0A6
:100F2800F9FBD4F8E83043F48003C4F8E830D4F887
:100F3800E83003F480030493049B0AB070BD00BF3B
:100F4800005400400058004000440258340B02246A
:100F580000040258001C02582DE9F04101294FF005
:100F680000041A4D4FF0010714BFA0464FF00208C5
:100F7800174B4BF68036DFF860C04246187028469B
:100F8800597021460223C5F800C02E620226EC6182
:100F9800EC60C5E90174C5E90544C5E90B4401F0F5
:100FA80015FC0C4DDFF834C0424621462846AF6098
:100FB80033466C61EC61EC606C63C5E90B44C5E9D0
:100FC80000C6BDE8F04101F001BC00BF6410022476
:100FD800400B0224640E02240458014024580140A6
:100FE8002DE9F04101294FF00004184D4FF0030698
:100FF80014BF27460227164B164A187028469970C0
:1010080021462A6002233A466E60AC6002266C6173
:10101800EC61EC606C63C5E90B4401F0D7FB0E4D45
:10102800DFF838E04FF0010C3A4621466C6128465B
:10103800EC613346EC606C63C5F800E0C5E90B442D
:10104800C5E9016CBDE8F04101F0C0BBCC0D02243C
:10105800400B0224045C0140BC0C0224245C0140C7
:10106800414BD3F8E02042F010022DE9F043C3F8D9
:10107800E02095B0D3F8E02004463C4802F0100286
:101088000192019AD3F8E02042F00202C3F8E0206E
:10109800D3F8E02002F002020292029AD3F8E0208C
:1010A80042F04002C3F8E020D3F8E02002F040020A
:1010B8000392039AD3F8E02042F00802C3F8E02034
:1010C800D3F8E02002F008020492049AD3F8E02052
:1010D80042F00402C3F8E020D3F8E02002F0040252
:1010E8000592059AD3F8E02042F00102C3F8E02007
:1010F800D3F8E02002F001020692069AD3F8E02025
:1011080042F48072C3F8E020D3F8E010226801F4BA
:101118008071824207910799D3F8E01041F080016D
:10112800C3F8E010D3F8E01001F0800108910899A5
:10113800D3F8E01041F02001C3F8E010D3F8E01034
:1011480001F020010991099918D0094B9A425DD004
:10115800084B9A4200F0A280074B9A4200F0E580C3
:1011680015B0BDE8F08300BF0044025804580140A0
:1011780024580140045C0140245C01409B4A1168EA
:1011880059B9D3F8F00040F48000C3F8F000D3F860
:10119800F03003F480030A930A9B954B01311B78C6
:1011A8001160022B00F00781742602270022002319
:1011B80006250EA98F481295CDE90E67CDE91023B3
:1011C80003F0A8FA8C4D57208C494FF480624FF4F5
:1011D800805368604FF4804029602A614FF4807121
:1011E8004FF400326B610023A86128466B62C5E9A1
:1011F8000712C5E9023303F059FD2268804BC4F891
:1012080084509A42AC63C4F88050A1D1774A1368DD
:1012180063B97C49D1F8F00040F48000C1F8F000CF
:10122800D1F8F01001F480010B910B9901334FF0C4
:1012380008084FF0020900261360002706230EA9AC
:101248006C48714D1293CDE90E89CDE9106703F012
:1012580061FA6E4B582040214FF480622B604FF4A6
:10126800805368604FF48040A9602A614FF4807110
:101278004FF400326B610023A8612846EB606B6273
:10128800C5E9071203F012FD2268614BC4F88450C7
:101298009A42AC63C4F880507FF45EAF5D4B1A6825
:1012A80062B95849D1F8F00040F40000C1F8F000E4
:1012B800D1F8F01001F400010C910C9901324FF4AF
:1012C80060584FF0020900261A6000270A230EA969
:1012D8005148524D1293CDE90E89CDE9106703F0BC
:1012E80019FA4F4859214FF480624FF4805328600F
:1012F8004FF4804069602A614FF480714FF40032E6
:101308006B610023A86128466B62C5E90712C5E92D
:10131800023303F0CBFC2268424BC4F884509A4253
:10132800AC63C4F880507FF41BAF3A4B1A6862B9BB
:101338003449D1F8F00040F40000C1F8F000D1F8C9
:10134800F01001F400010D910D9901324FF00108E0
:101358004FF0020900261A6000270A230EA9324816
:10136800324D1293CDE90E89CDE9106703F0D2F919
:101378002F4B5A2040212B604FF480624FF480534A
:1013880068604FF48040A9602A614FF480714FF47F
:1013980000326B610023A8612846EB606B62C5E9E7
:1013A800071203F083FCC4F88450AC63C4F880507F
:1013B80015B0BDE8F0837022022300260027062519
:1013C8000EA90C481295CDE90E23CDE9106703F05C
:1013D800A1F9802202230EA916481295CDE91067BB
:1013E800CDE90E2303F096F9ECE600BF380B022492
:1013F800400B022400100258FC0E02241000024088
:101408002458014000440258740F02242800024066
:10141800045C01403C0B0224000C0258EC0F02242F
:1014280058000240245C014000000258540D022478
:101438007000024000180258704700BF704700BF94
:1014480008B5806BFFF7FAFF08BD00BF704700BF03
:10145800836B5A6D12F0500F5A6D10B523D119686D
:1014680042F400725A650A6812F0080FCA6814D06C
:1014780012F4406F0DD1CA6894040AD45A6D22F44C
:1014880080725A655A6DD10403D45A6D42F0010234
:101498005A651846FFF7D0FF10BD9007EED01846E2
:1014A800FFF7CAFFF8E7D20604D4DB6CBDE81040AA
:1014B800DB6C18471846FFF7C9FF10BD08B5836BEA
:1014C8005A6D184642F040025A659A6D42F004027D
:1014D8009A65FFF7BBFF08BD90F850300022F0B5C1
:1014E800012B83B0019200F01C81036801229C68E3
:1014F80080F85020660700F18E800C68C4F313054D
:10150800C4F38467002D40F09280BA404C684FF0D5
:101518001F0CDD69A60904EA0C042A4303F130050F
:1015280006F00C060CFA04FCDA6107FA04F47259A6
:1015380022EA0C02224372519A68550775D49D68B5
:1015480015F008054BD10C6803F1140607228F68C3
:101558004FEAD45CC4F304540CF0040C02FA04FE01
:1015680007FA04F4C24F5CF8062022EA0E0222436E
:101578004CF806203A68DC6802F07042B2F1805FED
:101588004A6900F08A8014F0100FDC6800F085804A
:10159800640804F0080402FA04F4D1F810C00E68D4
:1015A800BCF1040F00F0C18003F1600706F0F846B3
:1015B80091F819E057F82C20BEF1010F02F0004213
:1015C80008BF4FF000453243224347F82C200C69EE
:1015D80057F8242022F00042154347F824509A680F
:1015E800D40716D4CE680C6806F01807A14AD3F8B9
:1015F800C050FA40C4F31307DFF8A4C2224025EA1A
:101608000705664542EA0502C3F8C0204BD0002C06
:1016180015DB002203E0436D43F0200343650023FC
:1016280080F85030104603B0F0BD9A68D7E794FAB6
:10163800A4F4B4FA84F404F01F04A24066E78E4AC6
:10164800934200F0B18002F58072934200F0AC80C2
:101658008A4E8B4DAA68B16802F0E076C94301F062
:101668000101002900F0AE8086498C4200F0CD804F
:1016780085498C4200F0EB8084498C42C9D15202E2
:10168800C7D47E4A9342C4D1AB68002223F0E073EA
:10169800334343F48003AB60C1E7C4F382046400BE
:1016A80002FA04F479E7002F5AD094FAA4F2B2FAB5
:1016B80082F2013202F01F02092A00F2898094FAAC
:1016C800A4F2B2FA82F294FAA4F50126B5FA85F5E5
:1016D80001323544920605F01F0502F0F84206FA79
:1016E80005F52A4394FAA4F4B4FA84F4344404F0D3
:1016F8001F0404EB44042405144303F114064FF0BB
:10170800070C8A68E70DC4F3045407F004070CFAC1
:1017180004FCA240BD5925EA0C041443BC510C68D2
:1017280075E70222104603B0F0BD1C6EB20604F045
:10173800F844944233D05C6E04F0F844A24229D0B5
:101748009C6E04F0F844A2421FD0DC6E04F0F8440A
:10175800A2427FF444AFDA6E22F00042DA663EE736
:101768000122A40E144404F01F05A40602FA05F68B
:10177800092D04F0F84205EB450442EA0602BAD9FD
:101788001E3C240544F00074B6E79C6E24F0004427
:101798009C66DAE75C6E24F000445C66D0E71C6E59
:1017A80024F000441C66C6E7394A334E39491546C9
:1017B8009268B768896802F0E0763943C94301F056
:1017C80001014EE7436D012243F02003436526E7FC
:1017D80094FAA4F2B2FA82F294FAA4F50126B5FAC0
:1017E80085F501323544920605F01F0502F0F842EE
:1017F80006FA05F52A4394FAA4F4B4FA84F43444B6
:1018080004F01F0404EB4404BAE711023FF501AFEA
:101818001A4A93427FF4FDAE1F4BAA681B681F4902
:1018280022F0E0729B093243A1FB031342F4000249
:101838009B09AA605B000193019B002B3FF4E9AE72
:10184800019B013B0193019B002BF9D1E1E612F0CA
:1018580080727FF4DEAE09498B427FF4DAAEAB6862
:1018680023F0E073334343F08073AB60D7E600BFE7
:101878000010005CFFFF0F000020024000600258CB
:1018880000630258000084CB000052C70000B8CFA4
:10189800002302400021024000000024632D3E0581
:1018A8000000FF4702689168CB0701D50020704708
:1018B80070B5244904469068084208D0626D01203A
:1018C80042F010026265A26D0243A26570BD916884
:1018D8001D4B0B4043F00103936004F053F8236859
:1018E8001A4A0546934224D002F58072934220D0CA
:1018F800174A92681A68D20722D4134E03E0236865
:101908001A68D1071CD49A68D00704D49A68324060
:1019180042F001029A6004F035F8401B0228EED923
:10192800636D012043F010036365A36D0343A36552
:1019380070BD084A9268D606DCD0074A9342D9D1CE
:10194800002070BD3F000080C0FFFF7F00200240E4
:101958000063025800230240002102402DE9F041B3
:1019680004463A4D0068A84219D005F58075A8428A
:1019780015D0374DAE688068430715D494F85030B9
:10198800012B11D006F01F060123092E84F85030D0
:101998000DD90023012084F85030BDE8F0812D4D89
:1019A800AE6880684307E9D50220BDE8F08140F2BF
:1019B8002120F040C04310EA0305EAD1204617462B
:1019C8008846FFF76FFF00283AD1626D224B2568E1
:1019D800134043F48073636516B1204B9D4203D0D6
:1019E800636D23F480136365636D13F480532BD008
:1019F800A36D23F00603A365E16C1C26DFF868C01D
:101A08003B4617480027C1F83CC04246DFF85CC097
:101A180008640846C1F84CC005F140012E606E68A4
:101A280084F8507046F010066E6003F009FB2268D7
:101A38000C4B91680B4043F004039360BDE8F081C0
:101A480084F85050BDE8F081A365D5E70020024036
:101A58000063025800230240FEF0FFFF002102400D
:101A680049140008C0FFFF7F59140008C514000876
:101A780038B5554A04460368934228D002F5807267
:101A8800934224D0514B9B6813F4403F14BF012369
:101A980000232BB301F042FD63680546B3F5003F10
:101AA80000F08480B3F5403F7ED0B3F5803F7DD011
:101AB80003F080FF41F20303984234D8444A236874
:101AC800954254D99A6842F480729A6038BD414B65
:101AD8009B6813F4403F14BF01230023002BD9D186
:101AE8004FF4002002F034FD63680546B3F5C01FCB
:101AF8002CD021D9B3F5101F60D007D8B3F5E01F5B
:101B080058D0B3F5001FD3D14509D1E7B3F5201F4D
:101B180052D0B3F5301FCBD103F04CFF41F2030391
:101B2800984223D92D0A2C4A2368954224D89A68CA
:101B380022F440729A6038BDB3F5402F06D00AD817
:101B4800B3F5802F02D0B3F5002FB1D19B0C5B0009
:101B5800B5FBF3F5ACE7B3F5801FF7D0B3F5A01FDD
:101B6800A6D19B0C5B00B5FBF3F5A1E723689A6847
:101B780022F480729A6038BD184A19492A448A4268
:101B88000BD9184A18492A448A429A6818D822F464
:101B9800407242F400729A6038BD9A6822F440722A
:101BA80042F480729A6038BD850881E71B0CB5FB4A
:101BB800F3F57DE705097BE7C50979E7850977E747
:101BC80042F440729A6038BD002002400063025817
:101BD800002D310100230240105E5F00EFA1A0FF3D
:101BE8000F5E5F00DF4341FF1FBCBE00F0B500235E
:101BF80083B00193002800F0D180456D0446002D84
:101C080000F0BA8022689368980003D59168714BF8
:101C18000B4093609368D90015D46F4B90681B688C
:101C28006E4D9B096E49A5FB035301409B0941F08A
:101C3800805191600193019B2BB1019B013B019362
:101C4800019B002BF9D19368DB0024D4636D012537
:101C580043F010036365A36D2B43A365936813F0EA
:101C6800040F636D1DD1DF061BD4636D23F48173EC
:101C780043F0020363659368DE0728D4594B9A4200
:101C880017D003F580739A4213D0574B9B68D90736
:101C98001DD4564A15E09368002513F0040F636DB0
:101CA800E1D0636D012543F010032846636503B056
:101CB800F0BD4C4A4E4B92689B681343D80706D434
:101CC8004C4A9368616823F47C130B43936003F0D8
:101CD80071FE41F20303627D9842207F52D851037E
:101CE800A3680604276B43EA070232430A43012824
:101CF80003D1236A013B42EA4342636A23B103F4F6
:101D08007873A16A0B431A4323683B49D86801409A
:101D18000A43DA609A6812F0040F9A681CD1120715
:101D28001AD4D868354A217D0240E06A42EA8132F5
:101D380094F8381002430129DA603BD01A6922F07E
:101D480001021A611A692046616B22F070420A4347
:101D58001A61FFF78DFE2368E268012A22D01A6B08
:101D680022F00F021A63636D284623F0030343F041
:101D78000103636503B0F0BDFEF762FCA56584F856
:101D880050503FE7A36851030604276B102BAAD1D4
:101D980046EA01023A4342F01C02A8E70125284618
:101DA80003B0F0BD196BA26921F00F01013A0A4393
:101DB8001A63D8E71869124ED4E910210640A06CBE
:101DC8000A43E16B3243024342EA014242F0010214
:101DD8001A61B7E7C0FFFF5F00000024632D3E05CE
:101DE800C0FFFF6F002002400060025800630258E5
:101DF800002102400023024003C0F0FFFCBFFFFFA8
:101E08001EF800FC90F85020012AF0B40E6849D062
:101E18000346294A01201C6883F85000944208D0E0
:101E28005A6D002142F0200283F850105A65F0BC28
:101E38007047224DAA6852070AD5A2685A6D012038
:101E480042F020025A65002283F85020F0BC704707
:101E5800A06810F00400F1D1C6B1DFF868C04F687F
:101E6800DCF8082022F440423A43CCF80820A46861
:101E7800AA682243D40713D48A68DCF808401049BA
:101E8800164321400E43CCF80860DCE70D498A6808
:101E980022F440428A60A068AA680243D00704D5A9
:101EA8000020D0E70220F0BC70478C683046044A16
:101EB80022408A60C7E700BF00200240002102409C
:101EC800E0F0FFFF0023024007490002074BCA6801
:101ED80000F4E06010B44FF6FF0422405DF8044BB4
:101EE80010430343CB60704700ED00E00000FA05A3
:101EF800174B30B4DC68C4F30224C4F10705231D72
:101F0800042D28BF0425062B18D9033C4FF0FF33B6
:101F1800A34022EA03024FF0FF33002803FA05F337
:101F280021EA030303FA04F343EA02034FEA031323
:101F3800DBB206DB074A135430BC70470022144654
:101F4800E9E700F00F00044A135430BC704700BFA3
:101F580000ED00E000E400E014ED00E0002807DBFD
:101F680000F01F0101234009024A8B4042F820304B
:101F7800704700BF00E100E00138B0F1807F0DD26A
:101F8800074B0022072130B4F025064C5860104654
:101F980084F823509A60196030BC7047012070475C
:101FA80010E000E000ED00E0704700BF08B5FFF763
:101FB800FBFF08BD70B504460D4616466A1C23682B
:101FC8002CD19A69950727D49A69D006F9D59A69C8
:101FD8009506FCD520221021D961DA619A6990070B
:101FE80001D500229A629A69D10703D49A6942F00E
:101FF80001029A615A6800211F4E202501203240B3
:102008005A60636C84F8401043F00403636484F8F6
:10201800415084F8421070BD002070BD9A69910744
:10202800FAD49A69D1061ED59A699206D2D403F0D9
:10203800A9FC801B854209D345B123689A69920699
:10204800C8D403F09FFC801B8542F5D2636C202125
:10205800002201200B4384F84020636484F8411077
:1020680084F8422070BD03F08DFC801BA842EDD897
:10207800002DA3D1EAE700BF00E800FE70B50446D2
:102088000D46164623689A6992064CD49A69D20678
:1020980026D5681C38D19A699506FCD520221021CE
:1020A800D961DA619A69900701D500229A629A6922
:1020B800D10703D49A6942F001029A615A68002153
:1020C8001A4E2025012032405A60636C84F8401073
:1020D80043F00403636484F8415084F8421070BDEF
:1020E80003F050FC801BA84201D8002DCAD1636CB4
:1020F8002021002201200B4384F84020636484F8E7
:10210800411084F8422070BD9A699206C6D403F043
:1021180039FC801B8542EAD3002DE8D023689A69F0
:102128009106F4D5BAE7002070BD00BF00E800FEB4
:1021380000284DD0F8B590F84130044603F0FF026E
:10214800002B40D02421E568A06884F84110012DB7
:10215800D4E90032196822F0706221F00101196097
:102168001A619A6822F400429A6028D040F4044028
:10217800022D986002D14FF400625A605A6800211B
:1021880014482027A6691043D4E9042558602A4337
:10219800D868E56942EA0622266A20F400403543F9
:1021A800D8600846DA601D601A6842F001021A60B9
:1021B800616484F84170216384F84210F8BD40F4EA
:1021C80000409860DAE780F84020FEF743FEB9E760
:1021D80001207047008000022DE9F04790F8414047
:1021E800089E202C40F08A8090F84040012C00F096
:1021F80085809846012391460F4680F84030044672
:1022080003F0C0FB054604E003F0BCFB401B1928A3
:1022180077D82368986910F40040F5D1102221215D
:10222800C4F82490C7F3090784F8411084F84220C1
:102238006064A4F82A80628D6063FF2A6FD8618D7C
:10224800DFF838C15A6889B24A4802EA0C025FFAD4
:1022580081FC21853A4342EA0C4210435860DFF87A
:1022680024814FF0FF0ADFF82091638D2A4631461A
:1022780020469BB2002B2FD0FFF79CFE002875D17B
:10228800606A216810F8012B238D8A62628D013BF8
:102298006062013A9BB292B223856285628D92B2E6
:1022A800002AE2D0002BE0D1731C42D18B691B06B7
:1022B800FCD5638DFF2B4BD94B682A46A4F828A080
:1022C800204603EA08033B4343EA09034B603146CF
:1022D800638D9BB2002BCFD1FFF7D0FE002845D1EC
:1022E80023682021244DD9615A682A405A6084F80D
:1022F800411084F8400084F8420000E00220BDE864
:10230800F087636C2021002201200B4384F84020D1
:10231800636484F8411084F84220BDE8F0875A6865
:10232800FF20164920850A4015493A431143596050
:1023380095E78B691A06BCD403F024FB401B864240
:10234800DFD3002EDDD021688B691806F4D5B0E7FD
:10235800628D4B6892B203EA0803D0B222853B43F0
:1023680043EA004343F000734B607EE70120BDE879
:10237800F08700BF0020008200E800FE009800FC03
:102388000020FF81009C00FC0000FF01F0B490F8E1
:102398004140E4B2202C1FD190F840200346012A86
:1023A8001AD01A682420002783F841001668384696
:1023B80026F001061660166826F480561660156821
:1023C8000D431560116841F00101116083F8414027
:1023D80083F84070F0BC70470220F0BC704700BF23
:1023E80090F84120D2B2202A1FD1034690F840002D
:1023F80001281AD02420F0B41C68002783F8410073
:102408002668384626F001062660256825F470659A
:1024180045EA01252560216841F00101216083F822
:10242800407083F84120F0BC70470220704700BF1D
:10243800002800F04A812DE9F041044603F0BAFA79
:1024480094F838302268012B17D0B24B9A4226D024
:1024580020339A4223D003F578739A426AD0203306
:102468009A4267D003F578739A4200F07981203355
:102478009A4200F07581A84D12E0A64B9A4205D009
:1024880003F1C053A3F582339A4205D16368012B47
:1024980002D1636C002BD8D00120BDE8F0819F4D9C
:1024A80094F8913003F0FF01002B4AD09C4B9D48D3
:1024B80019681368A0FB010123F48033090B13602A
:1024C8008B00002928D01168C90308D51168023B80
:1024D800C90304D503B31168013BC903FAD4E368FF
:1024E8000221012B84F891101FD08B4215BF0E4694
:1024F8002320032022260BBF21270127202100218A
:10250800A368013B042B00F25B81DFE813F02B0189
:1025180022002E0121003201D4F89430012043F02A
:102528004003C4F89430BDE8F08113201226112727
:102538001021E5E794F891307B4D03F0FF01002B63
:10254800B4D184F890102046FEF78AFD2268ADE7E2
:1025580031464FF40068236A2960002B41D06D4B47
:102568009A4200F01C817148101AB0FA80F04009B4
:10257800002840F014816E4B9A4200F00A81203303
:102588009A4200F006816B4B9A4200F0FC8020339F
:102598009A4200F0F880684B9A4200F00B81674B32
:1025A8009A4200F00281A26900EB8000236AB2F52A
:1025B800002F4FEA400000F0E080A26AB2F1806F7D
:1025C80008BF5B001B02B0FBF3F35D4AA2FB0312DA
:1025D800D20802EB8201A3EB4103092B08BF0132A9
:1025E80062626268236D32F0020740F0B380012B0B
:1025F80018BF4FF4007703F0DDF96368B0F5005FAA
:10260800D4E9111243EA010374D31A43E36CE16A73
:102618001A43A06923680A436169A66A0A431968CC
:10262800D4F824C00243474832430840216918605F
:102638000A4319684FF22000434E0A4342EA0C52FB
:1026480042EA08023A43414F1A605968E2690E406B
:10265800216B1143626B5E6011435E68626E3143A9
:10266800E66D3243266E596032439968666D0F40B5
:10267800A16D013E01399F6032439E6842EA012202
:10268800A16E3243E66E9A6041EA0602D968666F27
:102698000840216F42EA06421E4E0139D860D868C8
:1026A800B34242EA012242EA0002DA600FD0224A2B
:1026B80093420CD000230122C4F89430184684F8C1
:1026C800903084F89120BDE8F081012070476B6C50
:1026D80094F8382023F00103012A6B64EAD1D4E985
:1026E8000F23013A43EA02136B646B6C43F0010356
:1026F8006B64DFE7E16C1A4360690A43E16A2368A7
:102708000A43A66919680243114832430840D4E9CC
:1027180009C18CE704580140005400580058014092
:10272800000000241BECCB95005C014024580140BC
:10273800045C0140046001400454005824540058CB
:10274800CDCCCCCC10C005F0F01FFFFF0080F8FF07
:1027580010C005F8012B14BF00274FF400774AE793
:10276800194D9DE64FF48068F5E639464FF4006848
:10277800F1E601464FF40068EDE6626D02FB03F3F3
:10278800B0FBF3F321E74FF4007001F0E1FE22689B
:1027980001E74FF4007001F0DBFE2268F3E64FF426
:1027A800807001F0D5FE2268E5E64FF4006001F084
:1027B800CFFEF8E64FF4806001F0CAFE2268EEE62C
:1027C8004FF00008C7E600BF00600140F0B40429DC
:1027D80004D8DFE801F02727270606000120F0BC0F
:1027E8007047456800244FF40036036735F002054A
:1027F8004FF4802544640CBF0127274604294FF66F
:10280800FF7107650CBF01270D27C464C465876580
:1028180084664167C0E91865032ADFD8DFE802F05B
:102828003B352E2545680024036735F002054464CE
:10283800C4644FF4803508BF264684664FF6FF749B
:1028480018BF0126C565446713F001040665C5D1A4
:102858004D1E012D26D84FF40035C0E91854032A1F
:10286800BCD8DFE802F0524333295B01E021802223
:1028780043658164C266F0BCFFF7DABD5B01C02125
:10288800802243658164C266F5E780225B01826429
:102898004365C266EFE71B018021402243658164DE
:1028A800C266E8E74FF48025C0E91845032A95D8A1
:1028B800DFE802F02B1C0C025B08E02480219A015F
:1028C80084645B01C166C0E91523D4E75B08C025B1
:1028D800802402294FEA831285644FEA4313C466B1
:1028E800C0E91523C7D108238366C4E75B088022A3
:1028F80002294FEA831482644FEA4313C266C0E98F
:102908001543B8D110238366B5E75B0880244021BE
:102918005A0184641B01C166C0E91523ABE700BFF7
:102928002DE9F84389460446904603F02BF8B9F19F
:10293800000F69D0B8FA88F67609002E64D194F8A9
:102948009150EDB2012D5BD194F89030012B57D006
:10295800074630464FF0120CD4F8802068F30F0079
:10296800C4F8946084F891C0494668F31F40DFF8C2
:10297800D8C084F890504346E0671046C4F8789071
:10298800DFF8C8E0C2F840C0DFF8C4C01665C2F876
:102998003CE0C2F84CC022681C3202F051FB00280F
:1029A8003FD1626C6368082A32D0052161209A1EE3
:1029B8002368012A98BF01461A690A431A611A68EE
:1029C80042F400321A605A6912F4E02F05D02DE063
:1029D80023685A6912F4E02F28D102F0D3FFC01BF4
:1029E800B0F57A7FF4D9D4F894300022032543F067
:1029F800400384F890202846C4F89430BDE8F88352
:102A080002252846BDE8F88301252846BDE8F88355
:102A180023F00202012A0BBF152105217120612034
:102A2800C5E784F890602846BDE8F8831A68D203A1
:102A380003D41A6842F480321A60002584F8905052
:102A48002846BDE8F88300BFA12B00083D2B0008ED
:102A58001D2C0008F8B5002953D0B2FA82F77F0977
:102A6800002F4ED190F89160F6B2012E46D190F821
:102A78009030012B42D00446154638464FF0220CC0
:102A8800A1670A4665F30F00D4F884102B46C4F8F2
:102A9800947065F31F40234D84F891C0E0670846A1
:102AA80084F89060DFF884C00D641F4D0F65C1F88D
:102AB8003CC0CD6421681C3102F0C2FA20BB2368F7
:102AC8001A68D20303D41A6842F480321A60616C1F
:102AD800626808291CD005206125023A1969012A73
:102AE80098BF2846002501432E46196130461A68CA
:102AF80042F400321A6084F89050F8BD022630463D
:102B0800F8BD01263046F8BD84F890703046F8BD0F
:102B180022F0020101290BBF15200520712561252E
:102B2800DBE700BF0D2C00081D2C0008AD2B0008AA
:102B3800704700BF38B5C369806BB3F5807F19D083
:102B480003680022446C1968082CA0F87E2021F440
:102B580000314268196010D06FF061056FF005040C
:102B6800023A1969012A98BF2C46012521401961AA
:102B780080F89150FFF7DCFF38BD22F002010129EF
:102B88000BBF6FF071056FF061056FF015046FF002
:102B98000504E5E7704700BF08B5806BFFF7FAFF4B
:102BA80008BD00BF38B5C369806BB3F5807F19D005
:102BB80003680025446C1968082C426821F4003128
:102BC8001960A0F87E5010D06FF061056FF0050411
:102BD800023A1969012A98BF2C460125214019613A
:102BE80080F89150FDF750FF38BD22F0020101290D
:102BF8000BBF6FF071056FF061056FF015046FF092
:102C08000504E5E708B5806BFDF78EFE08BD00BF3B
:102C1800704700BF10B5846B02F022FE02282BD04B
:102C2800D4F89430216843F08003174A1748C4F851
:102C380094300B68126823F40033A0FB02020B6087
:102C48000868120B20F4803093000860AAB10A6863
:102C5800D20308D50A68023BD00304D56BB10A68D1
:102C6800013BD203FAD401220023204684F89120A4
:102C7800A4F87E30FFF7CCFF10BDD4F8943043F0B1
:102C88004003C4F89430EEE7000000241BECCB9519
:102C9800002800F0EE81F8B503680446D80730D55F
:102CA800B3490A69896A02F03802102A00F00681DD
:102CB800182A00F0FE806368B3F5803F00F0268193
:102CC800002B00F06481B3F5A02FA94B1A6800F01F
:102CD800448222F480321A601A6822F480221A6030
:102CE80002F050FEA24D074641F2883605E002F098
:102CF80049FEC01BB04200F248812B689A03F6D502
:102D08002368980700F18980D90630D5984A136955
:102D1800926A03F03803082B00F0E080182B00F0CB
:102D2800D880E369002B00F07181914B1A681D4629
:102D380042F080021A6002F025FE064605E002F025
:102D480021FE801B022800F220812B68DB05F6D5C6
:102D580002F030FE41F20303984200F220826B68D1
:102D6800226A23F0F84343EA82636B6023681D07F5
:102D780017D56369002B00F023817D4B5A6F1D46E0
:102D880042F001025A6702F0FDFD064605E002F036
:102D9800F9FD801B022800F2F8806B6F9807F6D5C2
:102DA80023689A0617D5A369002B00F01C81704B85
:102DB8001A681D4642F480521A6002F0E3FD064686
:102DC80005E002F0DFFD801B022800F2DE802B68A0
:102DD8009F04F6D52368590700F19E80636AD3B132
:102DE800634A116901F03801182970D0022B136861
:102DF80000F0498123F080731446136002F0C2FD8D
:102E0800054605E002F0BEFD401B022800F2BD8029
:102E180023689B01F6D40020F8BD554A1369926ACD
:102E280013F038032AD1524BE1681B685A0701D5C1
:102E380000294CD04E4A1368154623F019030B435A
:102E4800136002F09FFD064605E002F09BFD801B23
:102E5800022800F29A802B685B07F6D502F0AAFDDB
:102E680041F20303226998426B6800F2FB8023F465
:102E78007C3343EA02336B60236845E7182B00F084
:102E8800ED80E268002A00F0D58039490B680D46CC
:102E980023F0190313430B6002F074FD064604E0A7
:102EA80002F070FD801B02286FD82B685F07F7D5EA
:102EB800D4E701F0030102297FF4FDAE2C4A126821
:102EC80091037FF51EAF6268002A7FF41AAF0120D4
:102ED800F8BD02F00302012A7FF423AF244B1B68DC
:102EE800DA0502D5E369802BF1D102F063FD41F2E6
:102EF80003031F4A9842216A00F2BD80536823F0F9
:102F0800F84343EA81635360236830E7184A13683B
:102F180043F480331360E3E6164B1A681D4642F407
:102F280080721A6002F02EFD064604E002F02AFDC7
:102F3800801B642829D82B68DA05F7D5A368012BEC
:102F480000F03681002B00F01081052B084B1A6F1A
:102F580000F0348122F001021A671A6F22F004028D
:102F68001A6702F00FFD024D074641F2883608E065
:102F7800004402580048025802F004FDC01BB04249
:102F880003D82B6F9B07F7D528E70320F8BD8F4B95
:102F980041F288371A681D4622F480321A601A688E
:102FA80022F480221A6002F0EDFC064604E002F0EA
:102FB800E9FC801BB842E8D82B689B03F7D49FE64E
:102FC800824B5A6F1D4622F001025A6702F0DAFC62
:102FD800064604E002F0D6FC801B0228D5D86B6FA9
:102FE8009907F7D4DCE6794B1A681D4622F480521B
:102FF8001A6002F0C7FC064604E002F0C3FC801B1E
:103008000228C2D82B689804F7D4E3E66F4B1A68F5
:103018001D4622F080021A6002F0B4FC064604E065
:1030280002F0B0FC801B0228AFD82B68DF05F7D46C
:1030380023689CE6654B1A681D4622F001021A6057
:1030480002F0A0FC064604E002F09CFC801B02286B
:103058009BD82B685807F7D4236855E691077FF467
:1030680010AFE0E623F0FE4343EA02636B60236897
:103078004AE601207047D36823F07C5343EA016392
:10308800D360236873E623F080731546136002F05B
:1030980079FC064605E002F075FC801B02283FF625
:1030A80074AF2B689901F6D4AA6A494BA06A1340F9
:1030B800E26A48490343454E43EA0213AB62276B71
:1030C800D4E90D32013F501E013BE26BC7F30807FC
:1030D8005B020004013A9BB200F4FE0012060343AF
:1030E80002F0FE423B4313432B63EB6A23F00103D8
:1030F800EB626A6BA36C114041EAC3016963EB6A36
:10310800226C23F00C031343EB62EB6A626C23F02E
:1031180002031343EB62EB6A43F48033EB62EB6A1E
:1031280043F40033EB62EB6A43F48023EB62EB6A0F
:1031380043F00103EB622B6843F080732B6002F0CD
:1031480021FC044605E002F01DFC001B02283FF6A6
:103158001CAF33689A01F6D55DE642F480221A6006
:103168001A6842F480321A60BAE5184B41F288377F
:103178001A6F1D4622F001021A671A6F22F0040224
:103188001A6702F0FFFB064605E002F0FBFB801B16
:10319800B8423FF6FAAE2B6F9807F6D41EE6EB68F6
:1031A800226A23F07C5343EA0263EB602368DEE57E
:1031B800064A136F43F001031367D2E642F0040294
:1031C8001A671A6F42F001021A67CAE600440258E9
:1031D8000CFCFFFF0700FFFF3E4A136903F03803AA
:1031E800102B04D0182B0DD01BB13B4870473B481F
:1031F80070471368990647D513683948C3F3C10364
:10320800D8407047916A906AD36AC0F3051010B429
:10321800546BB0B3C4F3CC0403F0010301F0030111
:1032280007EE900A03FB04F30129F8EEE77A07EEAC
:10323800103ABAEEE97A29D059B3022926D1DFED3E
:10324800295AC5EEA76A136BC3F3080307EE903A31
:10325800B7EE006AF8EEE77A37EE877A37EE067A45
:1032680027EE267A1B4B1B6BC3F34623013307EE6D
:10327800903AF8EEE76AC7EE267AFCEEE77A17EEA0
:10328800900A5DF8044B704715487047DFED165AF1
:10329800D7E713689B061AD51068B7EE005A10498D
:1032A800C0F3C100136BC140C3F3080306EE901AC4
:1032B800F8EEE65A06EE903AB8EEE66AC5EEA76A68
:1032C80036EE077A37EE057A26EE877ACAE7DFED1B
:1032D800075AB6E70044025800093D0040787D01CE
:1032E8000090D00320BCBE4B0024744A0024744CC8
:1032F80078B1864A136803F00F038B420BD2136828
:1033080023F00F030B431360136803F00F038B4282
:1033180001D00120704703682DE9F0415D070BD506
:103328007B4C0569A26902F07002954204D9A26932
:1033380022F070022A43A2611C070BD5744C456920
:10334800E26902F07002954204D9E26922F0700243
:103358002A43E261DA060BD56D4C8569E26902F40D
:10336800E062954204D9E26922F4E0622A43E2610C
:103378009F060BD5664CC569226A02F07002954219
:1033880004D9226A22F070022A4322629E07044668
:103398000D4603F0010257D55D4EC068B16901F0D2
:1033A8000F01884204D9B16921F00F010143B161CD
:1033B800002A30D0564AA168936923F470630B43FE
:1033C800936161681368022900F09680032900F070
:1033D8008F80012900F096805F0732D54C4A41F270
:1033E80088381369164623F007030B43136102F06C
:1033F800C9FA074604E002F0C5FAC01B40457FD869
:103408003369626803F03803B3EBC20FF3D1236862
:103418009E0706D5E0683E498A6902F00F0282429B
:1034280060D83A490A6802F00F02AA420FD90A681E
:1034380022F00F022A430A600A6802F00F02AA4229
:1034480005D00120BDE8F081002AB3D1E9E758078B
:103458000BD52F4920698A6902F07002904204D284
:103468008A6922F0700202438A6119070BD528493C
:103478006069CA6902F07002904204D2CA6922F0F7
:1034880070020243CA61DA060BD52149A069CA69EC
:1034980002F4E062904204D2CA6922F4E062024374
:1034A800CA619B060BD51A4AE169136A03F07003D7
:1034B800994204D2136A23F070030B431362FFF797
:1034C8008BFE134B13499B69134AC3F30323CB5C4D
:1034D80003F01F0320FA03F30F20BDE8F041136047
:1034E80002F0F0B98A6922F00F021043886198E768
:1034F8009A013FF573AFA4E798033FF56FAFA0E7D4
:1035080003209FE7DB053FF569AF9AE700200052EB
:1035180000440258D07000080000002408B501F0EB
:10352800E3F8064B06499B69064A03F00F03CB5C98
:1035380003F01F03D840106008BD00BF00440258C4
:10354800D0700008040000243B4AF8B5936A03F0E1
:103558000303032B69D013680F460646144623F06D
:103568008063136002F00EFA054604E002F00AFADE
:10357800401B022857D823681A01F7D4A36A326877
:1035880023F47C332D4943EA0233A3627568D6E9F4
:103598000232013D501E013B3269C5F308055B024A
:1035A8000004013A9BB200F4FE001206034302F045
:1035B800FE422B431343A363E36A726923F0C003FB
:1035C8001343E362E36AB26923F020031343E3621F
:1035D800E36A23F01003E362E26BF369114041EA06
:1035E800C301E163E36A43F01003E362E36AF7B1FE
:1035F800012F0CBF43F4801343F40013E3620E4B16
:103608001A681C4642F080621A6002F0BBF905464F
:1036180004E002F0B7F9401B022804D823681B0114
:10362800F7D50020F8BD0320F8BD0120F8BD43F40C
:103638000023E362E3E700BF004402580700FFFFEE
:103648003B4AF8B5936A03F00303032B69D0136868
:103658000F460646144623F08053136002F092F991
:10366800054604E002F08EF9401B022857D823686B
:103678009A00F7D4A36A326823F07C732D4943EA91
:103688000253A3627568D6E90232013D501E013B20
:103698003269C5F308055B020004013A9BB200F4E5
:1036A800FE001206034302F0FE422B431343236439
:1036B800E36A726923F440631343E362E36AB2691D
:1036C80023F400731343E362E36A23F48073E36231
:1036D800626CF369114041EAC3016164E36A43F42F
:1036E8008073E362E36AF7B1012F0CBF43F4000370
:1036F80043F08073E3620E4B1A681C4642F0805216
:103708001A6002F03FF9054604E002F03BF9401B5D
:10371800022804D823689B00F7D50020F8BD0320B1
:10372800F8BD0120F8BD43F48003E362E3E700BF7E
:10373800004402580700FFFF2DE9F84303680446D8
:1037480013F0006514D0426EB2F5801F00F0C684F5
:103758001AD9B2F5001F00F0B983B2F5401F40F046
:103768002F8399480025016D21F440110A43026511
:10377800DE0513D5626D042A0FD8DFE812F0820443
:103788008904760427042704002A40F019838E4808
:10379800C16A41F40031C162E3E701252E4698056C
:1037A8001BD5A26D802A00F0B38400F2A180002A04
:1037B80000F0A983402A40F0A2800021201DFFF7D5
:1037C800C3FE23680646002E40F073837E49A06D31
:1037D8000A6D22F4E07202430A6559051FD5D4F830
:1037E800A420B2F5800F00F08A8400F28B80002AB2
:1037F80000F08383B2F5001F40F08C800021201D6B
:10380800FFF7A2FE23680646002E40F054836E4957
:10381800D4F8A4008A6D22F4600202438A651A056E
:103828001DD5D4F8A820B2F1007F00F04E8474D8DA
:10383800002A00F05C83B2F1807F74D10021201D42
:10384800FFF782FE23680646002E40F02E835E496D
:10385800D4F8A8008A6D22F0E06202438A659F01CD
:103868000BD5A26C102A00F0BD8368D9202A00F07D
:103878002483302A65D001252E46D8041BD5E26D55
:10388800B2F5005F00F0328450D8002A00F0298396
:10389800B2F5805F50D10021201DFFF755FE236847
:1038A8000646002E40F003834749E06D0A6D22F476
:1038B800E04202430A65990459D5226EB2F5003FE9
:1038C80000F0A28348D842B1B2F5803F4DD1012122
:1038D800201DFFF739FE23680646002E40F0388386
:1038E8003949206E0A6D22F4E02202430A653EE05F
:1038F800C02A3FF468AFB2F5807F3FF464AF01257A
:103908002E466AE7B2F5C00F3FF47EAFB2F5000F5E
:103918003FF47AAF01252E4681E7B2F1407F93D07C
:10392800B2F1806F90D001252E4698E7B2F5405F3E
:10393800B7D0B2F5804FB4D001252E46BBE7002A98
:1039480099D1002E40F0ED821F49A06CCA6C22F07C
:1039580030020243CA6490E7B2F5802FBDD0B2F5B9
:10396800A02FBAD0B2F5403FB7D001252E465A0451
:1039780037D5D4F8AC20B2F1005F00F0578325D8D2
:1039880042B1B2F1805F2AD10121201DFFF7DCFD91
:1039980023680646002E40F0DD820B491F04D4F848
:1039A800AC008A6D22F0E04242EA00028A651AD42D
:1039B800D80128D5626C032A00F2F583DFE812F0FB
:1039C800A001F4029A01A00100440258B2F1804F0C
:1039D800E0D0B2F1A04FDDD0B2F1405FDAD00125DE
:1039E8002E461F04E4D5E26EB2F1805F00F0168324
:1039F800B2F1005F00F0D381002A00F0D6810125E2
:103A0800D8012E46D6D4590200F18781DF0739D56F
:103A1800A26F282A00F28583DFE812F030008303C2
:103A2800830383038303830383038303CE02830314
:103A380083038303830383038303830329008303AB
:103A48008303830383038303830383033000830394
:103A58008303830383038303830383033000830384
:103A680083038303830383038303830330000121D8
:103A780004F12400FFF7E4FD23680646002E00F059
:103A88006D823546980716D5626F052A00F28E8337
:103A9800DFE812F00D00800206000D000D000D0099
:103AA800012104F12400FFF7CBFD23680646002E10
:103AB80000F02F823546590717D5D4F89020052AEB
:103AC80000F27783DFE812F00D005C0206000D00BB
:103AD8000D000D00012104F12400FFF7B1FD23685A
:103AE8000646002E00F0278235469A061DD5D4F8E2
:103AF8008C20B2F1005F00F07D8200F285814AB12E
:103B0800B2F1805F40F08C810021201DFFF71CFD81
:103B180023680646002E40F01982B949D4F88C0073
:103B28004A6D22F0E04202434A655F061DD5D4F88B
:103B38009820B2F5006F00F0838200F252814AB1FA
:103B4800B2F5806F40F059810021201DFFF7FCFC81
:103B580023680646002E40F0FF81A949D4F8980052
:103B68008A6D22F4E05202438A6518061DD5D4F8FE
:103B78009C20B2F5804F00F06D8200F223814AB19B
:103B8800B2F5005F40F02A810021201DFFF7DCFC20
:103B980023680646002E40F0D7819949D4F89C0046
:103BA8008A6D22F4604202438A6519070BD5D4F85E
:103BB8008010B1F5805F00F072829148426D22F466
:103BC80040520A434265DA060BD5D4F89410B1F591
:103BD800807F00F06F828A48826D22F440720A4327
:103BE80082651F030ED5D4F8A010B1F5803F00F010
:103BF8003C81B1F5003F00F03F81002900F0A1822F
:103C080001252E4658030FD5D4F88420B2F5001F9D
:103C180000F01981B2F5401F00F01C81B2F5801F39
:103C280000F0988201252E46D90317D5E26C002AA8
:103C380000F09E81B2F5803F40F034810221201DC2
:103C4800FFF782FC06462368002E40F08F816C49FE
:103C5800E06CCA6C22F480320243CA649A0000F114
:103C680016819F0335D4281C18BF0120DE0206D513
:103C78006349256F0A6D22F000422A430A65DD0078
:103C880007D55F49D4F8B4500A6922F480422A4320
:103C98000A61990206D55A49A56E0A6D22F080720A
:103CA8002A430A655A0009D5554A116921F4004189
:103CB80011611169D4F8B85029431161002B06DA53
:103CC8004F4A216DD36C23F040530B43D364BDE8B6
:103CD800F883E26FB2F5807F00F02A8240F2A38079
:103CE800B2F5007F00F0A280B2F5407F00F09E8020
:103CF8000120BBE70221201DFFF726FC23680646AA
:103D0800002E40F016813E49606CCA6C22F0030216
:103D18000243CA6459027FF579AE3A4B1A681F46C6
:103D280042F480721A6001F02DFE804606E001F030
:103D380029FEA0EB0800642800F2F6813B68DA054A
:103D4800F5D5002E40F02C822D4AD4F8B030116FF2
:103D5800594011F4407F0BD0116F106F21F440715E
:103D680040F480301067106F20F4803010671167BE
:103D7800B3F5807F00F0F78103F44072B2F5407F1D
:103D880000F004821E490A6922F47C520A611C4A26
:103D9800C3F30B03116F0B431367236836E6012146
:103DA800201DFFF7D1FB23680646002E40F0BF8098
:103DB8001349E06E0A6D22F0405202430A65F7E5A6
:103DC8000125D5E4B2F5004F3FF4E4AEB2F5204F3B
:103DD8003FF4E0AEB2F5C04F3FF4DCAE01252E460D
:103DE800E3E6B2F5805F3FF4B5AEB2F5A05F3FF40D
:103DF800B1AEB2F5406F3FF4ADAE01252E46B4E644
:103E08000044025800480258B2F1804F3FF482AE95
:103E1800B2F1A04F3FF47EAEB2F1405F3FF47AAE0C
:103E280001252E4681E6002A7FF462AF002E7FF43A
:103E38005FAFAD4E281C716D18BF012021F4407191
:103E48000A43726512E7012104F12400FFF7F8FB29
:103E580023680646002E68D1A349D4F884004A6D29
:103E680022F4401202434A65DEE6022104F12400EE
:103E7800FFF7E6FB23680646002E54D19A49D4F88A
:103E8800A0008A6D22F4403202438A65BAE6022114
:103E980004F12400FFF7D4FB236800283FF4E1AEC7
:103EA8000125DEE601252E46D8E63546D7E4354617
:103EB80001E5354691E43546B1E40221201DFFF7BE
:103EC80043FB06462368002E2BD13DE50221243012
:103ED800FFF7B6FB05462368002D7FF449AC626EF8
:103EE8003FE48149CA6A42F40032CA62D9E47E4991
:103EF800CA6A42F40032CA62A6E47B49CA6A42F43A
:103F08000032CA6280E47849CA6A42F40032CA625E
:103F180059E47549606F4A6D22F0070202434A6509
:103F2800C9E53546A9E435466CE635467CE63546AE
:103F38003EE5354667E56C49D4F890008A6D22F075
:103F4800070202438A65D0E535462EE63546ECE59C
:103F580035460CE5354644E5354606E66249A06F28
:103F68004A6D22F0380202434A658BE5354675E60C
:103F78005D49CA6A42F40032CA62002EF6D166E68A
:103F88000121201DFFF7E0FA06462368002E7FF482
:103F9800ABADD0E70121201DFFF7D6FA064623680E
:103FA800002E7FF487ADB4E74F49CA6A42F4003265
:103FB800CA62002EBDD1A6E60121201DFFF7C4FA72
:103FC80006462368002E7FF45CADC7E72E46002E18
:103FD80054D14549606D0A6D22F0070202430A6513
:103FE800FFF7DDBB4049CA6A42F40032CA62002EBC
:103FF80097D1A9E4022104F12400FFF721FB06462A
:104008002368002EA2D188E5012104F12400FFF7DE
:1040180017FB06462368002E9AD161E43249CA6A22
:1040280042F40032CA62002E81D1C1E6012104F1B6
:104038002400FFF705FB06462368002E8AD1ACE46E
:10404800022104F12400FFF7FBFA06462368002E3C
:1040580082D182E5022104F12400FFF7F1FA064635
:104068002368002E7FF470AF97E5002104F1240047
:10407800FFF7E6FA06462368002EAAD03546FFF772
:104088008EBB19492E46CA6A42F40032CA629EE7BC
:104098000021201DFFF758FA2368064697E70221FA
:1040A80004F12400FFF7CCFA236800283FF48BAD15
:1040B800012588E5022104F12400FFF7C1FA2368ED
:1040C80000283FF48EAD01258BE5002104F1240082
:1040D800FFF7B6FA23680646FFF7B6BB022104309D
:1040E800FFF732FA0546F6E600440258002104F1CB
:1040F8002400FFF7A5FA23680646FFF7D2BB002184
:1041080004F12400FFF79CFA23680646FFF77CBBFE
:10411800002104F12400FFF793FA23680646FFF70D
:1041280052BB01252E46ADE4032523682E466DE4D7
:104138002148C16A41F40031C162002E7FF4D8AD34
:1041480077E6201DFFF700FA06462368002E7FF465
:10415800EAAE93E61849CA6A42F40032CA62002EEF
:104168007FF4E3AE78E601F00DFC134F814641F28F
:10417800883805E001F006FCA0EB09004045D3D8DB
:104188003B6F9B07F6D5D4F8B030F5E50A480B4AE3
:10419800016902EA131221F47C510A430261F6E52F
:1041A8002368354632E401252E462CE401252E46A7
:1041B80081E401252E4698E400440258CFFFFF0011
:1041C800464A30B4946A936AD16AC3F30533D56B0F
:1041D800002B5DD0C5F3CC0501F0100104F00304F9
:1041E80007EE903A01FB05F1012CF8EEE77A06EEAE
:1041F800901AFAEEE96A48D0002C4ED0022C44D12D
:104208009FED377A87EE276A936BC3F3080307EEAF
:10421800903AF7EE005AB8EEE77A77EE267A77EE1C
:10422800A57A67EE867A2D4AB7EE006A936BC3F3D8
:10423800462306EE903AF8EEE66A30BC76EE866AD9
:1042480087EEA67ABCEEC77A80ED007A936BC3F34B
:10425800064306EE903AF8EEE66A76EE866A87EE50
:10426800A67ABCEEC77A80ED017A936BC3F3066336
:1042780007EE103AB8EEC77A37EE067AC7EE876AC5
:10428800FCEEE66AC0ED026A70479FED167AB9E760
:10429800C0E90033836030BC704713689B061AD5A9
:1042A8001468B7EE005A1049C4F3C104936BE14097
:1042B800C3F3080307EE101AF8EEC75A07EE103AD0
:1042C800B8EEC76A85EEA77A76EE267A77EE857A13
:1042D80067EE277AA7E79FED057A93E7004402582F
:1042E80020BCBE4B0024744A0090D0030024744CB8
:1042F800464A30B4946A936AD16AC3F30553556C3D
:10430800002B5DD0C5F3CC0501F4807104F00304E3
:1043180007EE903A01FB05F1012CF8EEE77A06EE7C
:10432800901AFAEEE96A48D0002C4ED0022C44D1FB
:104338009FED377A87EE276A136CC3F3080307EEFD
:10434800903AF7EE005AB8EEE77A77EE267A77EEEB
:10435800A57A67EE867A2D4AB7EE006A136CC3F326
:10436800462306EE903AF8EEE66A30BC76EE866AA8
:1043780087EEA67ABCEEC77A80ED007A136CC3F399
:10438800064306EE903AF8EEE66A76EE866A87EE1F
:10439800A67ABCEEC77A80ED017A136CC3F3066384
:1043A80007EE103AB8EEC77A37EE067AC7EE876A94
:1043B800FCEEE66AC0ED026A70479FED167AB9E72F
:1043C800C0E90033836030BC704713689B061AD578
:1043D8001468B7EE005A1049C4F3C104136CE140E5
:1043E800C3F3080307EE101AF8EEC75A07EE103A9F
:1043F800B8EEC76A85EEA77A76EE267A77EE857AE2
:1044080067EE277AA7E79FED057A93E700440258FD
:1044180020BCBE4B0024744A0090D0030024744C86
:10442800464A30B4946A936AD16AC3F30513556B4C
:10443800002B5DD0C5F3CC0501F0010104F00304A5
:1044480007EE903A01FB05F1012CF8EEE77A06EE4B
:10445800901AFAEEE96A48D0002C4ED0022C44D1CA
:104468009FED377A87EE276A136BC3F3080307EECD
:10447800903AF7EE005AB8EEE77A77EE267A77EEBA
:10448800A57A67EE867A2D4AB7EE006A136BC3F3F6
:10449800462306EE903AF8EEE66A30BC76EE866A77
:1044A80087EEA67ABCEEC77A80ED007A136BC3F369
:1044B800064306EE903AF8EEE66A76EE866A87EEEE
:1044C800A67ABCEEC77A80ED017A136BC3F3066354
:1044D80007EE103AB8EEC77A37EE067AC7EE876A63
:1044E800FCEEE66AC0ED026A70479FED167AB9E7FE
:1044F800C0E90033836030BC704713689B061AD547
:104508001468B7EE005A1049C4F3C104136BE140B4
:10451800C3F3080307EE101AF8EEC75A07EE103A6D
:10452800B8EEC76A85EEA77A76EE267A77EE857AB0
:1045380067EE277AA7E79FED057A93E700440258CC
:1045480020BCBE4B0024744A0090D0030024744C55
:10455800B0F5807F00B585B048D0B0F5007F11D0A8
:10456800B0F5806F00F08280B0F5006F52D0B0F5E2
:10457800805F2CD0B0F5002F00F09680002005B0A9
:104588005DF804FB534A136D03F4E073802B59D094
:1045980012D9C02B26D0B3F5807FEFD1D36C13F09E
:1045A80040535BD0B3F1805F00F08D80B3F1005FC2
:1045B800494818BF002016E0002B3CD0402BDDD125
:1045C80001A8FFF7FDFD019805B05DF804FB414A1D
:1045D800136D03F4E043B3F5005F33D029D9B3F585
:1045E800405F58D13D4805B05DF804FB394B1B6D61
:1045F80003F00703042BC1D801A252F823F000BF2F
:104608003F460008C94500084D460008ED4500082A
:104618005B4600082F4A936D03F0E063B3F1007F17
:1046280010D01DD9B3F1407FDCD0B3F1806FB5D085
:10463800A4E7002B34D101A8FFF7F2FE029805B0D9
:104648005DF804FB01A8FFF753FE019805B05DF87B
:1046580004FB204BDB6C13F04053A3D12048C2E786
:10466800002BE8D0B3F1807FAAD087E7194A936D71
:1046780003F46003B3F5800FE4D005D8002BDAD03B
:10468800B3F5001F9CD079E7B3F5C00FAAD0B3F5F6
:10469800000F83D072E7B3F5804F3FF47FAF6DE72B
:1046A800B3F5805F8CD069E70A4A936D03F4403311
:1046B800B3F5803F09D0B3F5003F3FF46FAF002B4F
:1046C8007FF45CAF7CE707488DE701A8FFF710FE91
:1046D800039888E70044025840787D010080BB00B9
:1046E8000090D00300093D0008B5FEF775FD064BA4
:1046F80006499B69064AC3F30323CB5C03F01F03F7
:10470800D840106008BD00BF00440258D0700008AF
:10471800000000242DE9F04F0E6883B0002E00F051
:10472800C7800023DFF83482DFF834E201229A40A0
:1047380012EA060C00F0B7804D6825F01009B9F1AF
:10474800020F40F0B8804FEAD30903F0070A4FF090
:104758000F0B0C6900EB89094FEA8A0AD9F8207017
:104768000BFA0AFB04FA0AF44FEA430A27EA0B0792
:104778004FF0030B3C430BFA0AFB05F00307C9F89B
:1047880020406FEA0B04D0F8009007FA0AF704EA11
:10479800090947EA090707608768C5F3001904EAA9
:1047A800070BCF6809FA03F907FA0AF747EA0B0774
:1047B8008760476827EA020249EA02024260C7683E
:1047C8008A683C40EF0002FA0AF242EA0402C26038
:1047D80069D5D8F8F47023F0030903F003020F2415
:1047E80047F0020709F1B0499200C8F8F47009F5DA
:1047F8008069D8F8F47004FA02FA07F00207019702
:104808004D4F019CB842D9F8084024EA0A0420D048
:1048180007F58067B8426CD0484FB8426ED0484F11
:10482800B84261D0474FB84272D0474FB84274D0AF
:10483800464FB84267D0464FB84273D0454FB8424A
:1048480075D0454FB8420CBF09270A2707FA02F26C
:104858001443C9F808406FEA0C07DEF80020EC039F
:1048680054BF3A404CEA0202CEF80020AA03DEF810
:1048780004404FF0B04254BF3C404CEA0404CEF828
:1048880004401468EA024FF0B04254BF3C404CEA7E
:1048980004041460AC0252684FF0B04454BF3A406C
:1048A8004CEA02026260013336FA03F27FF43EAF4B
:1048B80003B0BDE8F08F4FEA430A0324D0F800B0F4
:1048C80009F1FF3905EA040704FA0AF4B9F1010FFE
:1048D8006FEA040407FA0AF704EA0B0B47EA0B0726
:1048E80007603FF66CAF57E7032707FA02F2144355
:1048F800AFE7012707FA02F21443AAE7022707FAEB
:1049080002F21443A5E7062707FA02F21443A0E7C8
:10491800042707FA02F214439BE7052707FA02F275
:10492800144396E7072707FA02F2144391E708278A
:1049380007FA02F214438CE70000025800080258F4
:10494800000C0258001002580014025800180258AF
:10495800001C025800200258002402580044025843
:1049680080000058F0B4D0E91957C46E866D6F60A6
:1049780014B1D0E91C4565600568504CDFF854C196
:104988004F4F654518BFA5420CF1300C0CBF0124F0
:104998000024BD4208BF44F001043037654508BF14
:1049A80044F001040CF1300CBD4208BF44F001048E
:1049B8003037654508BF44F001040CF1300CBD42A6
:1049C80008BF44F0010407F55C77654508BF44F06B
:1049D80001040CF55C7CBD4208BF44F0010430378B
:1049E800654508BF44F001040CF1300CBD4208BF16
:1049F80044F001043037654508BF44F001040CF168
:104A0800300CBD4208BF44F001043037654508BF8B
:104A180044F00104BD4208BF44F0010414B9294C14
:104A2800A54214D1C76D3F24D0F808C007F01F076E
:104A3800BCF1400F04FA07F4B460286820F4802021
:104A480028606B6036D0A960EA60F0BC70471E4CE5
:104A5800DFF884C01D4F654518BFA5420CF1280C2E
:104A68000CBF01240024BD4208BF44F001042837CC
:104A7800654508BF44F001040CF1280CBD4208BF8D
:104A880044F001042837654508BF44F00104BD42DD
:104A980008BF44F0010414B90D4CA542D5D1C76D27
:104AA8000124806807F01F07402804FA07F474609F
:104AB8006B60C8D1AA60E960F0BC70471000024082
:104AC80040000240B80402400854025830540258CA
:104AD80094540258280002401C54025802680146A7
:104AE800334B344830B4344C344DA24218BF9A4248
:104AF80004F148040CBF01230023824208BF43F09D
:104B080001034830AA4208BF43F001034835A242D6
:104B180008BF43F001034834824208BF43F0010351
:104B280000F56270AA4208BF43F0010305F56275FB
:104B3800A24208BF43F0010304F56274824208BF31
:104B480043F001034830AA4208BF43F00103483547
:104B5800A24208BF43F001034834824208BF43F031
:104B680001034830AA4208BF43F00103A24208BF2C
:104B780043F00103824208BF43F0010313B9104B0D
:104B88009A4211D1D4B20F4B0F48103C0F4D104030
:104B9800A3FB04C35F2CC3F3021388BF0430EB5C90
:104BA8008865CB6530BC704722F0FF008865F9E75F
:104BB8001000024040000240280002405800024015
:104BC800B8040240ABAAAAAA00FCFFFFE0700008E4
:104BD80001682A4B2A4A914218BF994202F13C02C5
:104BE8000CBF0123002330B4264D274CA94208BF2F
:104BF80043F001033C35A14208BF43F001033C34B4
:104C0800914208BF43F00103CAB2A94208BF43F06A
:104C18000103A14208BF43F0010313B91B4B99429A
:104C280013D1A2F108031A4A1A490124A2FB03234B
:104C3800194A1B094266194403F01F03890004FA44
:104C480003F30166836630BC7047A2F11003134A70
:104C5800134C0A44A4FB0343A82A4FEA131300D8B1
:104C68000833104A03F01F0501210F4C1A44A940CC
:104C78004466920081660266E5E700BF0854025860
:104C88001C54025830540258445402589454025840
:104C9800CDCCCCCC0096001680580258F0FBFDBF56
:104CA800ABAAAAAA0082001080080240F8B5044600
:104CB80000F068FE002C00F0D38023680546974A70
:104CC800934249D01832934246D03032944895499D
:104CD800834218BF934200F148000CBF0122002212
:104CE8008B4208BF42F001023031834208BF42F0D4
:104CF800010230308B4208BF42F0010201F55C71BD
:104D0800834208BF42F0010200F55C708B4208BF85
:104D180042F001023031834208BF42F001023030D4
:104D28008B4208BF42F001023031834208BF42F093
:104D3800010230308B4208BF42F001023031834219
:104D480008BF42F001028B4208BF42F001021AB9C3
:104D5800754A934240F0FC800222002184F83520F5
:104D68001A6884F8341022F001021A601A68D00711
:104D780010D503E023681A68D1070BD500F002FEAE
:104D8800401B0528F6D9202203230120626584F8F8
:104D98003530F8BDD4E90220216902431F68D4E9FF
:104DA80005650A433243614ED4E907102A433E4061
:104DB8000A43616A0243042942EA060239D01A60AA
:104DC8005A6922F00702114359612046FFF786FE0F
:104DD800E26D3F2302F01F02934083602046FFF7F5
:104DE800F7FEA368802B13D06368256EDAB2013B07
:104DF800D4E91910072B2A60486010D8501E0728DC
:104E080030D9626FD4E91B31002018604A600AE08B
:104E18000023A16ED4E91802636003605160002387
:104E2800C4E91B33636700200123606584F83530CB
:104E3800F8BDD4E90B01A66A01430A431A6059690F
:104E480021F00701314341F004010028BCD0002DB6
:104E58003ED1012E5CD0002E42D0022EB4D13FE0CC
:104E68000120F8BD2168324B324E334DB14218BF94
:104E7800994206F128060CBF01230023A94208BF66
:104E880043F001032835B14208BF43F00103283637
:104E9800A94208BF43F001032835B14208BF43F0D7
:104EA8000103A94208BF43F001033BB9234B9942D0
:104EB80004D0234B234913449B0003E0224B23498E
:104EC80013449B0001228240C4E91B3162679BE7BF
:104ED800B5F5005F0ED0022E05D9032E7FF474AF0E
:104EE800C2017FF571AF012340221846626584F83C
:104EF8003530F8BD032E3FF667AF01A252F826F011
:104F0800EF4E0008E94E0008EF4E0008194F000860
:104F1800B0F1C07F7FF458AFE5E700BF1000024052
:104F28004000024070000240B80402403F8010FE7A
:104F3800085402581C5402583054025894540258C9
:104F48003F820010400902403F960016405902581F
:104F5800334A344934488B4218BF934201F128013F
:104F6800324D0CBF01220022834208BF42F00102E9
:104F78003C308B4208BF42F001023C31AB4208BFD3
:104F880042F00102834208BF42F001028B4208BF8F
:104F980042F0010212B9264A93423AD10220A2688D
:104FA8002449002584F83500402A186884F83450CC
:104FB80001EA00012BD0802A0CBF4FF480472F460E
:104FC80022692046E668D2086569DFF870C042EABF
:104FD800D602A66942EAD502E56942EAD602164E29
:104FE80042EAD5021E44256A42EA1512ACFB06566F
:104FF8000A4331093A4389001A60E165FFF76EFDFB
:10500800E26D012302F01F0293404360E6E6102799
:10501800D6E7402203230120626584F83530F8BDC5
:10502800085402581C540258305402585854025814
:10503800945402580F00FEFFF8ABFDA7CDCCCCCCA2
:10504800002800F09780F8B5044690F8340001284D
:1050580000F09280012094F83550854284F834009D
:1050680006D000224FF4006384F834206365F8BD4D
:105078000227206884F8357000276765056825F0E1
:10508800010505602046FFF76DFC2268444B454842
:105098004549824218BF9A4200F13000434D0CBF87
:1050A800012300238A4208BF43F0010348318242AA
:1050B80008BF43F001034830AA4208BF43F0010388
:1050C80048358A4208BF43F0010301F56271824204
:1050D80008BF43F0010300F56270AA4208BF43F01D
:1050E800010305F562758A4208BF43F001034831A0
:1050F800824208BF43F001034830AA4208BF43F088
:10510800010348358A4208BF43F00103483182420F
:1051180008BF43F001034830AA4208BF43F0010327
:105128008A4208BF43F001031168824208BF43F076
:105138000103206C43B321F01E0141F016011160F8
:1051480018B1116841F008011160216E0868C003A8
:1051580003D5086840F480700860E16E19B10868EA
:1051680040F4807008604BB11368002043F00103DD
:105178001360F8BD012070470220F8BD1168184679
:1051880041F001011160F8BD21F00E0141F00A0162
:1051980011600028D9D0116841F004011160D4E7EA
:1051A8001000024028000240400002407000024007
:1051B8002DE9F04703680446856D0026A94882B0AA
:1051C800A94AAA49934218BF834201960E682F68DC
:1051D80008BF0120296818BF00204FD03032DFF8FF
:1051E80098E2DFF898C2734518BF93420EF1480E53
:1051F8000CBF01220022634508BF42F001020CF1F6
:10520800300C734508BF42F001020EF1300E6345C1
:1052180008BF42F001020CF55C7C734508BF42F000
:1052280001020EF55C7E634508BF42F001020CF1F5
:10523800300C734508BF42F001020EF1300E634591
:1052480008BF42F001020CF1300C734508BF42F070
:1052580001020EF1300E634508BF42F001020CF165
:10526800300C734508BF42F00102634508BF42F0A5
:1052780001021AB97E4A934240F01382D4F85CE0E6
:1052880008220EF01F0C02FA0CF2174200F02B81D4
:105298001968490708D5196821F004011960AA603E
:1052A800626D42F001026265042127FA0CF201FAEC
:1052B8000CF1D20707EA010840F129816D4ADFF8AD
:1052C800B891DFF8B8A14B4518BF934209F14809D6
:1052D8000CBF01220022534508BF42F001020AF127
:1052E800300A4B4508BF42F0010209F13009534525
:1052F80008BF42F001020AF55C7A4B4508BF42F04C
:10530800010209F55C79534508BF42F001020AF130
:10531800300A4B4508BF42F0010209F130095345F4
:1053280008BF42F001020AF1300A4B4508BF42F0BB
:10533800010209F13009534508BF42F001020AF1A0
:10534800300A4B4508BF42F0010209F130095345C4
:1053580008BF42F001024B4508BF42F00102002A93
:1053680040F0CA80002840F0C7801A68B8F1000FE2
:1053780040F02182102101FA0CF10F4240F02C81FB
:105388000EF01F012020884038427DD02268354B1E
:10539800DFF8D4C0384F624518BF9A420CF1300C80
:1053A8000CBF01230023BA4208BF43F00103303782
:1053B800624508BF43F001030CF1300CBA4208BF44
:1053C80043F001033037624508BF43F001030CF195
:1053D800300CBA4208BF43F0010307F55C77624519
:1053E80008BF43F001030CF55C7CBA4208BF43F0E8
:1053F80001033037624508BF43F001030CF1300C5C
:10540800BA4208BF43F001033037624508BF43F092
:1054180001030CF1300CBA4208BF43F001033037E6
:10542800624508BF43F00103BA4208BF43F00103D5
:105438001BB90F4B9A4240F0D9811368C3F300138C
:1054480013B3A86094F83530042B136800F08081FA
:1054580013F4802F136800F097811D0340F1A28197
:105468000EE000BF100002402800024000000024A7
:10547800B804024058000240400002407000024058
:10548800E36B0BB120469847636D002B00F0448115
:10549800636DD8071ED52268042084F83500136888
:1054A80023F001031360A14BA3FB0636B60A02E002
:1054B8001368D90704D5019B0133B3420193F7D987
:1054C80013680022DB0784F834204CBF0323012330
:1054D80084F83530E36C002B00F01E81204602B0C2
:1054E800BDE8F0471847042127FA0CF201FA0CF13D
:1054F800D20707EA01080AD55A69120607D5012218
:1055080002FA0CF2AA60626D42F002026265B8F11A
:10551800000F59D000284FD1854ADFF83092DFF8C4
:1055280018824B4518BF934209F148090CBF012264
:105538000022434508BF42F0010208F130084B45FC
:1055480008BF42F0010209F13009434508BF42F0A3
:10555800010208F55C784B4508BF42F0010209F5E5
:105568005C79434508BF42F0010208F130084B4519
:1055780008BF42F0010209F13009434508BF42F073
:10558800010208F130084B4508BF42F0010209F159
:105598003009434508BF42F0010208F130084B4585
:1055A80008BF42F00102434508BF42F001021AB9A0
:1055B800604A934240F0FF801A68920704D5A960B8
:1055C800626D42F004026265102101FA0CF1394261
:1055D8003FF4D6AE00284AD1554ADFF870C1564884
:1055E800634518BF93420CF1480C0CBF01220022FE
:1055F800834208BF42F001023030634508BF42F0E1
:1056080001020CF1300C834208BF42F0010200F5A0
:105618005C70634508BF42F001020CF55C7C834274
:1056280008BF42F001023030634508BF42F0010272
:105638000CF1300C834208BF42F001023030634560
:1056480008BF42F001020CF1300C834208BF42F05F
:1056580001023030634508BF42F00102834208BFAF
:1056680042F001021AB9334A934240F0AB801A68FB
:10567800C2F3C002002A3FF483AEA9601A6850033F
:105688004DD41A68D20503D41A6822F008021A60A9
:10569800236C002B3FF474AE20469847D4F85CE0A6
:1056A8006EE6264A264E2748B34218BF934206F1B3
:1056B80028060CBF01220022834208BF42F00102E3
:1056C8002830B34208BF42F001022836834208BF9F
:1056D80042F001022830B34208BF42F0010283427F
:1056E80008BF42F0010212B9174A934214D1E06D83
:1056F80004261A6800F01F0086400E4266D057073D
:1057080064D510046E6040F18E80D10300F1918061
:10571800A36C002B7FF4E2AE02B0BDE8F0871B68F3
:105728001903B5D5A36C002BB6D129E6B5814E1B5C
:1057380058000240B8040240700002400854025861
:105748001C540258305402589454025840000240E5
:1057580023F01603206C1360536923F08003536110
:1057680028B3136823F0080313603F2300200122A5
:1057780003FA01F1236DA96084F8340084F8352018
:10578800002B7FF4ABAEC7E713F480737FF478AED9
:105798001168012021F01001116084F8343084F878
:1057A80035006DE6636C002B7FF46CAE6CE6A36C81
:1057B800002BD6D1D9E710211A6801FA0CF10F4253
:1057C8003FF4DEAD1A68C2F3800253E70226864032
:1057D8000E420FD097070DD56E6015042ED5D00355
:1057E80038D4636C002B7FF479AE95E71368C3F364
:1057F800400325E6082686400E428DD011078BD53A
:1058080019680122002621F00E0102FA00F0196041
:10581800E36C6860626584F8346084F83520002B96
:105828007FF45CAE78E7920603D41A6822F004028B
:105838001A60236C002B7FF451AE6DE712F0200242
:1058480008D11968012021F00A01196084F8342070
:1058580084F83500E36B002B7FF440AE5CE700BFB3
:10586800406D704738B5114BDA68520704D4DB68CD
:1058780003F00703834215D10C4AD368144623F07A
:1058880007031843D06000F07DF8054605E000F0F6
:1058980079F8401BB0F57A7F06D863689B04F6D583
:1058A800002038BD012038BD032038BD004802580B
:1058B800024AD36843F08073D360704700480258A7
:1058C800704700BF0F4B1B780BB9012070474FF48E
:1058D8007A720D49B2FBF3F310B504460868B0FBC1
:1058E800F3F0FCF749FB0F2C00D808B1012010BDDC
:1058F800002221464FF0FF30FCF7FAFA034B002054
:105908001C6010BD08000024000000240C000024C6
:1059180038B50320114DFCF7D7FA114CFDF75CFCA4
:10592800104A11499369C3F30323CB5C03F01F03A7
:1059380020FA03F30F202B60926902408A5C02F080
:105948001F02D3402360FFF7BDFF10B1012420469A
:1059580038BD0446FFF7B4FF204638BD00000024D8
:105968000400002400440258D0700008034A044B85
:1059780011681B780B441360704700BF440B022466
:1059880008000024014B1868704700BF440B02242C
:1059980038B50446FFF7F6FF0546631C02D0044BF2
:1059A8001B781C44FFF7EEFF401BA042FAD338BD1A
:1059B80008000024014B1868000C70470010005CB8
:1059C80070B547F2400684B001240546ADF808607A
:1059D8004BF2400602AA009402238C21FCF7FCFB40
:1059E80002AA02238C21ADF80860284600944826B4
:1059F800FCF7F2FB6420FFF7CBFF03AAADF80C60BD
:105A08002846009402238C214326FCF7E5FB03AAD1
:105A18000094284602238C21ADF80C60FCF7DCFBCF
:105A28004CF2400602AA02238C2100942846ADF8C5
:105A38000860FCF7D1FB04B070BD00BF2DE9F0434E
:105A4800012585B07D4C0A274FF01E0C0E46904666
:105A5800994603AA022334210095ADF80CC0C4F876
:105A680004802670206184F80190FCF7B5FB384665
:105A7800FFF78EFF4FF4B85C03AA02233421009588
:105A88002069ADF80CC0FCF7A7FB3846FFF780FF8C
:105A980041F2027C03AA0223342100952069ADF863
:105AA8000CC0FCF799FB3846FFF772FF4FF0040C67
:105AB80003AA0223342100952069ADF80CC0FCF735
:105AC8008BFB3846FFF764FF4FF0060C03AA02234E
